3.060081 unknown PPP protocol (0x0000) 
	0x0000:  0000 000a 0000 0000 0007 0800 4500 024c
	0x0010:  0002 0000 3e06 0000 0a01 0203 0a01 0304
	0x0020:  c001 1f90 0000 0001 0000 0001 8010 8000
	0x0030:  0000 0000 080a 0000 0bc0 0000 080c 0000
	0x0040:  0000 0000 0000 0000 0000 0000 0000 0000
	0x0050:  0000 0000 0000 0000 0000 0000 0000 0000
	0x0060:  0000 0000 0000 0000 0000 0000 0000 0000
	0x0070:  0000 0000 0000 0000 0000 0000 0000 0000
	0x0080:  0000 0000 0000 0000 0000 0000 0000 0000
	0x0090:  0000 0000 0000 0000 0000 0000 0000 0000
	0x00a0:  0000 0000 0000 0000 0000 0000 0000 0000
	0x00b0:  0000 0000 0000 0000 0000 0000 0000 0000
	0x00c0:  0000 0000 0000 0000 0000 0000 0000 0000
	0x00d0:  0000 0000 0000 0000 0000 0000 0000 0000
	0x00e0:  0000 0000 0000 0000 0000 0000 0000 0000
	0x00f0:  0000 0000 0000 0000 0000 0000 0000 0000
	0x0100:  0000 0000 0000 0000 0000 0000 0000 0000
	0x0110:  0000 0000 0000 0000 0000 0000 0000 0000
	0x0120:  0000 0000 0000 0000 0000 0000 0000 0000
	0x0130:  0000 0000 0000 0000 0000 0000 0000 0000
	0x0140:  0000 0000 0000 0000 0000 0000 0000 0000
	0x0150:  0000 0000 0000 0000 0000 0000 0000 0000
	0x0160:  0000 0000 0000 0000 0000 0000 0000 0000
	0x0170:  0000 0000 0000 0000 0000 0000 0000 0000
	0x0180:  0000 0000 0000 0000 0000 0000 0000 0000
	0x0190:  0000 0000 0000 0000 0000 0000 0000 0000
	0x01a0:  0000 0000 0000 0000 0000 0000 0000 0000
	0x01b0:  0000 0000 0000 0000 0000 0000 0000 0000
	0x01c0:  0000 0000 0000 0000 0000 0000 0000 0000
	0x01d0:  0000 0000 0000 0000 0000 0000 0000 0000
	0x01e0:  0000 0000 0000 0000 0000 0000 0000 0000
	0x01f0:  0000 0000 0000 0000 0000 0000 0000 0000
	0x0200:  0000 0000 0000 0000 0000 0000 0000 0000
	0x0210:  0000 0000 0000 0000 0000 0000 0000 0000
	0x0220:  0000 0000 0000 0000 0000 0000 0000 0000
	0x0230:  0000 0000 0000 0000 0000 0000 0000 0000
	0x0240:  0000 0000 0000 0000 0000 0000 0000 0000
	0x0250:  0000 0000 0000 0000 0000 0000
3.478491 IP 10.1.2.3.49153 > 10.1.3.4.8080: Flags [.], seq 11553:12089, ack 1, win 32768, options [TS val 3427 ecr 3376,eol], length 536: HTTP
3.480379 IP 10.1.2.3.49153 > 10.1.3.4.8080: Flags [.], seq 1072:1608, ack 1, win 32768, options [TS val 3427 ecr 3376,eol], length 536: HTTP
3.581066 IP 10.1.2.3.49153 > 10.1.3.4.8080: Flags [.], seq 2680:3216, ack 1, win 32768, options [TS val 3529 ecr 3479,eol], length 536: HTTP
3.681755 IP 10.1.2.3.49153 > 10.1.3.4.8080: Flags [.], seq 0:536, ack 1, win 32768, options [TS val 3630 ecr 3580,eol], length 536: HTTP
5.804530 IP 10.1.2.3.49153 > 10.1.3.4.8080: Flags [.], seq 23584:24120, ack 1, win 32768, options [TS val 5752 ecr 5702,eol], length 536: HTTP
6.616473 IP 10.1.2.3.49153 > 10.1.3.4.8080: Flags [.], seq 34304:34840, ack 1, win 32768, options [TS val 6564 ecr 6514,eol], length 536: HTTP
6.718801 IP 10.1.2.3.49153 > 10.1.3.4.8080: Flags [.], seq 36448:36984, ack 1, win 32768, options [TS val 6667 ecr 6617,eol], length 536: HTTP
6.819279 unknown PPP protocol (0x0000) 
	0x0000:  0000 000a 0000 0000 0007 0800 4500 024c
	0x0010:  0064 0000 3e06 0000 0a01 0203 0a01 0304
	0x0020:  c001 1f90 0000 b321 0000 0001 8010 8000
	0x0030:  0000 0000 080a 0000 1a70 0000 1a3d 0000
	0x0040:  0000 0000 0000 0000 0000 0000 0000 0000
	0x0050:  0000 0000 0000 0000 0000 0000 0000 0000
	0x0060:  0000 0000 0000 0000 0000 0000 0000 0000
	0x0070:  0000 0000 0000 0000 0000 0000 0000 0000
	0x0080:  0000 0000 0000 0000 0000 0000 0000 0000
	0x0090:  0000 0000 0000 0000 0000 0000 0000 0000
	0x00a0:  0000 0000 0000 0000 0000 0000 0000 0000
	0x00b0:  0000 0000 0000 0000 0000 0000 0000 0000
	0x00c0:  0000 0000 0000 0000 0000 0000 0000 0000
	0x00d0:  0000 0000 0000 0000 0000 0000 0000 0000
	0x00e0:  0000 0000 0000 0000 0000 0000 0000 0000
	0x00f0:  0000 0000 0000 0000 0000 0000 0000 0000
	0x0100:  0000 0000 0000 0000 0000 0000 0000 0000
	0x0110:  0000 0000 0000 0000 0000 0000 0000 0000
	0x0120:  0000 0000 0000 0000 0000 0000 0000 0000
	0x0130:  0000 0000 0000 0000 0000 0000 0000 0000
	0x0140:  0000 0000 0000 0000 0000 0000 0000 0000
	0x0150:  0000 0000 0000 0000 0000 0000 0000 0000
	0x0160:  0000 0000 0000 0000 0000 0000 0000 0000
	0x0170:  0000 0000 0000 0000 0000 0000 0000 0000
	0x0180:  0000 0000 0000 0000 0000 0000 0000 0000
	0x0190:  0000 0000 0000 0000 0000 0000 0000 0000
	0x01a0:  0000 0000 0000 0000 0000 0000 0000 0000
	0x01b0:  0000 0000 0000 0000 0000 0000 0000 0000
	0x01c0:  0000 0000 0000 0000 0000 0000 0000 0000
	0x01d0:  0000 0000 0000 0000 0000 0000 0000 0000
	0x01e0:  0000 0000 0000 0000 0000 0000 0000 0000
	0x01f0:  0000 0000 0000 0000 0000 0000 0000 0000
	0x0200:  0000 0000 0000 0000 0000 0000 0000 0000
	0x0210:  0000 0000 0000 0000 0000 0000 0000 0000
	0x0220:  0000 0000 0000 0000 0000 0000 0000 0000
	0x0230:  0000 0000 0000 0000 0000 0000 0000 0000
	0x0240:  0000 0000 0000 0000 0000 0000 0000 0000
	0x0250:  0000 0000 0000 0000 0000 0000
7.919599 IP 10.1.2.3.49153 > 10.1.3.4.8080: Flags [.], seq 38056:38592, ack 1, win 32768, options [TS val 7868 ecr 7818,eol], length 536: HTTP
8.629296 IP 10.1.2.3.49153 > 10.1.3.4.8080: Flags [.], seq 41808:42344, ack 1, win 32768, options [TS val 8577 ecr 8527,eol], length 536: HTTP
9.032088 unknown PPP protocol (0x0000) 
	0x0000:  0000 000a 0000 0000 0007 0800 4500 024c
	0x0010:  0074 0000 3e06 0000 0a01 0203 0a01 0304
	0x0020:  c001 1f90 0000 d8d1 0000 0001 8010 8000
	0x0030:  0000 0000 080a 0000 2314 0000 22e2 0000
	0x0040:  0000 0000 0000 0000 0000 0000 0000 0000
	0x0050:  0000 0000 0000 0000 0000 0000 0000 0000
	0x0060:  0000 0000 0000 0000 0000 0000 0000 0000
	0x0070:  0000 0000 0000 0000 0000 0000 0000 0000
	0x0080:  0000 0000 0000 0000 0000 0000 0000 0000
	0x0090:  0000 0000 0000 0000 0000 0000 0000 0000
	0x00a0:  0000 0000 0000 0000 0000 0000 0000 0000
	0x00b0:  0000 0000 0000 0000 0000 0000 0000 0000
	0x00c0:  0000 0000 0000 0000 0000 0000 0000 0000
	0x00d0:  0000 0000 0000 0000 0000 0000 0000 0000
	0x00e0:  0000 0000 0000 0000 0000 0000 0000 0000
	0x00f0:  0000 0000 0000 0000 0000 0000 0000 0000
	0x0100:  0000 0000 0000 0000 0000 0000 0000 0000
	0x0110:  0000 0000 0000 0000 0000 0000 0000 0000
	0x0120:  0000 0000 0000 0000 0000 0000 0000 0000
	0x0130:  0000 0000 0000 0000 0000 0000 0000 0000
	0x0140:  0000 0000 0000 0000 0000 0000 0000 0000
	0x0150:  0000 0000 0000 0000 0000 0000 0000 0000
	0x0160:  0000 0000 0000 0000 0000 0000 0000 0000
	0x0170:  0000 0000 0000 0000 0000 0000 0000 0000
	0x0180:  0000 0000 0000 0000 0000 0000 0000 0000
	0x0190:  0000 0000 0000 0000 0000 0000 0000 0000
	0x01a0:  0000 0000 0000 0000 0000 0000 0000 0000
	0x01b0:  0000 0000 0000 0000 0000 0000 0000 0000
	0x01c0:  0000 0000 0000 0000 0000 0000 0000 0000
	0x01d0:  0000 0000 0000 0000 0000 0000 0000 0000
	0x01e0:  0000 0000 0000 0000 0000 0000 0000 0000
	0x01f0:  0000 0000 0000 0000 0000 0000 0000 0000
	0x0200:  0000 0000 0000 0000 0000 0000 0000 0000
	0x0210:  0000 0000 0000 0000 0000 0000 0000 0000
	0x0220:  0000 0000 0000 0000 0000 0000 0000 0000
	0x0230:  0000 0000 0000 0000 0000 0000 0000 0000
	0x0240:  0000 0000 0000 0000 0000 0000 0000 0000
	0x0250:  0000 0000 0000 0000 0000 0000
9.132520 unknown PPP protocol (0x0000) 
	0x0000:  0000 000a 0000 0000 0007 0800 4500 024c
	0x0010:  0075 0000 3e06 0000 0a01 0203 0a01 0304
	0x0020:  c001 1f90 0000 d071 0000 0001 8010 8000
	0x0030:  0000 0000 080a 0000 2379 0000 2347 0000
	0x0040:  0000 0000 0000 0000 0000 0000 0000 0000
	0x0050:  0000 0000 0000 0000 0000 0000 0000 0000
	0x0060:  0000 0000 0000 0000 0000 0000 0000 0000
	0x0070:  0000 0000 0000 0000 0000 0000 0000 0000
	0x0080:  0000 0000 0000 0000 0000 0000 0000 0000
	0x0090:  0000 0000 0000 0000 0000 0000 0000 0000
	0x00a0:  0000 0000 0000 0000 0000 0000 0000 0000
	0x00b0:  0000 0000 0000 0000 0000 0000 0000 0000
	0x00c0:  0000 0000 0000 0000 0000 0000 0000 0000
	0x00d0:  0000 0000 0000 0000 0000 0000 0000 0000
	0x00e0:  0000 0000 0000 0000 0000 0000 0000 0000
	0x00f0:  0000 0000 0000 0000 0000 0000 0000 0000
	0x0100:  0000 0000 0000 0000 0000 0000 0000 0000
	0x0110:  0000 0000 0000 0000 0000 0000 0000 0000
	0x0120:  0000 0000 0000 0000 0000 0000 0000 0000
	0x0130:  0000 0000 0000 0000 0000 0000 0000 0000
	0x0140:  0000 0000 0000 0000 0000 0000 0000 0000
	0x0150:  0000 0000 0000 0000 0000 0000 0000 0000
	0x0160:  0000 0000 0000 0000 0000 0000 0000 0000
	0x0170:  0000 0000 0000 0000 0000 0000 0000 0000
	0x0180:  0000 0000 0000 0000 0000 0000 0000 0000
	0x0190:  0000 0000 0000 0000 0000 0000 0000 0000
	0x01a0:  0000 0000 0000 0000 0000 0000 0000 0000
	0x01b0:  0000 0000 0000 0000 0000 0000 0000 0000
	0x01c0:  0000 0000 0000 0000 0000 0000 0000 0000
	0x01d0:  0000 0000 0000 0000 0000 0000 0000 0000
	0x01e0:  0000 0000 0000 0000 0000 0000 0000 0000
	0x01f0:  0000 0000 0000 0000 0000 0000 0000 0000
	0x0200:  0000 0000 0000 0000 0000 0000 0000 0000
	0x0210:  0000 0000 0000 0000 0000 0000 0000 0000
	0x0220:  0000 0000 0000 0000 0000 0000 0000 0000
	0x0230:  0000 0000 0000 0000 0000 0000 0000 0000
	0x0240:  0000 0000 0000 0000 0000 0000 0000 0000
	0x0250:  0000 0000 0000 0000 0000 0000
10.540677 IP 10.1.2.3.49153 > 10.1.3.4.8080: Flags [.], seq 49848:50384, ack 1, win 32768, options [TS val 10489 ecr 10439,eol], length 536: HTTP
10.644885 IP 10.1.2.3.49153 > 10.1.3.4.8080: Flags [.], seq 52528:53064, ack 1, win 32768, options [TS val 10592 ecr 10542,eol], length 536: HTTP
11.251227 IP 10.1.2.3.49153 > 10.1.3.4.8080: Flags [.], seq 54672:55208, ack 1, win 32768, options [TS val 11200 ecr 11149,eol], length 536: HTTP
11.658606 IP 10.1.2.3.49153 > 10.1.3.4.8080: Flags [.], seq 57352:57888, ack 1, win 32768, options [TS val 11606 ecr 11556,eol], length 536: HTTP
11.959024 IP 10.1.2.3.49153 > 10.1.3.4.8080: Flags [.], seq 57888:58424, ack 1, win 32768, options [TS val 11907 ecr 11857,eol], length 536: HTTP
13.567262 IP 10.1.2.3.49153 > 10.1.3.4.8080: Flags [.], seq 61104:61640, ack 1, win 32768, options [TS val 13516 ecr 13465,eol], length 536: HTTP
13.770958 IP 10.1.2.3.49153 > 10.1.3.4.8080: Flags [.], seq 61104:61640, ack 1, win 32768, options [TS val 13719 ecr 13669,eol], length 536: HTTP
13.873333 unknown PPP protocol (0x0000) 
	0x0000:  0000 000a 0000 0000 0007 0800 4500 024c
	0x0010:  00a3 0000 3e06 0000 0a01 0203 0a01 0304
	0x0020:  c001 1f90 0001 2861 0000 0001 8010 8000
	0x0030:  0000 0000 080a 0000 35fe 0000 35cb 0000
	0x0040:  0000 0000 0000 0000 0000 0000 0000 0000
	0x0050:  0000 0000 0000 0000 0000 0000 0000 0000
	0x0060:  0000 0000 0000 0000 0000 0000 0000 0000
	0x0070:  0000 0000 0000 0000 0000 0000 0000 0000
	0x0080:  0000 0000 0000 0000 0000 0000 0000 0000
	0x0090:  0000 0000 0000 0000 0000 0000 0000 0000
	0x00a0:  0000 0000 0000 0000 0000 0000 0000 0000
	0x00b0:  0000 0000 0000 0000 0000 0000 0000 0000
	0x00c0:  0000 0000 0000 0000 0000 0000 0000 0000
	0x00d0:  0000 0000 0000 0000 0000 0000 0000 0000
	0x00e0:  0000 0000 0000 0000 0000 0000 0000 0000
	0x00f0:  0000 0000 0000 0000 0000 0000 0000 0000
	0x0100:  0000 0000 0000 0000 0000 0000 0000 0000
	0x0110:  0000 0000 0000 0000 0000 0000 0000 0000
	0x0120:  0000 0000 0000 0000 0000 0000 0000 0000
	0x0130:  0000 0000 0000 0000 0000 0000 0000 0000
	0x0140:  0000 0000 0000 0000 0000 0000 0000 0000
	0x0150:  0000 0000 0000 0000 0000 0000 0000 0000
	0x0160:  0000 0000 0000 0000 0000 0000 0000 0000
	0x0170:  0000 0000 0000 0000 0000 0000 0000 0000
	0x0180:  0000 0000 0000 0000 0000 0000 0000 0000
	0x0190:  0000 0000 0000 0000 0000 0000 0000 0000
	0x01a0:  0000 0000 0000 0000 0000 0000 0000 0000
	0x01b0:  0000 0000 0000 0000 0000 0000 0000 0000
	0x01c0:  0000 0000 0000 0000 0000 0000 0000 0000
	0x01d0:  0000 0000 0000 0000 0000 0000 0000 0000
	0x01e0:  0000 0000 0000 0000 0000 0000 0000 0000
	0x01f0:  0000 0000 0000 0000 0000 0000 0000 0000
	0x0200:  0000 0000 0000 0000 0000 0000 0000 0000
	0x0210:  0000 0000 0000 0000 0000 0000 0000 0000
	0x0220:  0000 0000 0000 0000 0000 0000 0000 0000
	0x0230:  0000 0000 0000 0000 0000 0000 0000 0000
	0x0240:  0000 0000 0000 0000 0000 0000 0000 0000
	0x0250:  0000 0000 0000 0000 0000 0000
14.874138 IP 10.1.2.3.49153 > 10.1.3.4.8080: Flags [.], seq 67000:67536, ack 1, win 32768, options [TS val 14822 ecr 14771,eol], length 536: HTTP
15.486130 IP 10.1.2.3.49153 > 10.1.3.4.8080: Flags [.], seq 73432:73968, ack 1, win 32768, options [TS val 15434 ecr 15384,eol], length 536: HTTP
15.997759 unknown PPP protocol (0x0000) 
	0x0000:  0000 000a 0000 0000 0007 0800 4500 024c
	0x0010:  00c3 0000 3e06 0000 0a01 0203 0a01 0304
	0x0020:  c001 1f90 0001 6301 0000 0001 8010 8000
	0x0030:  0000 0000 080a 0000 3e48 0000 3e16 0000
	0x0040:  0000 0000 0000 0000 0000 0000 0000 0000
	0x0050:  0000 0000 0000 0000 0000 0000 0000 0000
	0x0060:  0000 0000 0000 0000 0000 0000 0000 0000
	0x0070:  0000 0000 0000 0000 0000 0000 0000 0000
	0x0080:  0000 0000 0000 0000 0000 0000 0000 0000
	0x0090:  0000 0000 0000 0000 0000 0000 0000 0000
	0x00a0:  0000 0000 0000 0000 0000 0000 0000 0000
	0x00b0:  0000 0000 0000 0000 0000 0000 0000 0000
	0x00c0:  0000 0000 0000 0000 0000 0000 0000 0000
	0x00d0:  0000 0000 0000 0000 0000 0000 0000 0000
	0x00e0:  0000 0000 0000 0000 0000 0000 0000 0000
	0x00f0:  0000 0000 0000 0000 0000 0000 0000 0000
	0x0100:  0000 0000 0000 0000 0000 0000 0000 0000
	0x0110:  0000 0000 0000 0000 0000 0000 0000 0000
	0x0120:  0000 0000 0000 0000 0000 0000 0000 0000
	0x0130:  0000 0000 0000 0000 0000 0000 0000 0000
	0x0140:  0000 0000 0000 0000 0000 0000 0000 0000
	0x0150:  0000 0000 0000 0000 0000 0000 0000 0000
	0x0160:  0000 0000 0000 0000 0000 0000 0000 0000
	0x0170:  0000 0000 0000 0000 0000 0000 0000 0000
	0x0180:  0000 0000 0000 0000 0000 0000 0000 0000
	0x0190:  0000 0000 0000 0000 0000 0000 0000 0000
	0x01a0:  0000 0000 0000 0000 0000 0000 0000 0000
	0x01b0:  0000 0000 0000 0000 0000 0000 0000 0000
	0x01c0:  0000 0000 0000 0000 0000 0000 0000 0000
	0x01d0:  0000 0000 0000 0000 0000 0000 0000 0000
	0x01e0:  0000 0000 0000 0000 0000 0000 0000 0000
	0x01f0:  0000 0000 0000 0000 0000 0000 0000 0000
	0x0200:  0000 0000 0000 0000 0000 0000 0000 0000
	0x0210:  0000 0000 0000 0000 0000 0000 0000 0000
	0x0220:  0000 0000 0000 0000 0000 0000 0000 0000
	0x0230:  0000 0000 0000 0000 0000 0000 0000 0000
	0x0240:  0000 0000 0000 0000 0000 0000 0000 0000
	0x0250:  0000 0000 0000 0000 0000 0000
16.301819 IP 10.1.2.3.49153 > 10.1.3.4.8080: Flags [.], seq 82008:82544, ack 1, win 32768, options [TS val 16250 ecr 16200,eol], length 536: HTTP
16.807729 IP 10.1.2.3.49153 > 10.1.3.4.8080: Flags [.], seq 84152:84688, ack 1, win 32768, options [TS val 16756 ecr 16706,eol], length 536: HTTP
17.623445 unknown PPP protocol (0x0000) 
	0x0000:  0000 000a 0000 0000 0007 0800 4500 024c
	0x0010:  00dd 0000 3e06 0000 0a01 0203 0a01 0304
	0x0020:  c001 1f90 0001 9329 0000 0001 8010 8000
	0x0030:  0000 0000 080a 0000 44a3 0000 4471 0000
	0x0040:  0000 0000 0000 0000 0000 0000 0000 0000
	0x0050:  0000 0000 0000 0000 0000 0000 0000 0000
	0x0060:  0000 0000 0000 0000 0000 0000 0000 0000
	0x0070:  0000 0000 0000 0000 0000 0000 0000 0000
	0x0080:  0000 0000 0000 0000 0000 0000 0000 0000
	0x0090:  0000 0000 0000 0000 0000 0000 0000 0000
	0x00a0:  0000 0000 0000 0000 0000 0000 0000 0000
	0x00b0:  0000 0000 0000 0000 0000 0000 0000 0000
	0x00c0:  0000 0000 0000 0000 0000 0000 0000 0000
	0x00d0:  0000 0000 0000 0000 0000 0000 0000 0000
	0x00e0:  0000 0000 0000 0000 0000 0000 0000 0000
	0x00f0:  0000 0000 0000 0000 0000 0000 0000 0000
	0x0100:  0000 0000 0000 0000 0000 0000 0000 0000
	0x0110:  0000 0000 0000 0000 0000 0000 0000 0000
	0x0120:  0000 0000 0000 0000 0000 0000 0000 0000
	0x0130:  0000 0000 0000 0000 0000 0000 0000 0000
	0x0140:  0000 0000 0000 0000 0000 0000 0000 0000
	0x0150:  0000 0000 0000 0000 0000 0000 0000 0000
	0x0160:  0000 0000 0000 0000 0000 0000 0000 0000
	0x0170:  0000 0000 0000 0000 0000 0000 0000 0000
	0x0180:  0000 0000 0000 0000 0000 0000 0000 0000
	0x0190:  0000 0000 0000 0000 0000 0000 0000 0000
	0x01a0:  0000 0000 0000 0000 0000 0000 0000 0000
	0x01b0:  0000 0000 0000 0000 0000 0000 0000 0000
	0x01c0:  0000 0000 0000 0000 0000 0000 0000 0000
	0x01d0:  0000 0000 0000 0000 0000 0000 0000 0000
	0x01e0:  0000 0000 0000 0000 0000 0000 0000 0000
	0x01f0:  0000 0000 0000 0000 0000 0000 0000 0000
	0x0200:  0000 0000 0000 0000 0000 0000 0000 0000
	0x0210:  0000 0000 0000 0000 0000 0000 0000 0000
	0x0220:  0000 0000 0000 0000 0000 0000 0000 0000
	0x0230:  0000 0000 0000 0000 0000 0000 0000 0000
	0x0240:  0000 0000 0000 0000 0000 0000 0000 0000
	0x0250:  0000 0000 0000 0000 0000 0000
17.724808 unknown PPP protocol (0x0000) 
	0x0000:  0000 000a 0000 0000 0007 0800 4500 024c
	0x0010:  00df 0000 3e06 0000 0a01 0203 0a01 0304
	0x0020:  c001 1f90 0001 9759 0000 0001 8010 8000
	0x0030:  0000 0000 080a 0000 4508 0000 44d6 0000
	0x0040:  0000 0000 0000 0000 0000 0000 0000 0000
	0x0050:  0000 0000 0000 0000 0000 0000 0000 0000
	0x0060:  0000 0000 0000 0000 0000 0000 0000 0000
	0x0070:  0000 0000 0000 0000 0000 0000 0000 0000
	0x0080:  0000 0000 0000 0000 0000 0000 0000 0000
	0x0090:  0000 0000 0000 0000 0000 0000 0000 0000
	0x00a0:  0000 0000 0000 0000 0000 0000 0000 0000
	0x00b0:  0000 0000 0000 0000 0000 0000 0000 0000
	0x00c0:  0000 0000 0000 0000 0000 0000 0000 0000
	0x00d0:  0000 0000 0000 0000 0000 0000 0000 0000
	0x00e0:  0000 0000 0000 0000 0000 0000 0000 0000
	0x00f0:  0000 0000 0000 0000 0000 0000 0000 0000
	0x0100:  0000 0000 0000 0000 0000 0000 0000 0000
	0x0110:  0000 0000 0000 0000 0000 0000 0000 0000
	0x0120:  0000 0000 0000 0000 0000 0000 0000 0000
	0x0130:  0000 0000 0000 0000 0000 0000 0000 0000
	0x0140:  0000 0000 0000 0000 0000 0000 0000 0000
	0x0150:  0000 0000 0000 0000 0000 0000 0000 0000
	0x0160:  0000 0000 0000 0000 0000 0000 0000 0000
	0x0170:  0000 0000 0000 0000 0000 0000 0000 0000
	0x0180:  0000 0000 0000 0000 0000 0000 0000 0000
	0x0190:  0000 0000 0000 0000 0000 0000 0000 0000
	0x01a0:  0000 0000 0000 0000 0000 0000 0000 0000
	0x01b0:  0000 0000 0000 0000 0000 0000 0000 0000
	0x01c0:  0000 0000 0000 0000 0000 0000 0000 0000
	0x01d0:  0000 0000 0000 0000 0000 0000 0000 0000
	0x01e0:  0000 0000 0000 0000 0000 0000 0000 0000
	0x01f0:  0000 0000 0000 0000 0000 0000 0000 0000
	0x0200:  0000 0000 0000 0000 0000 0000 0000 0000
	0x0210:  0000 0000 0000 0000 0000 0000 0000 0000
	0x0220:  0000 0000 0000 0000 0000 0000 0000 0000
	0x0230:  0000 0000 0000 0000 0000 0000 0000 0000
	0x0240:  0000 0000 0000 0000 0000 0000 0000 0000
	0x0250:  0000 0000 0000 0000 0000 0000
17.926630 unknown PPP protocol (0x0000) 
	0x0000:  0000 000a 0000 0000 0007 0800 4500 024c
	0x0010:  00e3 0000 3e06 0000 0a01 0203 0a01 0304
	0x0020:  c001 1f90 0001 9329 0000 0001 8010 8000
	0x0030:  0000 0000 080a 0000 45d3 0000 45a1 0000
	0x0040:  0000 0000 0000 0000 0000 0000 0000 0000
	0x0050:  0000 0000 0000 0000 0000 0000 0000 0000
	0x0060:  0000 0000 0000 0000 0000 0000 0000 0000
	0x0070:  0000 0000 0000 0000 0000 0000 0000 0000
	0x0080:  0000 0000 0000 0000 0000 0000 0000 0000
	0x0090:  0000 0000 0000 0000 0000 0000 0000 0000
	0x00a0:  0000 0000 0000 0000 0000 0000 0000 0000
	0x00b0:  0000 0000 0000 0000 0000 0000 0000 0000
	0x00c0:  0000 0000 0000 0000 0000 0000 0000 0000
	0x00d0:  0000 0000 0000 0000 0000 0000 0000 0000
	0x00e0:  0000 0000 0000 0000 0000 0000 0000 0000
	0x00f0:  0000 0000 0000 0000 0000 0000 0000 0000
	0x0100:  0000 0000 0000 0000 0000 0000 0000 0000
	0x0110:  0000 0000 0000 0000 0000 0000 0000 0000
	0x0120:  0000 0000 0000 0000 0000 0000 0000 0000
	0x0130:  0000 0000 0000 0000 0000 0000 0000 0000
	0x0140:  0000 0000 0000 0000 0000 0000 0000 0000
	0x0150:  0000 0000 0000 0000 0000 0000 0000 0000
	0x0160:  0000 0000 0000 0000 0000 0000 0000 0000
	0x0170:  0000 0000 0000 0000 0000 0000 0000 0000
	0x0180:  0000 0000 0000 0000 0000 0000 0000 0000
	0x0190:  0000 0000 0000 0000 0000 0000 0000 0000
	0x01a0:  0000 0000 0000 0000 0000 0000 0000 0000
	0x01b0:  0000 0000 0000 0000 0000 0000 0000 0000
	0x01c0:  0000 0000 0000 0000 0000 0000 0000 0000
	0x01d0:  0000 0000 0000 0000 0000 0000 0000 0000
	0x01e0:  0000 0000 0000 0000 0000 0000 0000 0000
	0x01f0:  0000 0000 0000 0000 0000 0000 0000 0000
	0x0200:  0000 0000 0000 0000 0000 0000 0000 0000
	0x0210:  0000 0000 0000 0000 0000 0000 0000 0000
	0x0220:  0000 0000 0000 0000 0000 0000 0000 0000
	0x0230:  0000 0000 0000 0000 0000 0000 0000 0000
	0x0240:  0000 0000 0000 0000 0000 0000 0000 0000
	0x0250:  0000 0000 0000 0000 0000 0000
18.723820 unknown PPP protocol (0x0000) 
	0x0000:  0000 000a 0000 0000 0007 0800 4500 024c
	0x0010:  00e5 0000 3e06 0000 0a01 0203 0a01 0304
	0x0020:  c001 1f90 0001 9329 0000 0001 8010 8000
	0x0030:  0000 0000 080a 0000 48f0 0000 4608 0000
	0x0040:  0000 0000 0000 0000 0000 0000 0000 0000
	0x0050:  0000 0000 0000 0000 0000 0000 0000 0000
	0x0060:  0000 0000 0000 0000 0000 0000 0000 0000
	0x0070:  0000 0000 0000 0000 0000 0000 0000 0000
	0x0080:  0000 0000 0000 0000 0000 0000 0000 0000
	0x0090:  0000 0000 0000 0000 0000 0000 0000 0000
	0x00a0:  0000 0000 0000 0000 0000 0000 0000 0000
	0x00b0:  0000 0000 0000 0000 0000 0000 0000 0000
	0x00c0:  0000 0000 0000 0000 0000 0000 0000 0000
	0x00d0:  0000 0000 0000 0000 0000 0000 0000 0000
	0x00e0:  0000 0000 0000 0000 0000 0000 0000 0000
	0x00f0:  0000 0000 0000 0000 0000 0000 0000 0000
	0x0100:  0000 0000 0000 0000 0000 0000 0000 0000
	0x0110:  0000 0000 0000 0000 0000 0000 0000 0000
	0x0120:  0000 0000 0000 0000 0000 0000 0000 0000
	0x0130:  0000 0000 0000 0000 0000 0000 0000 0000
	0x0140:  0000 0000 0000 0000 0000 0000 0000 0000
	0x0150:  0000 0000 0000 0000 0000 0000 0000 0000
	0x0160:  0000 0000 0000 0000 0000 0000 0000 0000
	0x0170:  0000 0000 0000 0000 0000 0000 0000 0000
	0x0180:  0000 0000 0000 0000 0000 0000 0000 0000
	0x0190:  0000 0000 0000 0000 0000 0000 0000 0000
	0x01a0:  0000 0000 0000 0000 0000 0000 0000 0000
	0x01b0:  0000 0000 0000 0000 0000 0000 0000 0000
	0x01c0:  0000 0000 0000 0000 0000 0000 0000 0000
	0x01d0:  0000 0000 0000 0000 0000 0000 0000 0000
	0x01e0:  0000 0000 0000 0000 0000 0000 0000 0000
	0x01f0:  0000 0000 0000 0000 0000 0000 0000 0000
	0x0200:  0000 0000 0000 0000 0000 0000 0000 0000
	0x0210:  0000 0000 0000 0000 0000 0000 0000 0000
	0x0220:  0000 0000 0000 0000 0000 0000 0000 0000
	0x0230:  0000 0000 0000 0000 0000 0000 0000 0000
	0x0240:  0000 0000 0000 0000 0000 0000 0000 0000
	0x0250:  0000 0000 0000 0000 0000 0000
20.723765 IP 10.1.2.3.49153 > 10.1.3.4.8080: Flags [.], seq 91656:92192, ack 1, win 32768, options [TS val 20672 ecr 17928,eol], length 536: HTTP
25.126489 IP 10.1.2.3.49153 > 10.1.3.4.8080: Flags [.], seq 95408:95944, ack 1, win 32768, options [TS val 25075 ecr 25025,eol], length 536: HTTP
25.228809 IP 10.1.2.3.49153 > 10.1.3.4.8080: Flags [.], seq 96480:97016, ack 1, win 32768, options [TS val 25177 ecr 25127,eol], length 536: HTTP
26.432421 IP 10.1.2.3.49153 > 10.1.3.4.8080: Flags [.], seq 98624:99160, ack 1, win 32768, options [TS val 26381 ecr 26331,eol], length 536: HTTP
26.434309 IP 10.1.2.3.49153 > 10.1.3.4.8080: Flags [.], seq 99696:100232, ack 1, win 32768, options [TS val 26381 ecr 26331,eol], length 536: HTTP
27.041635 IP 10.1.2.3.49153 > 10.1.3.4.8080: Flags [.], seq 101840:102376, ack 1, win 32768, options [TS val 26990 ecr 26940,eol], length 536: HTTP
28.263692 IP 10.1.2.3.49153 > 10.1.3.4.8080: Flags [.], seq 115776:116312, ack 1, win 32768, options [TS val 28212 ecr 28162,eol], length 536: HTTP
28.469276 IP 10.1.2.3.49153 > 10.1.3.4.8080: Flags [.], seq 120064:120600, ack 1, win 32768, options [TS val 28418 ecr 28367,eol], length 536: HTTP
29.176129 IP 10.1.2.3.49153 > 10.1.3.4.8080: Flags [.], seq 122744:123280, ack 1, win 32768, options [TS val 29124 ecr 29073,eol], length 536: HTTP
29.577923 IP 10.1.2.3.49153 > 10.1.3.4.8080: Flags [.], seq 123816:124352, ack 1, win 32768, options [TS val 29526 ecr 29476,eol], length 536: HTTP
30.476503 IP 10.1.2.3.49153 > 10.1.3.4.8080: Flags [.], seq 122744:123280, ack 1, win 32768, options [TS val 30425 ecr 29476,eol], length 536: HTTP
32.681116 IP 10.1.2.3.49153 > 10.1.3.4.8080: Flags [.], seq 125424:125960, ack 1, win 32768, options [TS val 32629 ecr 32578,eol], length 536: HTTP
33.185230 IP 10.1.2.3.49153 > 10.1.3.4.8080: Flags [.], seq 128104:128640, ack 1, win 32768, options [TS val 33134 ecr 33083,eol], length 536: HTTP
33.691195 unknown PPP protocol (0x0000) 
	0x0000:  0000 000a 0000 0000 0007 0800 4500 024c
	0x0010:  0136 0000 3e06 0000 0a01 0203 0a01 0304
	0x0020:  c001 1f90 0002 29e9 0000 0001 8010 8000
	0x0030:  0000 0000 080a 0000 8368 0000 8335 0000
	0x0040:  0000 0000 0000 0000 0000 0000 0000 0000
	0x0050:  0000 0000 0000 0000 0000 0000 0000 0000
	0x0060:  0000 0000 0000 0000 0000 0000 0000 0000
	0x0070:  0000 0000 0000 0000 0000 0000 0000 0000
	0x0080:  0000 0000 0000 0000 0000 0000 0000 0000
	0x0090:  0000 0000 0000 0000 0000 0000 0000 0000
	0x00a0:  0000 0000 0000 0000 0000 0000 0000 0000
	0x00b0:  0000 0000 0000 0000 0000 0000 0000 0000
	0x00c0:  0000 0000 0000 0000 0000 0000 0000 0000
	0x00d0:  0000 0000 0000 0000 0000 0000 0000 0000
	0x00e0:  0000 0000 0000 0000 0000 0000 0000 0000
	0x00f0:  0000 0000 0000 0000 0000 0000 0000 0000
	0x0100:  0000 0000 0000 0000 0000 0000 0000 0000
	0x0110:  0000 0000 0000 0000 0000 0000 0000 0000
	0x0120:  0000 0000 0000 0000 0000 0000 0000 0000
	0x0130:  0000 0000 0000 0000 0000 0000 0000 0000
	0x0140:  0000 0000 0000 0000 0000 0000 0000 0000
	0x0150:  0000 0000 0000 0000 0000 0000 0000 0000
	0x0160:  0000 0000 0000 0000 0000 0000 0000 0000
	0x0170:  0000 0000 0000 0000 0000 0000 0000 0000
	0x0180:  0000 0000 0000 0000 0000 0000 0000 0000
	0x0190:  0000 0000 0000 0000 0000 0000 0000 0000
	0x01a0:  0000 0000 0000 0000 0000 0000 0000 0000
	0x01b0:  0000 0000 0000 0000 0000 0000 0000 0000
	0x01c0:  0000 0000 0000 0000 0000 0000 0000 0000
	0x01d0:  0000 0000 0000 0000 0000 0000 0000 0000
	0x01e0:  0000 0000 0000 0000 0000 0000 0000 0000
	0x01f0:  0000 0000 0000 0000 0000 0000 0000 0000
	0x0200:  0000 0000 0000 0000 0000 0000 0000 0000
	0x0210:  0000 0000 0000 0000 0000 0000 0000 0000
	0x0220:  0000 0000 0000 0000 0000 0000 0000 0000
	0x0230:  0000 0000 0000 0000 0000 0000 0000 0000
	0x0240:  0000 0000 0000 0000 0000 0000 0000 0000
	0x0250:  0000 0000 0000 0000 0000 0000
35.015558 unknown PPP protocol (0x0000) 
	0x0000:  0000 000a 0000 0000 0007 0800 4500 024c
	0x0010:  0156 0000 3e06 0000 0a01 0203 0a01 0304
	0x0020:  c001 1f90 0002 6ad1 0000 0001 8010 8000
	0x0030:  0000 0000 080a 0000 8894 0000 8862 0000
	0x0040:  0000 0000 0000 0000 0000 0000 0000 0000
	0x0050:  0000 0000 0000 0000 0000 0000 0000 0000
	0x0060:  0000 0000 0000 0000 0000 0000 0000 0000
	0x0070:  0000 0000 0000 0000 0000 0000 0000 0000
	0x0080:  0000 0000 0000 0000 0000 0000 0000 0000
	0x0090:  0000 0000 0000 0000 0000 0000 0000 0000
	0x00a0:  0000 0000 0000 0000 0000 0000 0000 0000
	0x00b0:  0000 0000 0000 0000 0000 0000 0000 0000
	0x00c0:  0000 0000 0000 0000 0000 0000 0000 0000
	0x00d0:  0000 0000 0000 0000 0000 0000 0000 0000
	0x00e0:  0000 0000 0000 0000 0000 0000 0000 0000
	0x00f0:  0000 0000 0000 0000 0000 0000 0000 0000
	0x0100:  0000 0000 0000 0000 0000 0000 0000 0000
	0x0110:  0000 0000 0000 0000 0000 0000 0000 0000
	0x0120:  0000 0000 0000 0000 0000 0000 0000 0000
	0x0130:  0000 0000 0000 0000 0000 0000 0000 0000
	0x0140:  0000 0000 0000 0000 0000 0000 0000 0000
	0x0150:  0000 0000 0000 0000 0000 0000 0000 0000
	0x0160:  0000 0000 0000 0000 0000 0000 0000 0000
	0x0170:  0000 0000 0000 0000 0000 0000 0000 0000
	0x0180:  0000 0000 0000 0000 0000 0000 0000 0000
	0x0190:  0000 0000 0000 0000 0000 0000 0000 0000
	0x01a0:  0000 0000 0000 0000 0000 0000 0000 0000
	0x01b0:  0000 0000 0000 0000 0000 0000 0000 0000
	0x01c0:  0000 0000 0000 0000 0000 0000 0000 0000
	0x01d0:  0000 0000 0000 0000 0000 0000 0000 0000
	0x01e0:  0000 0000 0000 0000 0000 0000 0000 0000
	0x01f0:  0000 0000 0000 0000 0000 0000 0000 0000
	0x0200:  0000 0000 0000 0000 0000 0000 0000 0000
	0x0210:  0000 0000 0000 0000 0000 0000 0000 0000
	0x0220:  0000 0000 0000 0000 0000 0000 0000 0000
	0x0230:  0000 0000 0000 0000 0000 0000 0000 0000
	0x0240:  0000 0000 0000 0000 0000 0000 0000 0000
	0x0250:  0000 0000 0000 0000 0000 0000
36.038596 IP 10.1.2.3.49153 > 10.1.3.4.8080: Flags [.], seq 163480:164016, ack 1, win 32768, options [TS val 35985 ecr 35935,eol], length 536: HTTP
36.545423 IP 10.1.2.3.49153 > 10.1.3.4.8080: Flags [.], seq 169376:169912, ack 1, win 32768, options [TS val 36494 ecr 36444,eol], length 536: HTTP
36.546367 IP 10.1.2.3.49153 > 10.1.3.4.8080: Flags [.], seq 169912:170448, ack 1, win 32768, options [TS val 36494 ecr 36444,eol], length 536: HTTP
37.054233 unknown PPP protocol (0x0000) 
	0x0000:  0000 000a 0000 0000 0007 0800 4500 024c
	0x0010:  018a 0000 3e06 0000 0a01 0203 0a01 0304
	0x0020:  c001 1f90 0002 cf51 0000 0001 8010 8000
	0x0030:  0000 0000 080a 0000 908b 0000 9058 0000
	0x0040:  0000 0000 0000 0000 0000 0000 0000 0000
	0x0050:  0000 0000 0000 0000 0000 0000 0000 0000
	0x0060:  0000 0000 0000 0000 0000 0000 0000 0000
	0x0070:  0000 0000 0000 0000 0000 0000 0000 0000
	0x0080:  0000 0000 0000 0000 0000 0000 0000 0000
	0x0090:  0000 0000 0000 0000 0000 0000 0000 0000
	0x00a0:  0000 0000 0000 0000 0000 0000 0000 0000
	0x00b0:  0000 0000 0000 0000 0000 0000 0000 0000
	0x00c0:  0000 0000 0000 0000 0000 0000 0000 0000
	0x00d0:  0000 0000 0000 0000 0000 0000 0000 0000
	0x00e0:  0000 0000 0000 0000 0000 0000 0000 0000
	0x00f0:  0000 0000 0000 0000 0000 0000 0000 0000
	0x0100:  0000 0000 0000 0000 0000 0000 0000 0000
	0x0110:  0000 0000 0000 0000 0000 0000 0000 0000
	0x0120:  0000 0000 0000 0000 0000 0000 0000 0000
	0x0130:  0000 0000 0000 0000 0000 0000 0000 0000
	0x0140:  0000 0000 0000 0000 0000 0000 0000 0000
	0x0150:  0000 0000 0000 0000 0000 0000 0000 0000
	0x0160:  0000 0000 0000 0000 0000 0000 0000 0000
	0x0170:  0000 0000 0000 0000 0000 0000 0000 0000
	0x0180:  0000 0000 0000 0000 0000 0000 0000 0000
	0x0190:  0000 0000 0000 0000 0000 0000 0000 0000
	0x01a0:  0000 0000 0000 0000 0000 0000 0000 0000
	0x01b0:  0000 0000 0000 0000 0000 0000 0000 0000
	0x01c0:  0000 0000 0000 0000 0000 0000 0000 0000
	0x01d0:  0000 0000 0000 0000 0000 0000 0000 0000
	0x01e0:  0000 0000 0000 0000 0000 0000 0000 0000
	0x01f0:  0000 0000 0000 0000 0000 0000 0000 0000
	0x0200:  0000 0000 0000 0000 0000 0000 0000 0000
	0x0210:  0000 0000 0000 0000 0000 0000 0000 0000
	0x0220:  0000 0000 0000 0000 0000 0000 0000 0000
	0x0230:  0000 0000 0000 0000 0000 0000 0000 0000
	0x0240:  0000 0000 0000 0000 0000 0000 0000 0000
	0x0250:  0000 0000 0000 0000 0000 0000
37.866225 unknown PPP protocol (0x0000) 
	0x0000:  0000 000a 0000 0000 0007 0800 4500 024c
	0x0010:  0194 0000 3e06 0000 0a01 0203 0a01 0304
	0x0020:  c001 1f90 0002 e229 0000 0001 8010 8000
	0x0030:  0000 0000 080a 0000 93b6 0000 9383 0000
	0x0040:  0000 0000 0000 0000 0000 0000 0000 0000
	0x0050:  0000 0000 0000 0000 0000 0000 0000 0000
	0x0060:  0000 0000 0000 0000 0000 0000 0000 0000
	0x0070:  0000 0000 0000 0000 0000 0000 0000 0000
	0x0080:  0000 0000 0000 0000 0000 0000 0000 0000
	0x0090:  0000 0000 0000 0000 0000 0000 0000 0000
	0x00a0:  0000 0000 0000 0000 0000 0000 0000 0000
	0x00b0:  0000 0000 0000 0000 0000 0000 0000 0000
	0x00c0:  0000 0000 0000 0000 0000 0000 0000 0000
	0x00d0:  0000 0000 0000 0000 0000 0000 0000 0000
	0x00e0:  0000 0000 0000 0000 0000 0000 0000 0000
	0x00f0:  0000 0000 0000 0000 0000 0000 0000 0000
	0x0100:  0000 0000 0000 0000 0000 0000 0000 0000
	0x0110:  0000 0000 0000 0000 0000 0000 0000 0000
	0x0120:  0000 0000 0000 0000 0000 0000 0000 0000
	0x0130:  0000 0000 0000 0000 0000 0000 0000 0000
	0x0140:  0000 0000 0000 0000 0000 0000 0000 0000
	0x0150:  0000 0000 0000 0000 0000 0000 0000 0000
	0x0160:  0000 0000 0000 0000 0000 0000 0000 0000
	0x0170:  0000 0000 0000 0000 0000 0000 0000 0000
	0x0180:  0000 0000 0000 0000 0000 0000 0000 0000
	0x0190:  0000 0000 0000 0000 0000 0000 0000 0000
	0x01a0:  0000 0000 0000 0000 0000 0000 0000 0000
	0x01b0:  0000 0000 0000 0000 0000 0000 0000 0000
	0x01c0:  0000 0000 0000 0000 0000 0000 0000 0000
	0x01d0:  0000 0000 0000 0000 0000 0000 0000 0000
	0x01e0:  0000 0000 0000 0000 0000 0000 0000 0000
	0x01f0:  0000 0000 0000 0000 0000 0000 0000 0000
	0x0200:  0000 0000 0000 0000 0000 0000 0000 0000
	0x0210:  0000 0000 0000 0000 0000 0000 0000 0000
	0x0220:  0000 0000 0000 0000 0000 0000 0000 0000
	0x0230:  0000 0000 0000 0000 0000 0000 0000 0000
	0x0240:  0000 0000 0000 0000 0000 0000 0000 0000
	0x0250:  0000 0000 0000 0000 0000 0000
38.172186 IP 10.1.2.3.49153 > 10.1.3.4.8080: Flags [.], seq 180632:181168, ack 1, win 32768, options [TS val 38121 ecr 38070,eol], length 536: HTTP
38.675356 IP 10.1.2.3.49153 > 10.1.3.4.8080: Flags [.], seq 182240:182776, ack 1, win 32768, options [TS val 38624 ecr 38574,eol], length 536: HTTP
39.778536 IP 10.1.2.3.49153 > 10.1.3.4.8080: Flags [.], seq 184384:184920, ack 1, win 32768, options [TS val 39727 ecr 39677,eol], length 536: HTTP
39.779480 IP 10.1.2.3.49153 > 10.1.3.4.8080: Flags [.], seq 184920:185456, ack 1, win 32768, options [TS val 39727 ecr 39677,eol], length 536: HTTP
40.795992 IP 10.1.2.3.49153 > 10.1.3.4.8080: Flags [.], seq 192960:193496, ack 1, win 32768, options [TS val 40744 ecr 40694,eol], length 536: HTTP
41.001577 IP 10.1.2.3.49153 > 10.1.3.4.8080: Flags [.], seq 196176:196712, ack 1, win 32768, options [TS val 40950 ecr 40900,eol], length 536: HTTP
41.101051 IP 10.1.2.3.49153 > 10.1.3.4.8080: Flags [.], seq 196712:197248, ack 1, win 32768, options [TS val 41049 ecr 40999,eol], length 536: HTTP
42.607926 IP 10.1.2.3.49153 > 10.1.3.4.8080: Flags [.], seq 199392:199928, ack 1, win 32768, options [TS val 42555 ecr 42505,eol], length 536: HTTP
43.620742 IP 10.1.2.3.49153 > 10.1.3.4.8080: Flags [.], seq 207432:207968, ack 1, win 32768, options [TS val 43568 ecr 43518,eol], length 536: HTTP
43.924911 unknown PPP protocol (0x0000) 
	0x0000:  0000 000a 0000 0000 0007 0800 4500 024c
	0x0010:  01dc 0000 3e06 0000 0a01 0203 0a01 0304
	0x0020:  c001 1f90 0003 63f9 0000 0001 8010 8000
	0x0030:  0000 0000 080a 0000 ab61 0000 ab2f 0000
	0x0040:  0000 0000 0000 0000 0000 0000 0000 0000
	0x0050:  0000 0000 0000 0000 0000 0000 0000 0000
	0x0060:  0000 0000 0000 0000 0000 0000 0000 0000
	0x0070:  0000 0000 0000 0000 0000 0000 0000 0000
	0x0080:  0000 0000 0000 0000 0000 0000 0000 0000
	0x0090:  0000 0000 0000 0000 0000 0000 0000 0000
	0x00a0:  0000 0000 0000 0000 0000 0000 0000 0000
	0x00b0:  0000 0000 0000 0000 0000 0000 0000 0000
	0x00c0:  0000 0000 0000 0000 0000 0000 0000 0000
	0x00d0:  0000 0000 0000 0000 0000 0000 0000 0000
	0x00e0:  0000 0000 0000 0000 0000 0000 0000 0000
	0x00f0:  0000 0000 0000 0000 0000 0000 0000 0000
	0x0100:  0000 0000 0000 0000 0000 0000 0000 0000
	0x0110:  0000 0000 0000 0000 0000 0000 0000 0000
	0x0120:  0000 0000 0000 0000 0000 0000 0000 0000
	0x0130:  0000 0000 0000 0000 0000 0000 0000 0000
	0x0140:  0000 0000 0000 0000 0000 0000 0000 0000
	0x0150:  0000 0000 0000 0000 0000 0000 0000 0000
	0x0160:  0000 0000 0000 0000 0000 0000 0000 0000
	0x0170:  0000 0000 0000 0000 0000 0000 0000 0000
	0x0180:  0000 0000 0000 0000 0000 0000 0000 0000
	0x0190:  0000 0000 0000 0000 0000 0000 0000 0000
	0x01a0:  0000 0000 0000 0000 0000 0000 0000 0000
	0x01b0:  0000 0000 0000 0000 0000 0000 0000 0000
	0x01c0:  0000 0000 0000 0000 0000 0000 0000 0000
	0x01d0:  0000 0000 0000 0000 0000 0000 0000 0000
	0x01e0:  0000 0000 0000 0000 0000 0000 0000 0000
	0x01f0:  0000 0000 0000 0000 0000 0000 0000 0000
	0x0200:  0000 0000 0000 0000 0000 0000 0000 0000
	0x0210:  0000 0000 0000 0000 0000 0000 0000 0000
	0x0220:  0000 0000 0000 0000 0000 0000 0000 0000
	0x0230:  0000 0000 0000 0000 0000 0000 0000 0000
	0x0240:  0000 0000 0000 0000 0000 0000 0000 0000
	0x0250:  0000 0000 0000 0000 0000 0000
44.840937 IP 10.1.2.3.49153 > 10.1.3.4.8080: Flags [.], seq 218688:219224, ack 1, win 32768, options [TS val 44789 ecr 44739,eol], length 536: HTTP
45.046521 IP 10.1.2.3.49153 > 10.1.3.4.8080: Flags [.], seq 221904:222440, ack 1, win 32768, options [TS val 44995 ecr 44945,eol], length 536: HTTP
46.369940 IP 10.1.2.3.49153 > 10.1.3.4.8080: Flags [.], seq 237448:237984, ack 1, win 32768, options [TS val 46317 ecr 46267,eol], length 536: HTTP
46.370884 IP 10.1.2.3.49153 > 10.1.3.4.8080: Flags [.], seq 237984:238520, ack 1, win 32768, options [TS val 46317 ecr 46267,eol], length 536: HTTP
46.571735 IP 10.1.2.3.49153 > 10.1.3.4.8080: Flags [.], seq 240128:240664, ack 1, win 32768, options [TS val 46519 ecr 46469,eol], length 536: HTTP
47.179992 IP 10.1.2.3.49153 > 10.1.3.4.8080: Flags [.], seq 242808:243344, ack 1, win 32768, options [TS val 47127 ecr 47077,eol], length 536: HTTP
47.784538 IP 10.1.2.3.49153 > 10.1.3.4.8080: Flags [.], seq 242808:243344, ack 1, win 32768, options [TS val 47733 ecr 47683,eol], length 536: HTTP
48.581728 IP 10.1.2.3.49153 > 10.1.3.4.8080: Flags [.], seq 244952:245488, ack 1, win 32768, options [TS val 48530 ecr 48480,eol], length 536: HTTP
50.492272 IP 10.1.2.3.49153 > 10.1.3.4.8080: Flags [.], seq 249776:250312, ack 1, win 32768, options [TS val 50440 ecr 50390,eol], length 536: HTTP
51.003846 IP 10.1.2.3.49153 > 10.1.3.4.8080: Flags [.], seq 255672:256208, ack 1, win 32768, options [TS val 50950 ecr 50900,eol], length 536: HTTP
51.715299 IP 10.1.2.3.49153 > 10.1.3.4.8080: Flags [.], seq 262640:263176, ack 1, win 32768, options [TS val 51663 ecr 51613,eol], length 536: HTTP
52.937398 unknown PPP protocol (0x0000) 
	0x0000:  0000 000a 0000 0000 0007 0800 4500 024c
	0x0010:  0267 0000 3e06 0000 0a01 0203 0a01 0304
	0x0020:  c001 1f90 0004 6de1 0000 0001 8010 8000
	0x0030:  0000 0000 080a 0000 ce95 0000 ce63 0000
	0x0040:  0000 0000 0000 0000 0000 0000 0000 0000
	0x0050:  0000 0000 0000 0000 0000 0000 0000 0000
	0x0060:  0000 0000 0000 0000 0000 0000 0000 0000
	0x0070:  0000 0000 0000 0000 0000 0000 0000 0000
	0x0080:  0000 0000 0000 0000 0000 0000 0000 0000
	0x0090:  0000 0000 0000 0000 0000 0000 0000 0000
	0x00a0:  0000 0000 0000 0000 0000 0000 0000 0000
	0x00b0:  0000 0000 0000 0000 0000 0000 0000 0000
	0x00c0:  0000 0000 0000 0000 0000 0000 0000 0000
	0x00d0:  0000 0000 0000 0000 0000 0000 0000 0000
	0x00e0:  0000 0000 0000 0000 0000 0000 0000 0000
	0x00f0:  0000 0000 0000 0000 0000 0000 0000 0000
	0x0100:  0000 0000 0000 0000 0000 0000 0000 0000
	0x0110:  0000 0000 0000 0000 0000 0000 0000 0000
	0x0120:  0000 0000 0000 0000 0000 0000 0000 0000
	0x0130:  0000 0000 0000 0000 0000 0000 0000 0000
	0x0140:  0000 0000 0000 0000 0000 0000 0000 0000
	0x0150:  0000 0000 0000 0000 0000 0000 0000 0000
	0x0160:  0000 0000 0000 0000 0000 0000 0000 0000
	0x0170:  0000 0000 0000 0000 0000 0000 0000 0000
	0x0180:  0000 0000 0000 0000 0000 0000 0000 0000
	0x0190:  0000 0000 0000 0000 0000 0000 0000 0000
	0x01a0:  0000 0000 0000 0000 0000 0000 0000 0000
	0x01b0:  0000 0000 0000 0000 0000 0000 0000 0000
	0x01c0:  0000 0000 0000 0000 0000 0000 0000 0000
	0x01d0:  0000 0000 0000 0000 0000 0000 0000 0000
	0x01e0:  0000 0000 0000 0000 0000 0000 0000 0000
	0x01f0:  0000 0000 0000 0000 0000 0000 0000 0000
	0x0200:  0000 0000 0000 0000 0000 0000 0000 0000
	0x0210:  0000 0000 0000 0000 0000 0000 0000 0000
	0x0220:  0000 0000 0000 0000 0000 0000 0000 0000
	0x0230:  0000 0000 0000 0000 0000 0000 0000 0000
	0x0240:  0000 0000 0000 0000 0000 0000 0000 0000
	0x0250:  0000 0000 0000 0000 0000 0000
53.139137 IP 10.1.2.3.49153 > 10.1.3.4.8080: Flags [.], seq 278720:279256, ack 1, win 32768, options [TS val 53087 ecr 53037,eol], length 536: HTTP
54.036773 IP 10.1.2.3.49153 > 10.1.3.4.8080: Flags [.], seq 278720:279256, ack 1, win 32768, options [TS val 53985 ecr 53847,eol], length 536: HTTP
56.644111 IP 10.1.2.3.49153 > 10.1.3.4.8080: Flags [.], seq 289440:289976, ack 1, win 32768, options [TS val 56592 ecr 56542,eol], length 536: HTTP
56.746431 IP 10.1.2.3.49153 > 10.1.3.4.8080: Flags [.], seq 290512:291048, ack 1, win 32768, options [TS val 56695 ecr 56645,eol], length 536: HTTP
58.256963 IP 10.1.2.3.49153 > 10.1.3.4.8080: Flags [.], seq 297480:298016, ack 1, win 32768, options [TS val 58203 ecr 58153,eol], length 536: HTTP
58.357382 IP 10.1.2.3.49153 > 10.1.3.4.8080: Flags [.], seq 298552:299088, ack 1, win 32768, options [TS val 58305 ecr 58255,eol], length 536: HTTP
58.559259 unknown PPP protocol (0x0000) 
	0x0000:  0000 000a 0000 0000 0007 0800 4500 024c
	0x0010:  0294 0000 3e06 0000 0a01 0203 0a01 0304
	0x0020:  c001 1f90 0004 c1a1 0000 0001 8010 8000
	0x0030:  0000 0000 080a 0000 e48c 0000 e459 0000
	0x0040:  0000 0000 0000 0000 0000 0000 0000 0000
	0x0050:  0000 0000 0000 0000 0000 0000 0000 0000
	0x0060:  0000 0000 0000 0000 0000 0000 0000 0000
	0x0070:  0000 0000 0000 0000 0000 0000 0000 0000
	0x0080:  0000 0000 0000 0000 0000 0000 0000 0000
	0x0090:  0000 0000 0000 0000 0000 0000 0000 0000
	0x00a0:  0000 0000 0000 0000 0000 0000 0000 0000
	0x00b0:  0000 0000 0000 0000 0000 0000 0000 0000
	0x00c0:  0000 0000 0000 0000 0000 0000 0000 0000
	0x00d0:  0000 0000 0000 0000 0000 0000 0000 0000
	0x00e0:  0000 0000 0000 0000 0000 0000 0000 0000
	0x00f0:  0000 0000 0000 0000 0000 0000 0000 0000
	0x0100:  0000 0000 0000 0000 0000 0000 0000 0000
	0x0110:  0000 0000 0000 0000 0000 0000 0000 0000
	0x0120:  0000 0000 0000 0000 0000 0000 0000 0000
	0x0130:  0000 0000 0000 0000 0000 0000 0000 0000
	0x0140:  0000 0000 0000 0000 0000 0000 0000 0000
	0x0150:  0000 0000 0000 0000 0000 0000 0000 0000
	0x0160:  0000 0000 0000 0000 0000 0000 0000 0000
	0x0170:  0000 0000 0000 0000 0000 0000 0000 0000
	0x0180:  0000 0000 0000 0000 0000 0000 0000 0000
	0x0190:  0000 0000 0000 0000 0000 0000 0000 0000
	0x01a0:  0000 0000 0000 0000 0000 0000 0000 0000
	0x01b0:  0000 0000 0000 0000 0000 0000 0000 0000
	0x01c0:  0000 0000 0000 0000 0000 0000 0000 0000
	0x01d0:  0000 0000 0000 0000 0000 0000 0000 0000
	0x01e0:  0000 0000 0000 0000 0000 0000 0000 0000
	0x01f0:  0000 0000 0000 0000 0000 0000 0000 0000
	0x0200:  0000 0000 0000 0000 0000 0000 0000 0000
	0x0210:  0000 0000 0000 0000 0000 0000 0000 0000
	0x0220:  0000 0000 0000 0000 0000 0000 0000 0000
	0x0230:  0000 0000 0000 0000 0000 0000 0000 0000
	0x0240:  0000 0000 0000 0000 0000 0000 0000 0000
	0x0250:  0000 0000 0000 0000 0000 0000
58.965666 IP 10.1.2.3.49153 > 10.1.3.4.8080: Flags [.], seq 301768:302304, ack 1, win 32768, options [TS val 58914 ecr 58864,eol], length 536: HTTP
60.373906 unknown PPP protocol (0x0000) 
	0x0000:  0000 000a 0000 0000 0007 0800 4500 024c
	0x0010:  02a9 0000 3e06 0000 0a01 0203 0a01 0304
	0x0020:  c001 1f90 0004 e539 0000 0001 8010 8000
	0x0030:  0000 0000 080a 0000 eba2 0000 eb70 0000
	0x0040:  0000 0000 0000 0000 0000 0000 0000 0000
	0x0050:  0000 0000 0000 0000 0000 0000 0000 0000
	0x0060:  0000 0000 0000 0000 0000 0000 0000 0000
	0x0070:  0000 0000 0000 0000 0000 0000 0000 0000
	0x0080:  0000 0000 0000 0000 0000 0000 0000 0000
	0x0090:  0000 0000 0000 0000 0000 0000 0000 0000
	0x00a0:  0000 0000 0000 0000 0000 0000 0000 0000
	0x00b0:  0000 0000 0000 0000 0000 0000 0000 0000
	0x00c0:  0000 0000 0000 0000 0000 0000 0000 0000
	0x00d0:  0000 0000 0000 0000 0000 0000 0000 0000
	0x00e0:  0000 0000 0000 0000 0000 0000 0000 0000
	0x00f0:  0000 0000 0000 0000 0000 0000 0000 0000
	0x0100:  0000 0000 0000 0000 0000 0000 0000 0000
	0x0110:  0000 0000 0000 0000 0000 0000 0000 0000
	0x0120:  0000 0000 0000 0000 0000 0000 0000 0000
	0x0130:  0000 0000 0000 0000 0000 0000 0000 0000
	0x0140:  0000 0000 0000 0000 0000 0000 0000 0000
	0x0150:  0000 0000 0000 0000 0000 0000 0000 0000
	0x0160:  0000 0000 0000 0000 0000 0000 0000 0000
	0x0170:  0000 0000 0000 0000 0000 0000 0000 0000
	0x0180:  0000 0000 0000 0000 0000 0000 0000 0000
	0x0190:  0000 0000 0000 0000 0000 0000 0000 0000
	0x01a0:  0000 0000 0000 0000 0000 0000 0000 0000
	0x01b0:  0000 0000 0000 0000 0000 0000 0000 0000
	0x01c0:  0000 0000 0000 0000 0000 0000 0000 0000
	0x01d0:  0000 0000 0000 0000 0000 0000 0000 0000
	0x01e0:  0000 0000 0000 0000 0000 0000 0000 0000
	0x01f0:  0000 0000 0000 0000 0000 0000 0000 0000
	0x0200:  0000 0000 0000 0000 0000 0000 0000 0000
	0x0210:  0000 0000 0000 0000 0000 0000 0000 0000
	0x0220:  0000 0000 0000 0000 0000 0000 0000 0000
	0x0230:  0000 0000 0000 0000 0000 0000 0000 0000
	0x0240:  0000 0000 0000 0000 0000 0000 0000 0000
	0x0250:  0000 0000 0000 0000 0000 0000
60.478059 IP 10.1.2.3.49153 > 10.1.3.4.8080: Flags [.], seq 309272:309808, ack 1, win 32768, options [TS val 60426 ecr 60376,eol], length 536: HTTP
60.578491 IP 10.1.2.3.49153 > 10.1.3.4.8080: Flags [.], seq 312488:313024, ack 1, win 32768, options [TS val 60527 ecr 60477,eol], length 536: HTTP
61.681671 IP 10.1.2.3.49153 > 10.1.3.4.8080: Flags [.], seq 314632:315168, ack 1, win 32768, options [TS val 61630 ecr 61580,eol], length 536: HTTP
62.192287 IP 10.1.2.3.49153 > 10.1.3.4.8080: Flags [.], seq 320528:321064, ack 1, win 32768, options [TS val 62139 ecr 62089,eol], length 536: HTTP
63.105523 IP 10.1.2.3.49153 > 10.1.3.4.8080: Flags [.], seq 329104:329640, ack 1, win 32768, options [TS val 63054 ecr 63004,eol], length 536: HTTP
63.208787 IP 10.1.2.3.49153 > 10.1.3.4.8080: Flags [.], seq 331248:331784, ack 1, win 32768, options [TS val 63156 ecr 63106,eol], length 536: HTTP
63.209731 IP 10.1.2.3.49153 > 10.1.3.4.8080: Flags [.], seq 331784:332320, ack 1, win 32768, options [TS val 63157 ecr 63107,eol], length 536: HTTP
64.613277 IP 10.1.2.3.49153 > 10.1.3.4.8080: Flags [.], seq 333392:333928, ack 1, win 32768, options [TS val 64562 ecr 64511,eol], length 536: HTTP
64.915596 IP 10.1.2.3.49153 > 10.1.3.4.8080: Flags [.], seq 334464:335000, ack 1, win 32768, options [TS val 64864 ecr 64814,eol], length 536: HTTP
65.916482 IP 10.1.2.3.49153 > 10.1.3.4.8080: Flags [.], seq 335000:335536, ack 1, win 32768, options [TS val 65864 ecr 65814,eol], length 536: HTTP
66.725642 IP 10.1.2.3.49153 > 10.1.3.4.8080: Flags [.], seq 338752:339288, ack 1, win 32768, options [TS val 66673 ecr 66623,eol], length 536: HTTP
68.144853 IP 10.1.2.3.49153 > 10.1.3.4.8080: Flags [.], seq 353224:353760, ack 1, win 32768, options [TS val 68093 ecr 68043,eol], length 536: HTTP
68.452744 IP 10.1.2.3.49153 > 10.1.3.4.8080: Flags [.], seq 358584:359120, ack 1, win 32768, options [TS val 68400 ecr 68350,eol], length 536: HTTP
69.261890 IP 10.1.2.3.49153 > 10.1.3.4.8080: Flags [.], seq 363944:364480, ack 1, win 32768, options [TS val 69209 ecr 69159,eol], length 536: HTTP
69.262889 unknown PPP protocol (0x0000) 
	0x0000:  0000 000a 0000 0000 0007 0800 4500 024c
	0x0010:  031e 0000 3e06 0000 0a01 0203 0a01 0304
	0x0020:  c001 1f90 0005 bce1 0000 0001 8010 8000
	0x0030:  0000 0000 080a 0001 0e59 0001 0e27 0000
	0x0040:  0000 0000 0000 0000 0000 0000 0000 0000
	0x0050:  0000 0000 0000 0000 0000 0000 0000 0000
	0x0060:  0000 0000 0000 0000 0000 0000 0000 0000
	0x0070:  0000 0000 0000 0000 0000 0000 0000 0000
	0x0080:  0000 0000 0000 0000 0000 0000 0000 0000
	0x0090:  0000 0000 0000 0000 0000 0000 0000 0000
	0x00a0:  0000 0000 0000 0000 0000 0000 0000 0000
	0x00b0:  0000 0000 0000 0000 0000 0000 0000 0000
	0x00c0:  0000 0000 0000 0000 0000 0000 0000 0000
	0x00d0:  0000 0000 0000 0000 0000 0000 0000 0000
	0x00e0:  0000 0000 0000 0000 0000 0000 0000 0000
	0x00f0:  0000 0000 0000 0000 0000 0000 0000 0000
	0x0100:  0000 0000 0000 0000 0000 0000 0000 0000
	0x0110:  0000 0000 0000 0000 0000 0000 0000 0000
	0x0120:  0000 0000 0000 0000 0000 0000 0000 0000
	0x0130:  0000 0000 0000 0000 0000 0000 0000 0000
	0x0140:  0000 0000 0000 0000 0000 0000 0000 0000
	0x0150:  0000 0000 0000 0000 0000 0000 0000 0000
	0x0160:  0000 0000 0000 0000 0000 0000 0000 0000
	0x0170:  0000 0000 0000 0000 0000 0000 0000 0000
	0x0180:  0000 0000 0000 0000 0000 0000 0000 0000
	0x0190:  0000 0000 0000 0000 0000 0000 0000 0000
	0x01a0:  0000 0000 0000 0000 0000 0000 0000 0000
	0x01b0:  0000 0000 0000 0000 0000 0000 0000 0000
	0x01c0:  0000 0000 0000 0000 0000 0000 0000 0000
	0x01d0:  0000 0000 0000 0000 0000 0000 0000 0000
	0x01e0:  0000 0000 0000 0000 0000 0000 0000 0000
	0x01f0:  0000 0000 0000 0000 0000 0000 0000 0000
	0x0200:  0000 0000 0000 0000 0000 0000 0000 0000
	0x0210:  0000 0000 0000 0000 0000 0000 0000 0000
	0x0220:  0000 0000 0000 0000 0000 0000 0000 0000
	0x0230:  0000 0000 0000 0000 0000 0000 0000 0000
	0x0240:  0000 0000 0000 0000 0000 0000 0000 0000
	0x0250:  0000 0000 0000 0000 0000 0000
69.866436 IP 10.1.2.3.49153 > 10.1.3.4.8080: Flags [.], seq 363944:364480, ack 1, win 32768, options [TS val 69815 ecr 69765,eol], length 536: HTTP
71.478673 IP 10.1.2.3.49153 > 10.1.3.4.8080: Flags [.], seq 375200:375736, ack 1, win 32768, options [TS val 71427 ecr 71377,eol], length 536: HTTP
71.479617 IP 10.1.2.3.49153 > 10.1.3.4.8080: Flags [.], seq 375736:376272, ack 1, win 32768, options [TS val 71427 ecr 71377,eol], length 536: HTTP
71.480561 IP 10.1.2.3.49153 > 10.1.3.4.8080: Flags [.], seq 376272:376808, ack 1, win 32768, options [TS val 71429 ecr 71379,eol], length 536: HTTP
71.988446 IP 10.1.2.3.49153 > 10.1.3.4.8080: Flags [.], seq 378416:378952, ack 1, win 32768, options [TS val 71937 ecr 71887,eol], length 536: HTTP
72.908004 unknown PPP protocol (0x0000) 
	0x0000:  0000 000a 0000 0000 0007 0800 4500 024c
	0x0010:  0350 0000 3e06 0000 0a01 0203 0a01 0304
	0x0020:  c001 1f90 0006 16e9 0000 0001 8010 8000
	0x0030:  0000 0000 080a 0001 1c96 0001 1c64 0000
	0x0040:  0000 0000 0000 0000 0000 0000 0000 0000
	0x0050:  0000 0000 0000 0000 0000 0000 0000 0000
	0x0060:  0000 0000 0000 0000 0000 0000 0000 0000
	0x0070:  0000 0000 0000 0000 0000 0000 0000 0000
	0x0080:  0000 0000 0000 0000 0000 0000 0000 0000
	0x0090:  0000 0000 0000 0000 0000 0000 0000 0000
	0x00a0:  0000 0000 0000 0000 0000 0000 0000 0000
	0x00b0:  0000 0000 0000 0000 0000 0000 0000 0000
	0x00c0:  0000 0000 0000 0000 0000 0000 0000 0000
	0x00d0:  0000 0000 0000 0000 0000 0000 0000 0000
	0x00e0:  0000 0000 0000 0000 0000 0000 0000 0000
	0x00f0:  0000 0000 0000 0000 0000 0000 0000 0000
	0x0100:  0000 0000 0000 0000 0000 0000 0000 0000
	0x0110:  0000 0000 0000 0000 0000 0000 0000 0000
	0x0120:  0000 0000 0000 0000 0000 0000 0000 0000
	0x0130:  0000 0000 0000 0000 0000 0000 0000 0000
	0x0140:  0000 0000 0000 0000 0000 0000 0000 0000
	0x0150:  0000 0000 0000 0000 0000 0000 0000 0000
	0x0160:  0000 0000 0000 0000 0000 0000 0000 0000
	0x0170:  0000 0000 0000 0000 0000 0000 0000 0000
	0x0180:  0000 0000 0000 0000 0000 0000 0000 0000
	0x0190:  0000 0000 0000 0000 0000 0000 0000 0000
	0x01a0:  0000 0000 0000 0000 0000 0000 0000 0000
	0x01b0:  0000 0000 0000 0000 0000 0000 0000 0000
	0x01c0:  0000 0000 0000 0000 0000 0000 0000 0000
	0x01d0:  0000 0000 0000 0000 0000 0000 0000 0000
	0x01e0:  0000 0000 0000 0000 0000 0000 0000 0000
	0x01f0:  0000 0000 0000 0000 0000 0000 0000 0000
	0x0200:  0000 0000 0000 0000 0000 0000 0000 0000
	0x0210:  0000 0000 0000 0000 0000 0000 0000 0000
	0x0220:  0000 0000 0000 0000 0000 0000 0000 0000
	0x0230:  0000 0000 0000 0000 0000 0000 0000 0000
	0x0240:  0000 0000 0000 0000 0000 0000 0000 0000
	0x0250:  0000 0000 0000 0000 0000 0000
73.110712 IP 10.1.2.3.49153 > 10.1.3.4.8080: Flags [.], seq 390208:390744, ack 1, win 32768, options [TS val 73058 ecr 73008,eol], length 536: HTTP
73.311618 unknown PPP protocol (0x0000) 
	0x0000:  0000 000a 0000 0000 0007 0800 4500 024c
	0x0010:  0357 0000 3e06 0000 0a01 0203 0a01 0304
	0x0020:  c001 1f90 0006 2379 0000 0001 8010 8000
	0x0030:  0000 0000 080a 0001 1e2c 0001 1dfa 0000
	0x0040:  0000 0000 0000 0000 0000 0000 0000 0000
	0x0050:  0000 0000 0000 0000 0000 0000 0000 0000
	0x0060:  0000 0000 0000 0000 0000 0000 0000 0000
	0x0070:  0000 0000 0000 0000 0000 0000 0000 0000
	0x0080:  0000 0000 0000 0000 0000 0000 0000 0000
	0x0090:  0000 0000 0000 0000 0000 0000 0000 0000
	0x00a0:  0000 0000 0000 0000 0000 0000 0000 0000
	0x00b0:  0000 0000 0000 0000 0000 0000 0000 0000
	0x00c0:  0000 0000 0000 0000 0000 0000 0000 0000
	0x00d0:  0000 0000 0000 0000 0000 0000 0000 0000
	0x00e0:  0000 0000 0000 0000 0000 0000 0000 0000
	0x00f0:  0000 0000 0000 0000 0000 0000 0000 0000
	0x0100:  0000 0000 0000 0000 0000 0000 0000 0000
	0x0110:  0000 0000 0000 0000 0000 0000 0000 0000
	0x0120:  0000 0000 0000 0000 0000 0000 0000 0000
	0x0130:  0000 0000 0000 0000 0000 0000 0000 0000
	0x0140:  0000 0000 0000 0000 0000 0000 0000 0000
	0x0150:  0000 0000 0000 0000 0000 0000 0000 0000
	0x0160:  0000 0000 0000 0000 0000 0000 0000 0000
	0x0170:  0000 0000 0000 0000 0000 0000 0000 0000
	0x0180:  0000 0000 0000 0000 0000 0000 0000 0000
	0x0190:  0000 0000 0000 0000 0000 0000 0000 0000
	0x01a0:  0000 0000 0000 0000 0000 0000 0000 0000
	0x01b0:  0000 0000 0000 0000 0000 0000 0000 0000
	0x01c0:  0000 0000 0000 0000 0000 0000 0000 0000
	0x01d0:  0000 0000 0000 0000 0000 0000 0000 0000
	0x01e0:  0000 0000 0000 0000 0000 0000 0000 0000
	0x01f0:  0000 0000 0000 0000 0000 0000 0000 0000
	0x0200:  0000 0000 0000 0000 0000 0000 0000 0000
	0x0210:  0000 0000 0000 0000 0000 0000 0000 0000
	0x0220:  0000 0000 0000 0000 0000 0000 0000 0000
	0x0230:  0000 0000 0000 0000 0000 0000 0000 0000
	0x0240:  0000 0000 0000 0000 0000 0000 0000 0000
	0x0250:  0000 0000 0000 0000 0000 0000
74.715974 IP 10.1.2.3.49153 > 10.1.3.4.8080: Flags [.], seq 391816:392352, ack 1, win 32768, options [TS val 74664 ecr 74614,eol], length 536: HTTP
74.919670 IP 10.1.2.3.49153 > 10.1.3.4.8080: Flags [.], seq 393424:393960, ack 1, win 32768, options [TS val 74868 ecr 74818,eol], length 536: HTTP
75.919170 IP 10.1.2.3.49153 > 10.1.3.4.8080: Flags [.], seq 394496:395032, ack 1, win 32768, options [TS val 75868 ecr 75817,eol], length 536: HTTP
76.326550 IP 10.1.2.3.49153 > 10.1.3.4.8080: Flags [.], seq 397176:397712, ack 1, win 32768, options [TS val 76274 ecr 76224,eol], length 536: HTTP
77.340986 IP 10.1.2.3.49153 > 10.1.3.4.8080: Flags [.], seq 403072:403608, ack 1, win 32768, options [TS val 77289 ecr 77239,eol], length 536: HTTP
77.956854 unknown PPP protocol (0x0000) 
	0x0000:  0000 000a 0000 0000 0007 0800 4500 024c
	0x0010:  0382 0000 3e06 0000 0a01 0203 0a01 0304
	0x0020:  c001 1f90 0006 6ed9 0000 0001 8010 8000
	0x0030:  0000 0000 080a 0001 3050 0001 301e 0000
	0x0040:  0000 0000 0000 0000 0000 0000 0000 0000
	0x0050:  0000 0000 0000 0000 0000 0000 0000 0000
	0x0060:  0000 0000 0000 0000 0000 0000 0000 0000
	0x0070:  0000 0000 0000 0000 0000 0000 0000 0000
	0x0080:  0000 0000 0000 0000 0000 0000 0000 0000
	0x0090:  0000 0000 0000 0000 0000 0000 0000 0000
	0x00a0:  0000 0000 0000 0000 0000 0000 0000 0000
	0x00b0:  0000 0000 0000 0000 0000 0000 0000 0000
	0x00c0:  0000 0000 0000 0000 0000 0000 0000 0000
	0x00d0:  0000 0000 0000 0000 0000 0000 0000 0000
	0x00e0:  0000 0000 0000 0000 0000 0000 0000 0000
	0x00f0:  0000 0000 0000 0000 0000 0000 0000 0000
	0x0100:  0000 0000 0000 0000 0000 0000 0000 0000
	0x0110:  0000 0000 0000 0000 0000 0000 0000 0000
	0x0120:  0000 0000 0000 0000 0000 0000 0000 0000
	0x0130:  0000 0000 0000 0000 0000 0000 0000 0000
	0x0140:  0000 0000 0000 0000 0000 0000 0000 0000
	0x0150:  0000 0000 0000 0000 0000 0000 0000 0000
	0x0160:  0000 0000 0000 0000 0000 0000 0000 0000
	0x0170:  0000 0000 0000 0000 0000 0000 0000 0000
	0x0180:  0000 0000 0000 0000 0000 0000 0000 0000
	0x0190:  0000 0000 0000 0000 0000 0000 0000 0000
	0x01a0:  0000 0000 0000 0000 0000 0000 0000 0000
	0x01b0:  0000 0000 0000 0000 0000 0000 0000 0000
	0x01c0:  0000 0000 0000 0000 0000 0000 0000 0000
	0x01d0:  0000 0000 0000 0000 0000 0000 0000 0000
	0x01e0:  0000 0000 0000 0000 0000 0000 0000 0000
	0x01f0:  0000 0000 0000 0000 0000 0000 0000 0000
	0x0200:  0000 0000 0000 0000 0000 0000 0000 0000
	0x0210:  0000 0000 0000 0000 0000 0000 0000 0000
	0x0220:  0000 0000 0000 0000 0000 0000 0000 0000
	0x0230:  0000 0000 0000 0000 0000 0000 0000 0000
	0x0240:  0000 0000 0000 0000 0000 0000 0000 0000
	0x0250:  0000 0000 0000 0000 0000 0000
78.362879 IP 10.1.2.3.49153 > 10.1.3.4.8080: Flags [.], seq 413256:413792, ack 1, win 32768, options [TS val 78310 ecr 78260,eol], length 536: HTTP
79.175183 unknown PPP protocol (0x0000) 
	0x0000:  0000 000a 0000 0000 0007 0800 4500 024c
	0x0010:  0393 0000 3e06 0000 0a01 0203 0a01 0304
	0x0020:  c001 1f90 0006 8e41 0000 0001 8010 8000
	0x0030:  0000 0000 080a 0001 3513 0001 34e0 0000
	0x0040:  0000 0000 0000 0000 0000 0000 0000 0000
	0x0050:  0000 0000 0000 0000 0000 0000 0000 0000
	0x0060:  0000 0000 0000 0000 0000 0000 0000 0000
	0x0070:  0000 0000 0000 0000 0000 0000 0000 0000
	0x0080:  0000 0000 0000 0000 0000 0000 0000 0000
	0x0090:  0000 0000 0000 0000 0000 0000 0000 0000
	0x00a0:  0000 0000 0000 0000 0000 0000 0000 0000
	0x00b0:  0000 0000 0000 0000 0000 0000 0000 0000
	0x00c0:  0000 0000 0000 0000 0000 0000 0000 0000
	0x00d0:  0000 0000 0000 0000 0000 0000 0000 0000
	0x00e0:  0000 0000 0000 0000 0000 0000 0000 0000
	0x00f0:  0000 0000 0000 0000 0000 0000 0000 0000
	0x0100:  0000 0000 0000 0000 0000 0000 0000 0000
	0x0110:  0000 0000 0000 0000 0000 0000 0000 0000
	0x0120:  0000 0000 0000 0000 0000 0000 0000 0000
	0x0130:  0000 0000 0000 0000 0000 0000 0000 0000
	0x0140:  0000 0000 0000 0000 0000 0000 0000 0000
	0x0150:  0000 0000 0000 0000 0000 0000 0000 0000
	0x0160:  0000 0000 0000 0000 0000 0000 0000 0000
	0x0170:  0000 0000 0000 0000 0000 0000 0000 0000
	0x0180:  0000 0000 0000 0000 0000 0000 0000 0000
	0x0190:  0000 0000 0000 0000 0000 0000 0000 0000
	0x01a0:  0000 0000 0000 0000 0000 0000 0000 0000
	0x01b0:  0000 0000 0000 0000 0000 0000 0000 0000
	0x01c0:  0000 0000 0000 0000 0000 0000 0000 0000
	0x01d0:  0000 0000 0000 0000 0000 0000 0000 0000
	0x01e0:  0000 0000 0000 0000 0000 0000 0000 0000
	0x01f0:  0000 0000 0000 0000 0000 0000 0000 0000
	0x0200:  0000 0000 0000 0000 0000 0000 0000 0000
	0x0210:  0000 0000 0000 0000 0000 0000 0000 0000
	0x0220:  0000 0000 0000 0000 0000 0000 0000 0000
	0x0230:  0000 0000 0000 0000 0000 0000 0000 0000
	0x0240:  0000 0000 0000 0000 0000 0000 0000 0000
	0x0250:  0000 0000 0000 0000 0000 0000
79.481300 IP 10.1.2.3.49153 > 10.1.3.4.8080: Flags [.], seq 421296:421832, ack 1, win 32768, options [TS val 79430 ecr 79379,eol], length 536: HTTP
80.290756 IP 10.1.2.3.49153 > 10.1.3.4.8080: Flags [.], seq 425048:425584, ack 1, win 32768, options [TS val 80238 ecr 80188,eol], length 536: HTTP
80.693586 IP 10.1.2.3.49153 > 10.1.3.4.8080: Flags [.], seq 427192:427728, ack 1, win 32768, options [TS val 80642 ecr 80592,eol], length 536: HTTP
82.016362 unknown PPP protocol (0x0000) 
	0x0000:  0000 000a 0000 0000 0007 0800 4500 024c
	0x0010:  03bf 0000 3e06 0000 0a01 0203 0a01 0304
	0x0020:  c001 1f90 0006 e201 0000 0001 8010 8000
	0x0030:  0000 0000 080a 0001 402c 0001 3ffa 0000
	0x0040:  0000 0000 0000 0000 0000 0000 0000 0000
	0x0050:  0000 0000 0000 0000 0000 0000 0000 0000
	0x0060:  0000 0000 0000 0000 0000 0000 0000 0000
	0x0070:  0000 0000 0000 0000 0000 0000 0000 0000
	0x0080:  0000 0000 0000 0000 0000 0000 0000 0000
	0x0090:  0000 0000 0000 0000 0000 0000 0000 0000
	0x00a0:  0000 0000 0000 0000 0000 0000 0000 0000
	0x00b0:  0000 0000 0000 0000 0000 0000 0000 0000
	0x00c0:  0000 0000 0000 0000 0000 0000 0000 0000
	0x00d0:  0000 0000 0000 0000 0000 0000 0000 0000
	0x00e0:  0000 0000 0000 0000 0000 0000 0000 0000
	0x00f0:  0000 0000 0000 0000 0000 0000 0000 0000
	0x0100:  0000 0000 0000 0000 0000 0000 0000 0000
	0x0110:  0000 0000 0000 0000 0000 0000 0000 0000
	0x0120:  0000 0000 0000 0000 0000 0000 0000 0000
	0x0130:  0000 0000 0000 0000 0000 0000 0000 0000
	0x0140:  0000 0000 0000 0000 0000 0000 0000 0000
	0x0150:  0000 0000 0000 0000 0000 0000 0000 0000
	0x0160:  0000 0000 0000 0000 0000 0000 0000 0000
	0x0170:  0000 0000 0000 0000 0000 0000 0000 0000
	0x0180:  0000 0000 0000 0000 0000 0000 0000 0000
	0x0190:  0000 0000 0000 0000 0000 0000 0000 0000
	0x01a0:  0000 0000 0000 0000 0000 0000 0000 0000
	0x01b0:  0000 0000 0000 0000 0000 0000 0000 0000
	0x01c0:  0000 0000 0000 0000 0000 0000 0000 0000
	0x01d0:  0000 0000 0000 0000 0000 0000 0000 0000
	0x01e0:  0000 0000 0000 0000 0000 0000 0000 0000
	0x01f0:  0000 0000 0000 0000 0000 0000 0000 0000
	0x0200:  0000 0000 0000 0000 0000 0000 0000 0000
	0x0210:  0000 0000 0000 0000 0000 0000 0000 0000
	0x0220:  0000 0000 0000 0000 0000 0000 0000 0000
	0x0230:  0000 0000 0000 0000 0000 0000 0000 0000
	0x0240:  0000 0000 0000 0000 0000 0000 0000 0000
	0x0250:  0000 0000 0000 0000 0000 0000
83.443948 IP 10.1.2.3.49153 > 10.1.3.4.8080: Flags [.], seq 462568:463104, ack 1, win 32768, options [TS val 83391 ecr 83341,eol], length 536: HTTP
83.444892 IP 10.1.2.3.49153 > 10.1.3.4.8080: Flags [.], seq 463104:463640, ack 1, win 32768, options [TS val 83393 ecr 83343,eol], length 536: HTTP
83.547224 IP 10.1.2.3.49153 > 10.1.3.4.8080: Flags [.], seq 465248:465784, ack 1, win 32768, options [TS val 83496 ecr 83445,eol], length 536: HTTP
84.060607 IP 10.1.2.3.49153 > 10.1.3.4.8080: Flags [.], seq 469000:469536, ack 1, win 32768, options [TS val 84008 ecr 83958,eol], length 536: HTTP
85.378303 IP 10.1.2.3.49153 > 10.1.3.4.8080: Flags [.], seq 481328:481864, ack 1, win 32768, options [TS val 85326 ecr 85276,eol], length 536: HTTP
85.993505 unknown PPP protocol (0x0000) 
	0x0000:  0000 000a 0000 0000 0007 0800 4500 024c
	0x0010:  0423 0000 3e06 0000 0a01 0203 0a01 0304
	0x0020:  c001 1f90 0007 a6d1 0000 0001 8010 8000
	0x0030:  0000 0000 080a 0001 4fb5 0001 4f83 0000
	0x0040:  0000 0000 0000 0000 0000 0000 0000 0000
	0x0050:  0000 0000 0000 0000 0000 0000 0000 0000
	0x0060:  0000 0000 0000 0000 0000 0000 0000 0000
	0x0070:  0000 0000 0000 0000 0000 0000 0000 0000
	0x0080:  0000 0000 0000 0000 0000 0000 0000 0000
	0x0090:  0000 0000 0000 0000 0000 0000 0000 0000
	0x00a0:  0000 0000 0000 0000 0000 0000 0000 0000
	0x00b0:  0000 0000 0000 0000 0000 0000 0000 0000
	0x00c0:  0000 0000 0000 0000 0000 0000 0000 0000
	0x00d0:  0000 0000 0000 0000 0000 0000 0000 0000
	0x00e0:  0000 0000 0000 0000 0000 0000 0000 0000
	0x00f0:  0000 0000 0000 0000 0000 0000 0000 0000
	0x0100:  0000 0000 0000 0000 0000 0000 0000 0000
	0x0110:  0000 0000 0000 0000 0000 0000 0000 0000
	0x0120:  0000 0000 0000 0000 0000 0000 0000 0000
	0x0130:  0000 0000 0000 0000 0000 0000 0000 0000
	0x0140:  0000 0000 0000 0000 0000 0000 0000 0000
	0x0150:  0000 0000 0000 0000 0000 0000 0000 0000
	0x0160:  0000 0000 0000 0000 0000 0000 0000 0000
	0x0170:  0000 0000 0000 0000 0000 0000 0000 0000
	0x0180:  0000 0000 0000 0000 0000 0000 0000 0000
	0x0190:  0000 0000 0000 0000 0000 0000 0000 0000
	0x01a0:  0000 0000 0000 0000 0000 0000 0000 0000
	0x01b0:  0000 0000 0000 0000 0000 0000 0000 0000
	0x01c0:  0000 0000 0000 0000 0000 0000 0000 0000
	0x01d0:  0000 0000 0000 0000 0000 0000 0000 0000
	0x01e0:  0000 0000 0000 0000 0000 0000 0000 0000
	0x01f0:  0000 0000 0000 0000 0000 0000 0000 0000
	0x0200:  0000 0000 0000 0000 0000 0000 0000 0000
	0x0210:  0000 0000 0000 0000 0000 0000 0000 0000
	0x0220:  0000 0000 0000 0000 0000 0000 0000 0000
	0x0230:  0000 0000 0000 0000 0000 0000 0000 0000
	0x0240:  0000 0000 0000 0000 0000 0000 0000 0000
	0x0250:  0000 0000 0000 0000 0000 0000
86.196244 unknown PPP protocol (0x0000) 
	0x0000:  0000 000a 0000 0000 0007 0800 4500 024c
	0x0010:  0428 0000 3e06 0000 0a01 0203 0a01 0304
	0x0020:  c001 1f90 0007 b149 0000 0001 8010 8000
	0x0030:  0000 0000 080a 0001 5081 0001 504e 0000
	0x0040:  0000 0000 0000 0000 0000 0000 0000 0000
	0x0050:  0000 0000 0000 0000 0000 0000 0000 0000
	0x0060:  0000 0000 0000 0000 0000 0000 0000 0000
	0x0070:  0000 0000 0000 0000 0000 0000 0000 0000
	0x0080:  0000 0000 0000 0000 0000 0000 0000 0000
	0x0090:  0000 0000 0000 0000 0000 0000 0000 0000
	0x00a0:  0000 0000 0000 0000 0000 0000 0000 0000
	0x00b0:  0000 0000 0000 0000 0000 0000 0000 0000
	0x00c0:  0000 0000 0000 0000 0000 0000 0000 0000
	0x00d0:  0000 0000 0000 0000 0000 0000 0000 0000
	0x00e0:  0000 0000 0000 0000 0000 0000 0000 0000
	0x00f0:  0000 0000 0000 0000 0000 0000 0000 0000
	0x0100:  0000 0000 0000 0000 0000 0000 0000 0000
	0x0110:  0000 0000 0000 0000 0000 0000 0000 0000
	0x0120:  0000 0000 0000 0000 0000 0000 0000 0000
	0x0130:  0000 0000 0000 0000 0000 0000 0000 0000
	0x0140:  0000 0000 0000 0000 0000 0000 0000 0000
	0x0150:  0000 0000 0000 0000 0000 0000 0000 0000
	0x0160:  0000 0000 0000 0000 0000 0000 0000 0000
	0x0170:  0000 0000 0000 0000 0000 0000 0000 0000
	0x0180:  0000 0000 0000 0000 0000 0000 0000 0000
	0x0190:  0000 0000 0000 0000 0000 0000 0000 0000
	0x01a0:  0000 0000 0000 0000 0000 0000 0000 0000
	0x01b0:  0000 0000 0000 0000 0000 0000 0000 0000
	0x01c0:  0000 0000 0000 0000 0000 0000 0000 0000
	0x01d0:  0000 0000 0000 0000 0000 0000 0000 0000
	0x01e0:  0000 0000 0000 0000 0000 0000 0000 0000
	0x01f0:  0000 0000 0000 0000 0000 0000 0000 0000
	0x0200:  0000 0000 0000 0000 0000 0000 0000 0000
	0x0210:  0000 0000 0000 0000 0000 0000 0000 0000
	0x0220:  0000 0000 0000 0000 0000 0000 0000 0000
	0x0230:  0000 0000 0000 0000 0000 0000 0000 0000
	0x0240:  0000 0000 0000 0000 0000 0000 0000 0000
	0x0250:  0000 0000 0000 0000 0000 0000
86.806294 IP 10.1.2.3.49153 > 10.1.3.4.8080: Flags [.], seq 495800:496336, ack 1, win 32768, options [TS val 86755 ecr 86704,eol], length 536: HTTP
87.622011 unknown PPP protocol (0x0000) 
	0x0000:  0000 000a 0000 0000 0007 0800 4500 024c
	0x0010:  043f 0000 3e06 0000 0a01 0203 0a01 0304
	0x0020:  c001 1f90 0007 db29 0000 0001 8010 8000
	0x0030:  0000 0000 080a 0001 5611 0001 55df 0000
	0x0040:  0000 0000 0000 0000 0000 0000 0000 0000
	0x0050:  0000 0000 0000 0000 0000 0000 0000 0000
	0x0060:  0000 0000 0000 0000 0000 0000 0000 0000
	0x0070:  0000 0000 0000 0000 0000 0000 0000 0000
	0x0080:  0000 0000 0000 0000 0000 0000 0000 0000
	0x0090:  0000 0000 0000 0000 0000 0000 0000 0000
	0x00a0:  0000 0000 0000 0000 0000 0000 0000 0000
	0x00b0:  0000 0000 0000 0000 0000 0000 0000 0000
	0x00c0:  0000 0000 0000 0000 0000 0000 0000 0000
	0x00d0:  0000 0000 0000 0000 0000 0000 0000 0000
	0x00e0:  0000 0000 0000 0000 0000 0000 0000 0000
	0x00f0:  0000 0000 0000 0000 0000 0000 0000 0000
	0x0100:  0000 0000 0000 0000 0000 0000 0000 0000
	0x0110:  0000 0000 0000 0000 0000 0000 0000 0000
	0x0120:  0000 0000 0000 0000 0000 0000 0000 0000
	0x0130:  0000 0000 0000 0000 0000 0000 0000 0000
	0x0140:  0000 0000 0000 0000 0000 0000 0000 0000
	0x0150:  0000 0000 0000 0000 0000 0000 0000 0000
	0x0160:  0000 0000 0000 0000 0000 0000 0000 0000
	0x0170:  0000 0000 0000 0000 0000 0000 0000 0000
	0x0180:  0000 0000 0000 0000 0000 0000 0000 0000
	0x0190:  0000 0000 0000 0000 0000 0000 0000 0000
	0x01a0:  0000 0000 0000 0000 0000 0000 0000 0000
	0x01b0:  0000 0000 0000 0000 0000 0000 0000 0000
	0x01c0:  0000 0000 0000 0000 0000 0000 0000 0000
	0x01d0:  0000 0000 0000 0000 0000 0000 0000 0000
	0x01e0:  0000 0000 0000 0000 0000 0000 0000 0000
	0x01f0:  0000 0000 0000 0000 0000 0000 0000 0000
	0x0200:  0000 0000 0000 0000 0000 0000 0000 0000
	0x0210:  0000 0000 0000 0000 0000 0000 0000 0000
	0x0220:  0000 0000 0000 0000 0000 0000 0000 0000
	0x0230:  0000 0000 0000 0000 0000 0000 0000 0000
	0x0240:  0000 0000 0000 0000 0000 0000 0000 0000
	0x0250:  0000 0000 0000 0000 0000 0000
87.723694 IP 10.1.2.3.49153 > 10.1.3.4.8080: Flags [.], seq 504376:504912, ack 1, win 32768, options [TS val 87671 ecr 87621,eol], length 536: HTTP
87.724638 IP 10.1.2.3.49153 > 10.1.3.4.8080: Flags [.], seq 504912:505448, ack 1, win 32768, options [TS val 87671 ecr 87621,eol], length 536: HTTP
88.026905 IP 10.1.2.3.49153 > 10.1.3.4.8080: Flags [.], seq 503304:503840, ack 1, win 32768, options [TS val 87975 ecr 87925,eol], length 536: HTTP
88.926027 IP 10.1.2.3.49153 > 10.1.3.4.8080: Flags [.], seq 507056:507592, ack 1, win 32768, options [TS val 88874 ecr 88824,eol], length 536: HTTP
89.327821 IP 10.1.2.3.49153 > 10.1.3.4.8080: Flags [.], seq 508664:509200, ack 1, win 32768, options [TS val 89276 ecr 89226,eol], length 536: HTTP
90.446655 IP 10.1.2.3.49153 > 10.1.3.4.8080: Flags [.], seq 518312:518848, ack 1, win 32768, options [TS val 90395 ecr 90345,eol], length 536: HTTP
91.059578 IP 10.1.2.3.49153 > 10.1.3.4.8080: Flags [.], seq 526352:526888, ack 1, win 32768, options [TS val 91008 ecr 90958,eol], length 536: HTTP
91.060577 unknown PPP protocol (0x0000) 
	0x0000:  0000 000a 0000 0000 0007 0800 4500 024c
	0x0010:  0472 0000 3e06 0000 0a01 0203 0a01 0304
	0x0020:  c001 1f90 0008 3749 0000 0001 8010 8000
	0x0030:  0000 0000 080a 0001 6380 0001 634e 0000
	0x0040:  0000 0000 0000 0000 0000 0000 0000 0000
	0x0050:  0000 0000 0000 0000 0000 0000 0000 0000
	0x0060:  0000 0000 0000 0000 0000 0000 0000 0000
	0x0070:  0000 0000 0000 0000 0000 0000 0000 0000
	0x0080:  0000 0000 0000 0000 0000 0000 0000 0000
	0x0090:  0000 0000 0000 0000 0000 0000 0000 0000
	0x00a0:  0000 0000 0000 0000 0000 0000 0000 0000
	0x00b0:  0000 0000 0000 0000 0000 0000 0000 0000
	0x00c0:  0000 0000 0000 0000 0000 0000 0000 0000
	0x00d0:  0000 0000 0000 0000 0000 0000 0000 0000
	0x00e0:  0000 0000 0000 0000 0000 0000 0000 0000
	0x00f0:  0000 0000 0000 0000 0000 0000 0000 0000
	0x0100:  0000 0000 0000 0000 0000 0000 0000 0000
	0x0110:  0000 0000 0000 0000 0000 0000 0000 0000
	0x0120:  0000 0000 0000 0000 0000 0000 0000 0000
	0x0130:  0000 0000 0000 0000 0000 0000 0000 0000
	0x0140:  0000 0000 0000 0000 0000 0000 0000 0000
	0x0150:  0000 0000 0000 0000 0000 0000 0000 0000
	0x0160:  0000 0000 0000 0000 0000 0000 0000 0000
	0x0170:  0000 0000 0000 0000 0000 0000 0000 0000
	0x0180:  0000 0000 0000 0000 0000 0000 0000 0000
	0x0190:  0000 0000 0000 0000 0000 0000 0000 0000
	0x01a0:  0000 0000 0000 0000 0000 0000 0000 0000
	0x01b0:  0000 0000 0000 0000 0000 0000 0000 0000
	0x01c0:  0000 0000 0000 0000 0000 0000 0000 0000
	0x01d0:  0000 0000 0000 0000 0000 0000 0000 0000
	0x01e0:  0000 0000 0000 0000 0000 0000 0000 0000
	0x01f0:  0000 0000 0000 0000 0000 0000 0000 0000
	0x0200:  0000 0000 0000 0000 0000 0000 0000 0000
	0x0210:  0000 0000 0000 0000 0000 0000 0000 0000
	0x0220:  0000 0000 0000 0000 0000 0000 0000 0000
	0x0230:  0000 0000 0000 0000 0000 0000 0000 0000
	0x0240:  0000 0000 0000 0000 0000 0000 0000 0000
	0x0250:  0000 0000 0000 0000 0000 0000
91.362841 IP 10.1.2.3.49153 > 10.1.3.4.8080: Flags [.], seq 529032:529568, ack 1, win 32768, options [TS val 91311 ecr 91261,eol], length 536: HTTP
91.463328 unknown PPP protocol (0x0000) 
	0x0000:  0000 000a 0000 0000 0007 0800 4500 024c
	0x0010:  0477 0000 3e06 0000 0a01 0203 0a01 0304
	0x0020:  c001 1f90 0008 3531 0000 0001 8010 8000
	0x0030:  0000 0000 080a 0001 6514 0001 64e1 0000
	0x0040:  0000 0000 0000 0000 0000 0000 0000 0000
	0x0050:  0000 0000 0000 0000 0000 0000 0000 0000
	0x0060:  0000 0000 0000 0000 0000 0000 0000 0000
	0x0070:  0000 0000 0000 0000 0000 0000 0000 0000
	0x0080:  0000 0000 0000 0000 0000 0000 0000 0000
	0x0090:  0000 0000 0000 0000 0000 0000 0000 0000
	0x00a0:  0000 0000 0000 0000 0000 0000 0000 0000
	0x00b0:  0000 0000 0000 0000 0000 0000 0000 0000
	0x00c0:  0000 0000 0000 0000 0000 0000 0000 0000
	0x00d0:  0000 0000 0000 0000 0000 0000 0000 0000
	0x00e0:  0000 0000 0000 0000 0000 0000 0000 0000
	0x00f0:  0000 0000 0000 0000 0000 0000 0000 0000
	0x0100:  0000 0000 0000 0000 0000 0000 0000 0000
	0x0110:  0000 0000 0000 0000 0000 0000 0000 0000
	0x0120:  0000 0000 0000 0000 0000 0000 0000 0000
	0x0130:  0000 0000 0000 0000 0000 0000 0000 0000
	0x0140:  0000 0000 0000 0000 0000 0000 0000 0000
	0x0150:  0000 0000 0000 0000 0000 0000 0000 0000
	0x0160:  0000 0000 0000 0000 0000 0000 0000 0000
	0x0170:  0000 0000 0000 0000 0000 0000 0000 0000
	0x0180:  0000 0000 0000 0000 0000 0000 0000 0000
	0x0190:  0000 0000 0000 0000 0000 0000 0000 0000
	0x01a0:  0000 0000 0000 0000 0000 0000 0000 0000
	0x01b0:  0000 0000 0000 0000 0000 0000 0000 0000
	0x01c0:  0000 0000 0000 0000 0000 0000 0000 0000
	0x01d0:  0000 0000 0000 0000 0000 0000 0000 0000
	0x01e0:  0000 0000 0000 0000 0000 0000 0000 0000
	0x01f0:  0000 0000 0000 0000 0000 0000 0000 0000
	0x0200:  0000 0000 0000 0000 0000 0000 0000 0000
	0x0210:  0000 0000 0000 0000 0000 0000 0000 0000
	0x0220:  0000 0000 0000 0000 0000 0000 0000 0000
	0x0230:  0000 0000 0000 0000 0000 0000 0000 0000
	0x0240:  0000 0000 0000 0000 0000 0000 0000 0000
	0x0250:  0000 0000 0000 0000 0000 0000
92.769204 IP 10.1.2.3.49153 > 10.1.3.4.8080: Flags [.], seq 532784:533320, ack 1, win 32768, options [TS val 92718 ecr 92667,eol], length 536: HTTP
92.973924 unknown PPP protocol (0x0000) 
	0x0000:  0000 000a 0000 0000 0007 0800 4500 024c
	0x0010:  0486 0000 3e06 0000 0a01 0203 0a01 0304
	0x0020:  c001 1f90 0008 4e51 0000 0001 8010 8000
	0x0030:  0000 0000 080a 0001 6afa 0001 6ac8 0000
	0x0040:  0000 0000 0000 0000 0000 0000 0000 0000
	0x0050:  0000 0000 0000 0000 0000 0000 0000 0000
	0x0060:  0000 0000 0000 0000 0000 0000 0000 0000
	0x0070:  0000 0000 0000 0000 0000 0000 0000 0000
	0x0080:  0000 0000 0000 0000 0000 0000 0000 0000
	0x0090:  0000 0000 0000 0000 0000 0000 0000 0000
	0x00a0:  0000 0000 0000 0000 0000 0000 0000 0000
	0x00b0:  0000 0000 0000 0000 0000 0000 0000 0000
	0x00c0:  0000 0000 0000 0000 0000 0000 0000 0000
	0x00d0:  0000 0000 0000 0000 0000 0000 0000 0000
	0x00e0:  0000 0000 0000 0000 0000 0000 0000 0000
	0x00f0:  0000 0000 0000 0000 0000 0000 0000 0000
	0x0100:  0000 0000 0000 0000 0000 0000 0000 0000
	0x0110:  0000 0000 0000 0000 0000 0000 0000 0000
	0x0120:  0000 0000 0000 0000 0000 0000 0000 0000
	0x0130:  0000 0000 0000 0000 0000 0000 0000 0000
	0x0140:  0000 0000 0000 0000 0000 0000 0000 0000
	0x0150:  0000 0000 0000 0000 0000 0000 0000 0000
	0x0160:  0000 0000 0000 0000 0000 0000 0000 0000
	0x0170:  0000 0000 0000 0000 0000 0000 0000 0000
	0x0180:  0000 0000 0000 0000 0000 0000 0000 0000
	0x0190:  0000 0000 0000 0000 0000 0000 0000 0000
	0x01a0:  0000 0000 0000 0000 0000 0000 0000 0000
	0x01b0:  0000 0000 0000 0000 0000 0000 0000 0000
	0x01c0:  0000 0000 0000 0000 0000 0000 0000 0000
	0x01d0:  0000 0000 0000 0000 0000 0000 0000 0000
	0x01e0:  0000 0000 0000 0000 0000 0000 0000 0000
	0x01f0:  0000 0000 0000 0000 0000 0000 0000 0000
	0x0200:  0000 0000 0000 0000 0000 0000 0000 0000
	0x0210:  0000 0000 0000 0000 0000 0000 0000 0000
	0x0220:  0000 0000 0000 0000 0000 0000 0000 0000
	0x0230:  0000 0000 0000 0000 0000 0000 0000 0000
	0x0240:  0000 0000 0000 0000 0000 0000 0000 0000
	0x0250:  0000 0000 0000 0000 0000 0000
93.769148 IP 10.1.2.3.49153 > 10.1.3.4.8080: Flags [.], seq 532784:533320, ack 1, win 32768, options [TS val 93718 ecr 93581,eol], length 536: HTTP
96.172817 IP 10.1.2.3.49153 > 10.1.3.4.8080: Flags [.], seq 540288:540824, ack 1, win 32768, options [TS val 96120 ecr 96070,eol], length 536: HTTP
96.981087 unknown PPP protocol (0x0000) 
	0x0000:  0000 000a 0000 0000 0007 0800 4500 024c
	0x0010:  0499 0000 3e06 0000 0a01 0203 0a01 0304
	0x0020:  c001 1f90 0008 7831 0000 0001 8010 8000
	0x0030:  0000 0000 080a 0001 7aa1 0001 7a6f 0000
	0x0040:  0000 0000 0000 0000 0000 0000 0000 0000
	0x0050:  0000 0000 0000 0000 0000 0000 0000 0000
	0x0060:  0000 0000 0000 0000 0000 0000 0000 0000
	0x0070:  0000 0000 0000 0000 0000 0000 0000 0000
	0x0080:  0000 0000 0000 0000 0000 0000 0000 0000
	0x0090:  0000 0000 0000 0000 0000 0000 0000 0000
	0x00a0:  0000 0000 0000 0000 0000 0000 0000 0000
	0x00b0:  0000 0000 0000 0000 0000 0000 0000 0000
	0x00c0:  0000 0000 0000 0000 0000 0000 0000 0000
	0x00d0:  0000 0000 0000 0000 0000 0000 0000 0000
	0x00e0:  0000 0000 0000 0000 0000 0000 0000 0000
	0x00f0:  0000 0000 0000 0000 0000 0000 0000 0000
	0x0100:  0000 0000 0000 0000 0000 0000 0000 0000
	0x0110:  0000 0000 0000 0000 0000 0000 0000 0000
	0x0120:  0000 0000 0000 0000 0000 0000 0000 0000
	0x0130:  0000 0000 0000 0000 0000 0000 0000 0000
	0x0140:  0000 0000 0000 0000 0000 0000 0000 0000
	0x0150:  0000 0000 0000 0000 0000 0000 0000 0000
	0x0160:  0000 0000 0000 0000 0000 0000 0000 0000
	0x0170:  0000 0000 0000 0000 0000 0000 0000 0000
	0x0180:  0000 0000 0000 0000 0000 0000 0000 0000
	0x0190:  0000 0000 0000 0000 0000 0000 0000 0000
	0x01a0:  0000 0000 0000 0000 0000 0000 0000 0000
	0x01b0:  0000 0000 0000 0000 0000 0000 0000 0000
	0x01c0:  0000 0000 0000 0000 0000 0000 0000 0000
	0x01d0:  0000 0000 0000 0000 0000 0000 0000 0000
	0x01e0:  0000 0000 0000 0000 0000 0000 0000 0000
	0x01f0:  0000 0000 0000 0000 0000 0000 0000 0000
	0x0200:  0000 0000 0000 0000 0000 0000 0000 0000
	0x0210:  0000 0000 0000 0000 0000 0000 0000 0000
	0x0220:  0000 0000 0000 0000 0000 0000 0000 0000
	0x0230:  0000 0000 0000 0000 0000 0000 0000 0000
	0x0240:  0000 0000 0000 0000 0000 0000 0000 0000
	0x0250:  0000 0000 0000 0000 0000 0000
97.489774 IP 10.1.2.3.49153 > 10.1.3.4.8080: Flags [.], seq 546720:547256, ack 1, win 32768, options [TS val 97438 ecr 97388,eol], length 536: HTTP
98.508162 IP 10.1.2.3.49153 > 10.1.3.4.8080: Flags [.], seq 556904:557440, ack 1, win 32768, options [TS val 98456 ecr 98405,eol], length 536: HTTP
98.510050 IP 10.1.2.3.49153 > 10.1.3.4.8080: Flags [.], seq 557976:558512, ack 1, win 32768, options [TS val 98457 ecr 98407,eol], length 536: HTTP
99.120182 IP 10.1.2.3.49153 > 10.1.3.4.8080: Flags [.], seq 563336:563872, ack 1, win 32768, options [TS val 99067 ecr 99016,eol], length 536: HTTP
100.339394 IP 10.1.2.3.49153 > 10.1.3.4.8080: Flags [.], seq 577808:578344, ack 1, win 32768, options [TS val 100288 ecr 100238,eol], length 536: HTTP
100.646341 IP 10.1.2.3.49153 > 10.1.3.4.8080: Flags [.], seq 582632:583168, ack 1, win 32768, options [TS val 100595 ecr 100545,eol], length 536: HTTP
