3.269716 IP 10.1.2.4.49153 > 10.1.3.4.8080: Flags [.], seq 14233:14769, ack 1, win 32768, options [TS val 3218 ecr 3168,eol], length 536: HTTP
3.278907 unknown PPP protocol (0x0000) 
	0x0000:  0000 000a 0000 0000 0007 0800 4500 024c
	0x0010:  0023 0000 3e06 0000 0a01 0204 0a01 0304
	0x0020:  c001 1f90 0000 4429 0000 0001 8010 8000
	0x0030:  0000 0000 080a 0000 0c9b 0000 0c69 0000
	0x0040:  0000 0000 0000 0000 0000 0000 0000 0000
	0x0050:  0000 0000 0000 0000 0000 0000 0000 0000
	0x0060:  0000 0000 0000 0000 0000 0000 0000 0000
	0x0070:  0000 0000 0000 0000 0000 0000 0000 0000
	0x0080:  0000 0000 0000 0000 0000 0000 0000 0000
	0x0090:  0000 0000 0000 0000 0000 0000 0000 0000
	0x00a0:  0000 0000 0000 0000 0000 0000 0000 0000
	0x00b0:  0000 0000 0000 0000 0000 0000 0000 0000
	0x00c0:  0000 0000 0000 0000 0000 0000 0000 0000
	0x00d0:  0000 0000 0000 0000 0000 0000 0000 0000
	0x00e0:  0000 0000 0000 0000 0000 0000 0000 0000
	0x00f0:  0000 0000 0000 0000 0000 0000 0000 0000
	0x0100:  0000 0000 0000 0000 0000 0000 0000 0000
	0x0110:  0000 0000 0000 0000 0000 0000 0000 0000
	0x0120:  0000 0000 0000 0000 0000 0000 0000 0000
	0x0130:  0000 0000 0000 0000 0000 0000 0000 0000
	0x0140:  0000 0000 0000 0000 0000 0000 0000 0000
	0x0150:  0000 0000 0000 0000 0000 0000 0000 0000
	0x0160:  0000 0000 0000 0000 0000 0000 0000 0000
	0x0170:  0000 0000 0000 0000 0000 0000 0000 0000
	0x0180:  0000 0000 0000 0000 0000 0000 0000 0000
	0x0190:  0000 0000 0000 0000 0000 0000 0000 0000
	0x01a0:  0000 0000 0000 0000 0000 0000 0000 0000
	0x01b0:  0000 0000 0000 0000 0000 0000 0000 0000
	0x01c0:  0000 0000 0000 0000 0000 0000 0000 0000
	0x01d0:  0000 0000 0000 0000 0000 0000 0000 0000
	0x01e0:  0000 0000 0000 0000 0000 0000 0000 0000
	0x01f0:  0000 0000 0000 0000 0000 0000 0000 0000
	0x0200:  0000 0000 0000 0000 0000 0000 0000 0000
	0x0210:  0000 0000 0000 0000 0000 0000 0000 0000
	0x0220:  0000 0000 0000 0000 0000 0000 0000 0000
	0x0230:  0000 0000 0000 0000 0000 0000 0000 0000
	0x0240:  0000 0000 0000 0000 0000 0000 0000 0000
	0x0250:  0000 0000 0000 0000 0000 0000
3.362691 IP 10.1.2.4.49153 > 10.1.3.4.8080: Flags [.], seq 9648:10184, ack 1, win 32768, options [TS val 3311 ecr 3261,eol], length 536: HTTP
3.365523 IP 10.1.2.4.49153 > 10.1.3.4.8080: Flags [.], seq 11256:11792, ack 1, win 32768, options [TS val 3313 ecr 3263,eol], length 536: HTTP
3.371896 unknown PPP protocol (0x0000) 
	0x0000:  0000 000a 0000 0000 0007 0800 4500 024c
	0x0010:  0035 0000 3e06 0000 0a01 0204 0a01 0304
	0x0020:  c001 1f90 0000 69d9 0000 0001 8010 8000
	0x0030:  0000 0000 080a 0000 0cf8 0000 0cc6 0000
	0x0040:  0000 0000 0000 0000 0000 0000 0000 0000
	0x0050:  0000 0000 0000 0000 0000 0000 0000 0000
	0x0060:  0000 0000 0000 0000 0000 0000 0000 0000
	0x0070:  0000 0000 0000 0000 0000 0000 0000 0000
	0x0080:  0000 0000 0000 0000 0000 0000 0000 0000
	0x0090:  0000 0000 0000 0000 0000 0000 0000 0000
	0x00a0:  0000 0000 0000 0000 0000 0000 0000 0000
	0x00b0:  0000 0000 0000 0000 0000 0000 0000 0000
	0x00c0:  0000 0000 0000 0000 0000 0000 0000 0000
	0x00d0:  0000 0000 0000 0000 0000 0000 0000 0000
	0x00e0:  0000 0000 0000 0000 0000 0000 0000 0000
	0x00f0:  0000 0000 0000 0000 0000 0000 0000 0000
	0x0100:  0000 0000 0000 0000 0000 0000 0000 0000
	0x0110:  0000 0000 0000 0000 0000 0000 0000 0000
	0x0120:  0000 0000 0000 0000 0000 0000 0000 0000
	0x0130:  0000 0000 0000 0000 0000 0000 0000 0000
	0x0140:  0000 0000 0000 0000 0000 0000 0000 0000
	0x0150:  0000 0000 0000 0000 0000 0000 0000 0000
	0x0160:  0000 0000 0000 0000 0000 0000 0000 0000
	0x0170:  0000 0000 0000 0000 0000 0000 0000 0000
	0x0180:  0000 0000 0000 0000 0000 0000 0000 0000
	0x0190:  0000 0000 0000 0000 0000 0000 0000 0000
	0x01a0:  0000 0000 0000 0000 0000 0000 0000 0000
	0x01b0:  0000 0000 0000 0000 0000 0000 0000 0000
	0x01c0:  0000 0000 0000 0000 0000 0000 0000 0000
	0x01d0:  0000 0000 0000 0000 0000 0000 0000 0000
	0x01e0:  0000 0000 0000 0000 0000 0000 0000 0000
	0x01f0:  0000 0000 0000 0000 0000 0000 0000 0000
	0x0200:  0000 0000 0000 0000 0000 0000 0000 0000
	0x0210:  0000 0000 0000 0000 0000 0000 0000 0000
	0x0220:  0000 0000 0000 0000 0000 0000 0000 0000
	0x0230:  0000 0000 0000 0000 0000 0000 0000 0000
	0x0240:  0000 0000 0000 0000 0000 0000 0000 0000
	0x0250:  0000 0000 0000 0000 0000 0000
3.391071 IP 10.1.2.4.49153 > 10.1.3.4.8080: Flags [.], seq 14472:15008, ack 1, win 32768, options [TS val 3340 ecr 3289,eol], length 536: HTTP
3.468620 IP 10.1.2.4.49153 > 10.1.3.4.8080: Flags [.], seq 16080:16616, ack 1, win 32768, options [TS val 3417 ecr 3367,eol], length 536: HTTP
3.566053 IP 10.1.2.4.49153 > 10.1.3.4.8080: Flags [.], seq 18760:19296, ack 1, win 32768, options [TS val 3515 ecr 3464,eol], length 536: HTTP
3.878787 unknown PPP protocol (0x0000) 
	0x0000:  0000 000a 0000 0000 0007 0800 4500 024c
	0x0010:  0059 0000 3e06 0000 0a01 0204 0a01 0304
	0x0020:  c001 1f90 0000 a479 0000 0001 8010 8000
	0x0030:  0000 0000 080a 0000 0ef3 0000 0ec1 0000
	0x0040:  0000 0000 0000 0000 0000 0000 0000 0000
	0x0050:  0000 0000 0000 0000 0000 0000 0000 0000
	0x0060:  0000 0000 0000 0000 0000 0000 0000 0000
	0x0070:  0000 0000 0000 0000 0000 0000 0000 0000
	0x0080:  0000 0000 0000 0000 0000 0000 0000 0000
	0x0090:  0000 0000 0000 0000 0000 0000 0000 0000
	0x00a0:  0000 0000 0000 0000 0000 0000 0000 0000
	0x00b0:  0000 0000 0000 0000 0000 0000 0000 0000
	0x00c0:  0000 0000 0000 0000 0000 0000 0000 0000
	0x00d0:  0000 0000 0000 0000 0000 0000 0000 0000
	0x00e0:  0000 0000 0000 0000 0000 0000 0000 0000
	0x00f0:  0000 0000 0000 0000 0000 0000 0000 0000
	0x0100:  0000 0000 0000 0000 0000 0000 0000 0000
	0x0110:  0000 0000 0000 0000 0000 0000 0000 0000
	0x0120:  0000 0000 0000 0000 0000 0000 0000 0000
	0x0130:  0000 0000 0000 0000 0000 0000 0000 0000
	0x0140:  0000 0000 0000 0000 0000 0000 0000 0000
	0x0150:  0000 0000 0000 0000 0000 0000 0000 0000
	0x0160:  0000 0000 0000 0000 0000 0000 0000 0000
	0x0170:  0000 0000 0000 0000 0000 0000 0000 0000
	0x0180:  0000 0000 0000 0000 0000 0000 0000 0000
	0x0190:  0000 0000 0000 0000 0000 0000 0000 0000
	0x01a0:  0000 0000 0000 0000 0000 0000 0000 0000
	0x01b0:  0000 0000 0000 0000 0000 0000 0000 0000
	0x01c0:  0000 0000 0000 0000 0000 0000 0000 0000
	0x01d0:  0000 0000 0000 0000 0000 0000 0000 0000
	0x01e0:  0000 0000 0000 0000 0000 0000 0000 0000
	0x01f0:  0000 0000 0000 0000 0000 0000 0000 0000
	0x0200:  0000 0000 0000 0000 0000 0000 0000 0000
	0x0210:  0000 0000 0000 0000 0000 0000 0000 0000
	0x0220:  0000 0000 0000 0000 0000 0000 0000 0000
	0x0230:  0000 0000 0000 0000 0000 0000 0000 0000
	0x0240:  0000 0000 0000 0000 0000 0000 0000 0000
	0x0250:  0000 0000 0000 0000 0000 0000
4.584399 IP 10.1.2.4.49153 > 10.1.3.4.8080: Flags [.], seq 36984:37520, ack 1, win 32768, options [TS val 4532 ecr 4482,eol], length 536: HTTP
4.785803 IP 10.1.2.4.49153 > 10.1.3.4.8080: Flags [.], seq 39128:39664, ack 1, win 32768, options [TS val 4734 ecr 4684,eol], length 536: HTTP
4.787691 IP 10.1.2.4.49153 > 10.1.3.4.8080: Flags [.], seq 36984:37520, ack 1, win 32768, options [TS val 4736 ecr 4686,eol], length 536: HTTP
5.786746 IP 10.1.2.4.49153 > 10.1.3.4.8080: Flags [.], seq 40200:40736, ack 1, win 32768, options [TS val 5734 ecr 5684,eol], length 536: HTTP
6.801288 IP 10.1.2.4.49153 > 10.1.3.4.8080: Flags [.], seq 48776:49312, ack 1, win 32768, options [TS val 6749 ecr 6699,eol], length 536: HTTP
6.802287 unknown PPP protocol (0x0000) 
	0x0000:  0000 000a 0000 0000 0007 0800 4500 024c
	0x0010:  0086 0000 3e06 0000 0a01 0204 0a01 0304
	0x0020:  c001 1f90 0000 f839 0000 0001 8010 8000
	0x0030:  0000 0000 080a 0000 1a5d 0000 1a2b 0000
	0x0040:  0000 0000 0000 0000 0000 0000 0000 0000
	0x0050:  0000 0000 0000 0000 0000 0000 0000 0000
	0x0060:  0000 0000 0000 0000 0000 0000 0000 0000
	0x0070:  0000 0000 0000 0000 0000 0000 0000 0000
	0x0080:  0000 0000 0000 0000 0000 0000 0000 0000
	0x0090:  0000 0000 0000 0000 0000 0000 0000 0000
	0x00a0:  0000 0000 0000 0000 0000 0000 0000 0000
	0x00b0:  0000 0000 0000 0000 0000 0000 0000 0000
	0x00c0:  0000 0000 0000 0000 0000 0000 0000 0000
	0x00d0:  0000 0000 0000 0000 0000 0000 0000 0000
	0x00e0:  0000 0000 0000 0000 0000 0000 0000 0000
	0x00f0:  0000 0000 0000 0000 0000 0000 0000 0000
	0x0100:  0000 0000 0000 0000 0000 0000 0000 0000
	0x0110:  0000 0000 0000 0000 0000 0000 0000 0000
	0x0120:  0000 0000 0000 0000 0000 0000 0000 0000
	0x0130:  0000 0000 0000 0000 0000 0000 0000 0000
	0x0140:  0000 0000 0000 0000 0000 0000 0000 0000
	0x0150:  0000 0000 0000 0000 0000 0000 0000 0000
	0x0160:  0000 0000 0000 0000 0000 0000 0000 0000
	0x0170:  0000 0000 0000 0000 0000 0000 0000 0000
	0x0180:  0000 0000 0000 0000 0000 0000 0000 0000
	0x0190:  0000 0000 0000 0000 0000 0000 0000 0000
	0x01a0:  0000 0000 0000 0000 0000 0000 0000 0000
	0x01b0:  0000 0000 0000 0000 0000 0000 0000 0000
	0x01c0:  0000 0000 0000 0000 0000 0000 0000 0000
	0x01d0:  0000 0000 0000 0000 0000 0000 0000 0000
	0x01e0:  0000 0000 0000 0000 0000 0000 0000 0000
	0x01f0:  0000 0000 0000 0000 0000 0000 0000 0000
	0x0200:  0000 0000 0000 0000 0000 0000 0000 0000
	0x0210:  0000 0000 0000 0000 0000 0000 0000 0000
	0x0220:  0000 0000 0000 0000 0000 0000 0000 0000
	0x0230:  0000 0000 0000 0000 0000 0000 0000 0000
	0x0240:  0000 0000 0000 0000 0000 0000 0000 0000
	0x0250:  0000 0000 0000 0000 0000 0000
7.003636 IP 10.1.2.4.49153 > 10.1.3.4.8080: Flags [.], seq 51456:51992, ack 1, win 32768, options [TS val 6952 ecr 6902,eol], length 536: HTTP
7.813985 IP 10.1.2.4.49153 > 10.1.3.4.8080: Flags [.], seq 55208:55744, ack 1, win 32768, options [TS val 7762 ecr 7711,eol], length 536: HTTP
8.316568 IP 10.1.2.4.49153 > 10.1.3.4.8080: Flags [.], seq 55208:55744, ack 1, win 32768, options [TS val 8265 ecr 8215,eol], length 536: HTTP
9.925980 unknown PPP protocol (0x0000) 
	0x0000:  0000 000a 0000 0000 0007 0800 4500 024c
	0x0010:  00ae 0000 3e06 0000 0a01 0204 0a01 0304
	0x0020:  c001 1f90 0001 4181 0000 0001 8010 8000
	0x0030:  0000 0000 080a 0000 2691 0000 265f 0000
	0x0040:  0000 0000 0000 0000 0000 0000 0000 0000
	0x0050:  0000 0000 0000 0000 0000 0000 0000 0000
	0x0060:  0000 0000 0000 0000 0000 0000 0000 0000
	0x0070:  0000 0000 0000 0000 0000 0000 0000 0000
	0x0080:  0000 0000 0000 0000 0000 0000 0000 0000
	0x0090:  0000 0000 0000 0000 0000 0000 0000 0000
	0x00a0:  0000 0000 0000 0000 0000 0000 0000 0000
	0x00b0:  0000 0000 0000 0000 0000 0000 0000 0000
	0x00c0:  0000 0000 0000 0000 0000 0000 0000 0000
	0x00d0:  0000 0000 0000 0000 0000 0000 0000 0000
	0x00e0:  0000 0000 0000 0000 0000 0000 0000 0000
	0x00f0:  0000 0000 0000 0000 0000 0000 0000 0000
	0x0100:  0000 0000 0000 0000 0000 0000 0000 0000
	0x0110:  0000 0000 0000 0000 0000 0000 0000 0000
	0x0120:  0000 0000 0000 0000 0000 0000 0000 0000
	0x0130:  0000 0000 0000 0000 0000 0000 0000 0000
	0x0140:  0000 0000 0000 0000 0000 0000 0000 0000
	0x0150:  0000 0000 0000 0000 0000 0000 0000 0000
	0x0160:  0000 0000 0000 0000 0000 0000 0000 0000
	0x0170:  0000 0000 0000 0000 0000 0000 0000 0000
	0x0180:  0000 0000 0000 0000 0000 0000 0000 0000
	0x0190:  0000 0000 0000 0000 0000 0000 0000 0000
	0x01a0:  0000 0000 0000 0000 0000 0000 0000 0000
	0x01b0:  0000 0000 0000 0000 0000 0000 0000 0000
	0x01c0:  0000 0000 0000 0000 0000 0000 0000 0000
	0x01d0:  0000 0000 0000 0000 0000 0000 0000 0000
	0x01e0:  0000 0000 0000 0000 0000 0000 0000 0000
	0x01f0:  0000 0000 0000 0000 0000 0000 0000 0000
	0x0200:  0000 0000 0000 0000 0000 0000 0000 0000
	0x0210:  0000 0000 0000 0000 0000 0000 0000 0000
	0x0220:  0000 0000 0000 0000 0000 0000 0000 0000
	0x0230:  0000 0000 0000 0000 0000 0000 0000 0000
	0x0240:  0000 0000 0000 0000 0000 0000 0000 0000
	0x0250:  0000 0000 0000 0000 0000 0000
10.736232 IP 10.1.2.4.49153 > 10.1.3.4.8080: Flags [.], seq 75576:76112, ack 1, win 32768, options [TS val 10685 ecr 10635,eol], length 536: HTTP
10.839301 IP 10.1.2.4.49153 > 10.1.3.4.8080: Flags [.], seq 77184:77720, ack 1, win 32768, options [TS val 10787 ecr 10737,eol], length 536: HTTP
11.344330 unknown PPP protocol (0x0000) 
	0x0000:  0000 000a 0000 0000 0007 0800 4500 024c
	0x0010:  00c5 0000 3e06 0000 0a01 0204 0a01 0304
	0x0020:  c001 1f90 0001 6519 0000 0001 8010 8000
	0x0030:  0000 0000 080a 0000 2c1d 0000 2beb 0000
	0x0040:  0000 0000 0000 0000 0000 0000 0000 0000
	0x0050:  0000 0000 0000 0000 0000 0000 0000 0000
	0x0060:  0000 0000 0000 0000 0000 0000 0000 0000
	0x0070:  0000 0000 0000 0000 0000 0000 0000 0000
	0x0080:  0000 0000 0000 0000 0000 0000 0000 0000
	0x0090:  0000 0000 0000 0000 0000 0000 0000 0000
	0x00a0:  0000 0000 0000 0000 0000 0000 0000 0000
	0x00b0:  0000 0000 0000 0000 0000 0000 0000 0000
	0x00c0:  0000 0000 0000 0000 0000 0000 0000 0000
	0x00d0:  0000 0000 0000 0000 0000 0000 0000 0000
	0x00e0:  0000 0000 0000 0000 0000 0000 0000 0000
	0x00f0:  0000 0000 0000 0000 0000 0000 0000 0000
	0x0100:  0000 0000 0000 0000 0000 0000 0000 0000
	0x0110:  0000 0000 0000 0000 0000 0000 0000 0000
	0x0120:  0000 0000 0000 0000 0000 0000 0000 0000
	0x0130:  0000 0000 0000 0000 0000 0000 0000 0000
	0x0140:  0000 0000 0000 0000 0000 0000 0000 0000
	0x0150:  0000 0000 0000 0000 0000 0000 0000 0000
	0x0160:  0000 0000 0000 0000 0000 0000 0000 0000
	0x0170:  0000 0000 0000 0000 0000 0000 0000 0000
	0x0180:  0000 0000 0000 0000 0000 0000 0000 0000
	0x0190:  0000 0000 0000 0000 0000 0000 0000 0000
	0x01a0:  0000 0000 0000 0000 0000 0000 0000 0000
	0x01b0:  0000 0000 0000 0000 0000 0000 0000 0000
	0x01c0:  0000 0000 0000 0000 0000 0000 0000 0000
	0x01d0:  0000 0000 0000 0000 0000 0000 0000 0000
	0x01e0:  0000 0000 0000 0000 0000 0000 0000 0000
	0x01f0:  0000 0000 0000 0000 0000 0000 0000 0000
	0x0200:  0000 0000 0000 0000 0000 0000 0000 0000
	0x0210:  0000 0000 0000 0000 0000 0000 0000 0000
	0x0220:  0000 0000 0000 0000 0000 0000 0000 0000
	0x0230:  0000 0000 0000 0000 0000 0000 0000 0000
	0x0240:  0000 0000 0000 0000 0000 0000 0000 0000
	0x0250:  0000 0000 0000 0000 0000 0000
12.243134 unknown PPP protocol (0x0000) 
	0x0000:  0000 000a 0000 0000 0007 0800 4500 024c
	0x0010:  00c7 0000 3e06 0000 0a01 0204 0a01 0304
	0x0020:  c001 1f90 0001 6d79 0000 0001 8010 8000
	0x0030:  0000 0000 080a 0000 2fa0 0000 2f6d 0000
	0x0040:  0000 0000 0000 0000 0000 0000 0000 0000
	0x0050:  0000 0000 0000 0000 0000 0000 0000 0000
	0x0060:  0000 0000 0000 0000 0000 0000 0000 0000
	0x0070:  0000 0000 0000 0000 0000 0000 0000 0000
	0x0080:  0000 0000 0000 0000 0000 0000 0000 0000
	0x0090:  0000 0000 0000 0000 0000 0000 0000 0000
	0x00a0:  0000 0000 0000 0000 0000 0000 0000 0000
	0x00b0:  0000 0000 0000 0000 0000 0000 0000 0000
	0x00c0:  0000 0000 0000 0000 0000 0000 0000 0000
	0x00d0:  0000 0000 0000 0000 0000 0000 0000 0000
	0x00e0:  0000 0000 0000 0000 0000 0000 0000 0000
	0x00f0:  0000 0000 0000 0000 0000 0000 0000 0000
	0x0100:  0000 0000 0000 0000 0000 0000 0000 0000
	0x0110:  0000 0000 0000 0000 0000 0000 0000 0000
	0x0120:  0000 0000 0000 0000 0000 0000 0000 0000
	0x0130:  0000 0000 0000 0000 0000 0000 0000 0000
	0x0140:  0000 0000 0000 0000 0000 0000 0000 0000
	0x0150:  0000 0000 0000 0000 0000 0000 0000 0000
	0x0160:  0000 0000 0000 0000 0000 0000 0000 0000
	0x0170:  0000 0000 0000 0000 0000 0000 0000 0000
	0x0180:  0000 0000 0000 0000 0000 0000 0000 0000
	0x0190:  0000 0000 0000 0000 0000 0000 0000 0000
	0x01a0:  0000 0000 0000 0000 0000 0000 0000 0000
	0x01b0:  0000 0000 0000 0000 0000 0000 0000 0000
	0x01c0:  0000 0000 0000 0000 0000 0000 0000 0000
	0x01d0:  0000 0000 0000 0000 0000 0000 0000 0000
	0x01e0:  0000 0000 0000 0000 0000 0000 0000 0000
	0x01f0:  0000 0000 0000 0000 0000 0000 0000 0000
	0x0200:  0000 0000 0000 0000 0000 0000 0000 0000
	0x0210:  0000 0000 0000 0000 0000 0000 0000 0000
	0x0220:  0000 0000 0000 0000 0000 0000 0000 0000
	0x0230:  0000 0000 0000 0000 0000 0000 0000 0000
	0x0240:  0000 0000 0000 0000 0000 0000 0000 0000
	0x0250:  0000 0000 0000 0000 0000 0000
13.243078 IP 10.1.2.4.49153 > 10.1.3.4.8080: Flags [.], seq 79328:79864, ack 1, win 32768, options [TS val 13192 ecr 12141,eol], length 536: HTTP
16.763463 IP 10.1.2.4.49153 > 10.1.3.4.8080: Flags [.], seq 94336:94872, ack 1, win 32768, options [TS val 16710 ecr 16660,eol], length 536: HTTP
17.372421 unknown PPP protocol (0x0000) 
	0x0000:  0000 000a 0000 0000 0007 0800 4500 024c
	0x0010:  00f5 0000 3e06 0000 0a01 0204 0a01 0304
	0x0020:  c001 1f90 0001 c781 0000 0001 8010 8000
	0x0030:  0000 0000 080a 0000 43a8 0000 4376 0000
	0x0040:  0000 0000 0000 0000 0000 0000 0000 0000
	0x0050:  0000 0000 0000 0000 0000 0000 0000 0000
	0x0060:  0000 0000 0000 0000 0000 0000 0000 0000
	0x0070:  0000 0000 0000 0000 0000 0000 0000 0000
	0x0080:  0000 0000 0000 0000 0000 0000 0000 0000
	0x0090:  0000 0000 0000 0000 0000 0000 0000 0000
	0x00a0:  0000 0000 0000 0000 0000 0000 0000 0000
	0x00b0:  0000 0000 0000 0000 0000 0000 0000 0000
	0x00c0:  0000 0000 0000 0000 0000 0000 0000 0000
	0x00d0:  0000 0000 0000 0000 0000 0000 0000 0000
	0x00e0:  0000 0000 0000 0000 0000 0000 0000 0000
	0x00f0:  0000 0000 0000 0000 0000 0000 0000 0000
	0x0100:  0000 0000 0000 0000 0000 0000 0000 0000
	0x0110:  0000 0000 0000 0000 0000 0000 0000 0000
	0x0120:  0000 0000 0000 0000 0000 0000 0000 0000
	0x0130:  0000 0000 0000 0000 0000 0000 0000 0000
	0x0140:  0000 0000 0000 0000 0000 0000 0000 0000
	0x0150:  0000 0000 0000 0000 0000 0000 0000 0000
	0x0160:  0000 0000 0000 0000 0000 0000 0000 0000
	0x0170:  0000 0000 0000 0000 0000 0000 0000 0000
	0x0180:  0000 0000 0000 0000 0000 0000 0000 0000
	0x0190:  0000 0000 0000 0000 0000 0000 0000 0000
	0x01a0:  0000 0000 0000 0000 0000 0000 0000 0000
	0x01b0:  0000 0000 0000 0000 0000 0000 0000 0000
	0x01c0:  0000 0000 0000 0000 0000 0000 0000 0000
	0x01d0:  0000 0000 0000 0000 0000 0000 0000 0000
	0x01e0:  0000 0000 0000 0000 0000 0000 0000 0000
	0x01f0:  0000 0000 0000 0000 0000 0000 0000 0000
	0x0200:  0000 0000 0000 0000 0000 0000 0000 0000
	0x0210:  0000 0000 0000 0000 0000 0000 0000 0000
	0x0220:  0000 0000 0000 0000 0000 0000 0000 0000
	0x0230:  0000 0000 0000 0000 0000 0000 0000 0000
	0x0240:  0000 0000 0000 0000 0000 0000 0000 0000
	0x0250:  0000 0000 0000 0000 0000 0000
18.693282 unknown PPP protocol (0x0000) 
	0x0000:  0000 000a 0000 0000 0007 0800 4500 024c
	0x0010:  0118 0000 3e06 0000 0a01 0204 0a01 0304
	0x0020:  c001 1f90 0002 0eb1 0000 0001 8010 8000
	0x0030:  0000 0000 080a 0000 48d2 0000 48a0 0000
	0x0040:  0000 0000 0000 0000 0000 0000 0000 0000
	0x0050:  0000 0000 0000 0000 0000 0000 0000 0000
	0x0060:  0000 0000 0000 0000 0000 0000 0000 0000
	0x0070:  0000 0000 0000 0000 0000 0000 0000 0000
	0x0080:  0000 0000 0000 0000 0000 0000 0000 0000
	0x0090:  0000 0000 0000 0000 0000 0000 0000 0000
	0x00a0:  0000 0000 0000 0000 0000 0000 0000 0000
	0x00b0:  0000 0000 0000 0000 0000 0000 0000 0000
	0x00c0:  0000 0000 0000 0000 0000 0000 0000 0000
	0x00d0:  0000 0000 0000 0000 0000 0000 0000 0000
	0x00e0:  0000 0000 0000 0000 0000 0000 0000 0000
	0x00f0:  0000 0000 0000 0000 0000 0000 0000 0000
	0x0100:  0000 0000 0000 0000 0000 0000 0000 0000
	0x0110:  0000 0000 0000 0000 0000 0000 0000 0000
	0x0120:  0000 0000 0000 0000 0000 0000 0000 0000
	0x0130:  0000 0000 0000 0000 0000 0000 0000 0000
	0x0140:  0000 0000 0000 0000 0000 0000 0000 0000
	0x0150:  0000 0000 0000 0000 0000 0000 0000 0000
	0x0160:  0000 0000 0000 0000 0000 0000 0000 0000
	0x0170:  0000 0000 0000 0000 0000 0000 0000 0000
	0x0180:  0000 0000 0000 0000 0000 0000 0000 0000
	0x0190:  0000 0000 0000 0000 0000 0000 0000 0000
	0x01a0:  0000 0000 0000 0000 0000 0000 0000 0000
	0x01b0:  0000 0000 0000 0000 0000 0000 0000 0000
	0x01c0:  0000 0000 0000 0000 0000 0000 0000 0000
	0x01d0:  0000 0000 0000 0000 0000 0000 0000 0000
	0x01e0:  0000 0000 0000 0000 0000 0000 0000 0000
	0x01f0:  0000 0000 0000 0000 0000 0000 0000 0000
	0x0200:  0000 0000 0000 0000 0000 0000 0000 0000
	0x0210:  0000 0000 0000 0000 0000 0000 0000 0000
	0x0220:  0000 0000 0000 0000 0000 0000 0000 0000
	0x0230:  0000 0000 0000 0000 0000 0000 0000 0000
	0x0240:  0000 0000 0000 0000 0000 0000 0000 0000
	0x0250:  0000 0000 0000 0000 0000 0000
18.792505 IP 10.1.2.4.49153 > 10.1.3.4.8080: Flags [.], seq 121672:122208, ack 1, win 32768, options [TS val 18741 ecr 18691,eol], length 536: HTTP
19.707783 IP 10.1.2.4.49153 > 10.1.3.4.8080: Flags [.], seq 132928:133464, ack 1, win 32768, options [TS val 19656 ecr 19606,eol], length 536: HTTP
20.926533 IP 10.1.2.4.49153 > 10.1.3.4.8080: Flags [.], seq 150616:151152, ack 1, win 32768, options [TS val 20875 ecr 20825,eol], length 536: HTTP
22.047892 IP 10.1.2.4.49153 > 10.1.3.4.8080: Flags [.], seq 168840:169376, ack 1, win 32768, options [TS val 21996 ecr 21946,eol], length 536: HTTP
22.457307 IP 10.1.2.4.49153 > 10.1.3.4.8080: Flags [.], seq 174736:175272, ack 1, win 32768, options [TS val 22406 ecr 22356,eol], length 536: HTTP
22.862946 IP 10.1.2.4.49153 > 10.1.3.4.8080: Flags [.], seq 178488:179024, ack 1, win 32768, options [TS val 22811 ecr 22761,eol], length 536: HTTP
23.268600 IP 10.1.2.4.49153 > 10.1.3.4.8080: Flags [.], seq 180632:181168, ack 1, win 32768, options [TS val 23217 ecr 23167,eol], length 536: HTTP
24.284141 unknown PPP protocol (0x0000) 
	0x0000:  0000 000a 0000 0000 0007 0800 4500 024c
	0x0010:  01a2 0000 3e06 0000 0a01 0204 0a01 0304
	0x0020:  c001 1f90 0003 1ee1 0000 0001 8010 8000
	0x0030:  0000 0000 080a 0000 5ea9 0000 5e76 0000
	0x0040:  0000 0000 0000 0000 0000 0000 0000 0000
	0x0050:  0000 0000 0000 0000 0000 0000 0000 0000
	0x0060:  0000 0000 0000 0000 0000 0000 0000 0000
	0x0070:  0000 0000 0000 0000 0000 0000 0000 0000
	0x0080:  0000 0000 0000 0000 0000 0000 0000 0000
	0x0090:  0000 0000 0000 0000 0000 0000 0000 0000
	0x00a0:  0000 0000 0000 0000 0000 0000 0000 0000
	0x00b0:  0000 0000 0000 0000 0000 0000 0000 0000
	0x00c0:  0000 0000 0000 0000 0000 0000 0000 0000
	0x00d0:  0000 0000 0000 0000 0000 0000 0000 0000
	0x00e0:  0000 0000 0000 0000 0000 0000 0000 0000
	0x00f0:  0000 0000 0000 0000 0000 0000 0000 0000
	0x0100:  0000 0000 0000 0000 0000 0000 0000 0000
	0x0110:  0000 0000 0000 0000 0000 0000 0000 0000
	0x0120:  0000 0000 0000 0000 0000 0000 0000 0000
	0x0130:  0000 0000 0000 0000 0000 0000 0000 0000
	0x0140:  0000 0000 0000 0000 0000 0000 0000 0000
	0x0150:  0000 0000 0000 0000 0000 0000 0000 0000
	0x0160:  0000 0000 0000 0000 0000 0000 0000 0000
	0x0170:  0000 0000 0000 0000 0000 0000 0000 0000
	0x0180:  0000 0000 0000 0000 0000 0000 0000 0000
	0x0190:  0000 0000 0000 0000 0000 0000 0000 0000
	0x01a0:  0000 0000 0000 0000 0000 0000 0000 0000
	0x01b0:  0000 0000 0000 0000 0000 0000 0000 0000
	0x01c0:  0000 0000 0000 0000 0000 0000 0000 0000
	0x01d0:  0000 0000 0000 0000 0000 0000 0000 0000
	0x01e0:  0000 0000 0000 0000 0000 0000 0000 0000
	0x01f0:  0000 0000 0000 0000 0000 0000 0000 0000
	0x0200:  0000 0000 0000 0000 0000 0000 0000 0000
	0x0210:  0000 0000 0000 0000 0000 0000 0000 0000
	0x0220:  0000 0000 0000 0000 0000 0000 0000 0000
	0x0230:  0000 0000 0000 0000 0000 0000 0000 0000
	0x0240:  0000 0000 0000 0000 0000 0000 0000 0000
	0x0250:  0000 0000 0000 0000 0000 0000
24.692557 IP 10.1.2.4.49153 > 10.1.3.4.8080: Flags [.], seq 195640:196176, ack 1, win 32768, options [TS val 24641 ecr 24591,eol], length 536: HTTP
26.220472 IP 10.1.2.4.49153 > 10.1.3.4.8080: Flags [.], seq 222976:223512, ack 1, win 32768, options [TS val 26169 ecr 26119,eol], length 536: HTTP
26.321638 IP 10.1.2.4.49153 > 10.1.3.4.8080: Flags [.], seq 226192:226728, ack 1, win 32768, options [TS val 26269 ecr 26219,eol], length 536: HTTP
26.927792 unknown PPP protocol (0x0000) 
	0x0000:  0000 000a 0000 0000 0007 0800 4500 024c
	0x0010:  01f2 0000 3e06 0000 0a01 0204 0a01 0304
	0x0020:  c001 1f90 0003 be01 0000 0001 8010 8000
	0x0030:  0000 0000 080a 0000 68fc 0000 68ca 0000
	0x0040:  0000 0000 0000 0000 0000 0000 0000 0000
	0x0050:  0000 0000 0000 0000 0000 0000 0000 0000
	0x0060:  0000 0000 0000 0000 0000 0000 0000 0000
	0x0070:  0000 0000 0000 0000 0000 0000 0000 0000
	0x0080:  0000 0000 0000 0000 0000 0000 0000 0000
	0x0090:  0000 0000 0000 0000 0000 0000 0000 0000
	0x00a0:  0000 0000 0000 0000 0000 0000 0000 0000
	0x00b0:  0000 0000 0000 0000 0000 0000 0000 0000
	0x00c0:  0000 0000 0000 0000 0000 0000 0000 0000
	0x00d0:  0000 0000 0000 0000 0000 0000 0000 0000
	0x00e0:  0000 0000 0000 0000 0000 0000 0000 0000
	0x00f0:  0000 0000 0000 0000 0000 0000 0000 0000
	0x0100:  0000 0000 0000 0000 0000 0000 0000 0000
	0x0110:  0000 0000 0000 0000 0000 0000 0000 0000
	0x0120:  0000 0000 0000 0000 0000 0000 0000 0000
	0x0130:  0000 0000 0000 0000 0000 0000 0000 0000
	0x0140:  0000 0000 0000 0000 0000 0000 0000 0000
	0x0150:  0000 0000 0000 0000 0000 0000 0000 0000
	0x0160:  0000 0000 0000 0000 0000 0000 0000 0000
	0x0170:  0000 0000 0000 0000 0000 0000 0000 0000
	0x0180:  0000 0000 0000 0000 0000 0000 0000 0000
	0x0190:  0000 0000 0000 0000 0000 0000 0000 0000
	0x01a0:  0000 0000 0000 0000 0000 0000 0000 0000
	0x01b0:  0000 0000 0000 0000 0000 0000 0000 0000
	0x01c0:  0000 0000 0000 0000 0000 0000 0000 0000
	0x01d0:  0000 0000 0000 0000 0000 0000 0000 0000
	0x01e0:  0000 0000 0000 0000 0000 0000 0000 0000
	0x01f0:  0000 0000 0000 0000 0000 0000 0000 0000
	0x0200:  0000 0000 0000 0000 0000 0000 0000 0000
	0x0210:  0000 0000 0000 0000 0000 0000 0000 0000
	0x0220:  0000 0000 0000 0000 0000 0000 0000 0000
	0x0230:  0000 0000 0000 0000 0000 0000 0000 0000
	0x0240:  0000 0000 0000 0000 0000 0000 0000 0000
	0x0250:  0000 0000 0000 0000 0000 0000
26.928681 IP 10.1.2.4.49153 > 10.1.3.4.8080: Flags [.], seq 231552:232088, ack 1, win 32768, options [TS val 26876 ecr 26826,eol], length 536: HTTP
28.960178 unknown PPP protocol (0x0000) 
	0x0000:  0000 000a 0000 0000 0007 0800 4500 024c
	0x0010:  022e 0000 3e06 0000 0a01 0204 0a01 0304
	0x0020:  c001 1f90 0004 3771 0000 0001 8010 8000
	0x0030:  0000 0000 080a 0000 70ed 0000 70bb 0000
	0x0040:  0000 0000 0000 0000 0000 0000 0000 0000
	0x0050:  0000 0000 0000 0000 0000 0000 0000 0000
	0x0060:  0000 0000 0000 0000 0000 0000 0000 0000
	0x0070:  0000 0000 0000 0000 0000 0000 0000 0000
	0x0080:  0000 0000 0000 0000 0000 0000 0000 0000
	0x0090:  0000 0000 0000 0000 0000 0000 0000 0000
	0x00a0:  0000 0000 0000 0000 0000 0000 0000 0000
	0x00b0:  0000 0000 0000 0000 0000 0000 0000 0000
	0x00c0:  0000 0000 0000 0000 0000 0000 0000 0000
	0x00d0:  0000 0000 0000 0000 0000 0000 0000 0000
	0x00e0:  0000 0000 0000 0000 0000 0000 0000 0000
	0x00f0:  0000 0000 0000 0000 0000 0000 0000 0000
	0x0100:  0000 0000 0000 0000 0000 0000 0000 0000
	0x0110:  0000 0000 0000 0000 0000 0000 0000 0000
	0x0120:  0000 0000 0000 0000 0000 0000 0000 0000
	0x0130:  0000 0000 0000 0000 0000 0000 0000 0000
	0x0140:  0000 0000 0000 0000 0000 0000 0000 0000
	0x0150:  0000 0000 0000 0000 0000 0000 0000 0000
	0x0160:  0000 0000 0000 0000 0000 0000 0000 0000
	0x0170:  0000 0000 0000 0000 0000 0000 0000 0000
	0x0180:  0000 0000 0000 0000 0000 0000 0000 0000
	0x0190:  0000 0000 0000 0000 0000 0000 0000 0000
	0x01a0:  0000 0000 0000 0000 0000 0000 0000 0000
	0x01b0:  0000 0000 0000 0000 0000 0000 0000 0000
	0x01c0:  0000 0000 0000 0000 0000 0000 0000 0000
	0x01d0:  0000 0000 0000 0000 0000 0000 0000 0000
	0x01e0:  0000 0000 0000 0000 0000 0000 0000 0000
	0x01f0:  0000 0000 0000 0000 0000 0000 0000 0000
	0x0200:  0000 0000 0000 0000 0000 0000 0000 0000
	0x0210:  0000 0000 0000 0000 0000 0000 0000 0000
	0x0220:  0000 0000 0000 0000 0000 0000 0000 0000
	0x0230:  0000 0000 0000 0000 0000 0000 0000 0000
	0x0240:  0000 0000 0000 0000 0000 0000 0000 0000
	0x0250:  0000 0000 0000 0000 0000 0000
30.279151 unknown PPP protocol (0x0000) 
	0x0000:  0000 000a 0000 0000 0007 0800 4500 024c
	0x0010:  025d 0000 3e06 0000 0a01 0204 0a01 0304
	0x0020:  c001 1f90 0004 97c1 0000 0001 8010 8000
	0x0030:  0000 0000 080a 0000 7613 0000 75e1 0000
	0x0040:  0000 0000 0000 0000 0000 0000 0000 0000
	0x0050:  0000 0000 0000 0000 0000 0000 0000 0000
	0x0060:  0000 0000 0000 0000 0000 0000 0000 0000
	0x0070:  0000 0000 0000 0000 0000 0000 0000 0000
	0x0080:  0000 0000 0000 0000 0000 0000 0000 0000
	0x0090:  0000 0000 0000 0000 0000 0000 0000 0000
	0x00a0:  0000 0000 0000 0000 0000 0000 0000 0000
	0x00b0:  0000 0000 0000 0000 0000 0000 0000 0000
	0x00c0:  0000 0000 0000 0000 0000 0000 0000 0000
	0x00d0:  0000 0000 0000 0000 0000 0000 0000 0000
	0x00e0:  0000 0000 0000 0000 0000 0000 0000 0000
	0x00f0:  0000 0000 0000 0000 0000 0000 0000 0000
	0x0100:  0000 0000 0000 0000 0000 0000 0000 0000
	0x0110:  0000 0000 0000 0000 0000 0000 0000 0000
	0x0120:  0000 0000 0000 0000 0000 0000 0000 0000
	0x0130:  0000 0000 0000 0000 0000 0000 0000 0000
	0x0140:  0000 0000 0000 0000 0000 0000 0000 0000
	0x0150:  0000 0000 0000 0000 0000 0000 0000 0000
	0x0160:  0000 0000 0000 0000 0000 0000 0000 0000
	0x0170:  0000 0000 0000 0000 0000 0000 0000 0000
	0x0180:  0000 0000 0000 0000 0000 0000 0000 0000
	0x0190:  0000 0000 0000 0000 0000 0000 0000 0000
	0x01a0:  0000 0000 0000 0000 0000 0000 0000 0000
	0x01b0:  0000 0000 0000 0000 0000 0000 0000 0000
	0x01c0:  0000 0000 0000 0000 0000 0000 0000 0000
	0x01d0:  0000 0000 0000 0000 0000 0000 0000 0000
	0x01e0:  0000 0000 0000 0000 0000 0000 0000 0000
	0x01f0:  0000 0000 0000 0000 0000 0000 0000 0000
	0x0200:  0000 0000 0000 0000 0000 0000 0000 0000
	0x0210:  0000 0000 0000 0000 0000 0000 0000 0000
	0x0220:  0000 0000 0000 0000 0000 0000 0000 0000
	0x0230:  0000 0000 0000 0000 0000 0000 0000 0000
	0x0240:  0000 0000 0000 0000 0000 0000 0000 0000
	0x0250:  0000 0000 0000 0000 0000 0000
30.378375 IP 10.1.2.4.49153 > 10.1.3.4.8080: Flags [.], seq 288368:288904, ack 1, win 32768, options [TS val 30327 ecr 30277,eol], length 536: HTTP
30.382165 IP 10.1.2.4.49153 > 10.1.3.4.8080: Flags [.], seq 289976:290512, ack 1, win 32768, options [TS val 30330 ecr 30280,eol], length 536: HTTP
31.191583 IP 10.1.2.4.49153 > 10.1.3.4.8080: Flags [.], seq 294800:295336, ack 1, win 32768, options [TS val 31139 ecr 31089,eol], length 536: HTTP
31.802458 unknown PPP protocol (0x0000) 
	0x0000:  0000 000a 0000 0000 0007 0800 4500 024c
	0x0010:  027c 0000 3e06 0000 0a01 0204 0a01 0304
	0x0020:  c001 1f90 0004 d049 0000 0001 8010 8000
	0x0030:  0000 0000 080a 0000 7c07 0000 7bd5 0000
	0x0040:  0000 0000 0000 0000 0000 0000 0000 0000
	0x0050:  0000 0000 0000 0000 0000 0000 0000 0000
	0x0060:  0000 0000 0000 0000 0000 0000 0000 0000
	0x0070:  0000 0000 0000 0000 0000 0000 0000 0000
	0x0080:  0000 0000 0000 0000 0000 0000 0000 0000
	0x0090:  0000 0000 0000 0000 0000 0000 0000 0000
	0x00a0:  0000 0000 0000 0000 0000 0000 0000 0000
	0x00b0:  0000 0000 0000 0000 0000 0000 0000 0000
	0x00c0:  0000 0000 0000 0000 0000 0000 0000 0000
	0x00d0:  0000 0000 0000 0000 0000 0000 0000 0000
	0x00e0:  0000 0000 0000 0000 0000 0000 0000 0000
	0x00f0:  0000 0000 0000 0000 0000 0000 0000 0000
	0x0100:  0000 0000 0000 0000 0000 0000 0000 0000
	0x0110:  0000 0000 0000 0000 0000 0000 0000 0000
	0x0120:  0000 0000 0000 0000 0000 0000 0000 0000
	0x0130:  0000 0000 0000 0000 0000 0000 0000 0000
	0x0140:  0000 0000 0000 0000 0000 0000 0000 0000
	0x0150:  0000 0000 0000 0000 0000 0000 0000 0000
	0x0160:  0000 0000 0000 0000 0000 0000 0000 0000
	0x0170:  0000 0000 0000 0000 0000 0000 0000 0000
	0x0180:  0000 0000 0000 0000 0000 0000 0000 0000
	0x0190:  0000 0000 0000 0000 0000 0000 0000 0000
	0x01a0:  0000 0000 0000 0000 0000 0000 0000 0000
	0x01b0:  0000 0000 0000 0000 0000 0000 0000 0000
	0x01c0:  0000 0000 0000 0000 0000 0000 0000 0000
	0x01d0:  0000 0000 0000 0000 0000 0000 0000 0000
	0x01e0:  0000 0000 0000 0000 0000 0000 0000 0000
	0x01f0:  0000 0000 0000 0000 0000 0000 0000 0000
	0x0200:  0000 0000 0000 0000 0000 0000 0000 0000
	0x0210:  0000 0000 0000 0000 0000 0000 0000 0000
	0x0220:  0000 0000 0000 0000 0000 0000 0000 0000
	0x0230:  0000 0000 0000 0000 0000 0000 0000 0000
	0x0240:  0000 0000 0000 0000 0000 0000 0000 0000
	0x0250:  0000 0000 0000 0000 0000 0000
32.006652 IP 10.1.2.4.49153 > 10.1.3.4.8080: Flags [.], seq 301232:301768, ack 1, win 32768, options [TS val 31955 ecr 31905,eol], length 536: HTTP
32.713974 IP 10.1.2.4.49153 > 10.1.3.4.8080: Flags [.], seq 307128:307664, ack 1, win 32768, options [TS val 32662 ecr 32612,eol], length 536: HTTP
33.922788 IP 10.1.2.4.49153 > 10.1.3.4.8080: Flags [.], seq 324816:325352, ack 1, win 32768, options [TS val 33871 ecr 33821,eol], length 536: HTTP
34.023011 IP 10.1.2.4.49153 > 10.1.3.4.8080: Flags [.], seq 326960:327496, ack 1, win 32768, options [TS val 33971 ecr 33920,eol], length 536: HTTP
34.535550 unknown PPP protocol (0x0000) 
	0x0000:  0000 000a 0000 0000 0007 0800 4500 024c
	0x0010:  02bd 0000 3e06 0000 0a01 0204 0a01 0304
	0x0020:  c001 1f90 0005 4de9 0000 0001 8010 8000
	0x0030:  0000 0000 080a 0000 86b3 0000 8681 0000
	0x0040:  0000 0000 0000 0000 0000 0000 0000 0000
	0x0050:  0000 0000 0000 0000 0000 0000 0000 0000
	0x0060:  0000 0000 0000 0000 0000 0000 0000 0000
	0x0070:  0000 0000 0000 0000 0000 0000 0000 0000
	0x0080:  0000 0000 0000 0000 0000 0000 0000 0000
	0x0090:  0000 0000 0000 0000 0000 0000 0000 0000
	0x00a0:  0000 0000 0000 0000 0000 0000 0000 0000
	0x00b0:  0000 0000 0000 0000 0000 0000 0000 0000
	0x00c0:  0000 0000 0000 0000 0000 0000 0000 0000
	0x00d0:  0000 0000 0000 0000 0000 0000 0000 0000
	0x00e0:  0000 0000 0000 0000 0000 0000 0000 0000
	0x00f0:  0000 0000 0000 0000 0000 0000 0000 0000
	0x0100:  0000 0000 0000 0000 0000 0000 0000 0000
	0x0110:  0000 0000 0000 0000 0000 0000 0000 0000
	0x0120:  0000 0000 0000 0000 0000 0000 0000 0000
	0x0130:  0000 0000 0000 0000 0000 0000 0000 0000
	0x0140:  0000 0000 0000 0000 0000 0000 0000 0000
	0x0150:  0000 0000 0000 0000 0000 0000 0000 0000
	0x0160:  0000 0000 0000 0000 0000 0000 0000 0000
	0x0170:  0000 0000 0000 0000 0000 0000 0000 0000
	0x0180:  0000 0000 0000 0000 0000 0000 0000 0000
	0x0190:  0000 0000 0000 0000 0000 0000 0000 0000
	0x01a0:  0000 0000 0000 0000 0000 0000 0000 0000
	0x01b0:  0000 0000 0000 0000 0000 0000 0000 0000
	0x01c0:  0000 0000 0000 0000 0000 0000 0000 0000
	0x01d0:  0000 0000 0000 0000 0000 0000 0000 0000
	0x01e0:  0000 0000 0000 0000 0000 0000 0000 0000
	0x01f0:  0000 0000 0000 0000 0000 0000 0000 0000
	0x0200:  0000 0000 0000 0000 0000 0000 0000 0000
	0x0210:  0000 0000 0000 0000 0000 0000 0000 0000
	0x0220:  0000 0000 0000 0000 0000 0000 0000 0000
	0x0230:  0000 0000 0000 0000 0000 0000 0000 0000
	0x0240:  0000 0000 0000 0000 0000 0000 0000 0000
	0x0250:  0000 0000 0000 0000 0000 0000
35.244690 unknown PPP protocol (0x0000) 
	0x0000:  0000 000a 0000 0000 0007 0800 4500 024c
	0x0010:  02ca 0000 3e06 0000 0a01 0204 0a01 0304
	0x0020:  c001 1f90 0005 6709 0000 0001 8010 8000
	0x0030:  0000 0000 080a 0000 8979 0000 8947 0000
	0x0040:  0000 0000 0000 0000 0000 0000 0000 0000
	0x0050:  0000 0000 0000 0000 0000 0000 0000 0000
	0x0060:  0000 0000 0000 0000 0000 0000 0000 0000
	0x0070:  0000 0000 0000 0000 0000 0000 0000 0000
	0x0080:  0000 0000 0000 0000 0000 0000 0000 0000
	0x0090:  0000 0000 0000 0000 0000 0000 0000 0000
	0x00a0:  0000 0000 0000 0000 0000 0000 0000 0000
	0x00b0:  0000 0000 0000 0000 0000 0000 0000 0000
	0x00c0:  0000 0000 0000 0000 0000 0000 0000 0000
	0x00d0:  0000 0000 0000 0000 0000 0000 0000 0000
	0x00e0:  0000 0000 0000 0000 0000 0000 0000 0000
	0x00f0:  0000 0000 0000 0000 0000 0000 0000 0000
	0x0100:  0000 0000 0000 0000 0000 0000 0000 0000
	0x0110:  0000 0000 0000 0000 0000 0000 0000 0000
	0x0120:  0000 0000 0000 0000 0000 0000 0000 0000
	0x0130:  0000 0000 0000 0000 0000 0000 0000 0000
	0x0140:  0000 0000 0000 0000 0000 0000 0000 0000
	0x0150:  0000 0000 0000 0000 0000 0000 0000 0000
	0x0160:  0000 0000 0000 0000 0000 0000 0000 0000
	0x0170:  0000 0000 0000 0000 0000 0000 0000 0000
	0x0180:  0000 0000 0000 0000 0000 0000 0000 0000
	0x0190:  0000 0000 0000 0000 0000 0000 0000 0000
	0x01a0:  0000 0000 0000 0000 0000 0000 0000 0000
	0x01b0:  0000 0000 0000 0000 0000 0000 0000 0000
	0x01c0:  0000 0000 0000 0000 0000 0000 0000 0000
	0x01d0:  0000 0000 0000 0000 0000 0000 0000 0000
	0x01e0:  0000 0000 0000 0000 0000 0000 0000 0000
	0x01f0:  0000 0000 0000 0000 0000 0000 0000 0000
	0x0200:  0000 0000 0000 0000 0000 0000 0000 0000
	0x0210:  0000 0000 0000 0000 0000 0000 0000 0000
	0x0220:  0000 0000 0000 0000 0000 0000 0000 0000
	0x0230:  0000 0000 0000 0000 0000 0000 0000 0000
	0x0240:  0000 0000 0000 0000 0000 0000 0000 0000
	0x0250:  0000 0000 0000 0000 0000 0000
35.447941 IP 10.1.2.4.49153 > 10.1.3.4.8080: Flags [.], seq 341968:342504, ack 1, win 32768, options [TS val 35396 ecr 35346,eol], length 536: HTTP
35.853594 IP 10.1.2.4.49153 > 10.1.3.4.8080: Flags [.], seq 341968:342504, ack 1, win 32768, options [TS val 35802 ecr 35752,eol], length 536: HTTP
36.952383 IP 10.1.2.4.49153 > 10.1.3.4.8080: Flags [.], seq 344648:345184, ack 1, win 32768, options [TS val 36901 ecr 36851,eol], length 536: HTTP
37.665313 IP 10.1.2.4.49153 > 10.1.3.4.8080: Flags [.], seq 351080:351616, ack 1, win 32768, options [TS val 37613 ecr 37563,eol], length 536: HTTP
37.765536 IP 10.1.2.4.49153 > 10.1.3.4.8080: Flags [.], seq 351616:352152, ack 1, win 32768, options [TS val 37714 ecr 37664,eol], length 536: HTTP
38.172147 IP 10.1.2.4.49153 > 10.1.3.4.8080: Flags [.], seq 353760:354296, ack 1, win 32768, options [TS val 38120 ecr 38070,eol], length 536: HTTP
38.881301 IP 10.1.2.4.49153 > 10.1.3.4.8080: Flags [.], seq 358048:358584, ack 1, win 32768, options [TS val 38830 ecr 38780,eol], length 536: HTTP
40.001716 IP 10.1.2.4.49153 > 10.1.3.4.8080: Flags [.], seq 374128:374664, ack 1, win 32768, options [TS val 39949 ecr 39899,eol], length 536: HTTP
40.202176 IP 10.1.2.4.49153 > 10.1.3.4.8080: Flags [.], seq 377344:377880, ack 1, win 32768, options [TS val 40151 ecr 40101,eol], length 536: HTTP
40.811107 IP 10.1.2.4.49153 > 10.1.3.4.8080: Flags [.], seq 380560:381096, ack 1, win 32768, options [TS val 40760 ecr 40709,eol], length 536: HTTP
40.812051 IP 10.1.2.4.49153 > 10.1.3.4.8080: Flags [.], seq 381096:381632, ack 1, win 32768, options [TS val 40760 ecr 40709,eol], length 536: HTTP
42.622826 IP 10.1.2.4.49153 > 10.1.3.4.8080: Flags [.], seq 387528:388064, ack 1, win 32768, options [TS val 42570 ecr 42520,eol], length 536: HTTP
42.926354 IP 10.1.2.4.49153 > 10.1.3.4.8080: Flags [.], seq 390744:391280, ack 1, win 32768, options [TS val 42875 ecr 42825,eol], length 536: HTTP
43.842617 unknown PPP protocol (0x0000) 
	0x0000:  0000 000a 0000 0000 0007 0800 4500 024c
	0x0010:  0348 0000 3e06 0000 0a01 0204 0a01 0304
	0x0020:  c001 1f90 0006 5189 0000 0001 8010 8000
	0x0030:  0000 0000 080a 0000 ab0d 0000 aadb 0000
	0x0040:  0000 0000 0000 0000 0000 0000 0000 0000
	0x0050:  0000 0000 0000 0000 0000 0000 0000 0000
	0x0060:  0000 0000 0000 0000 0000 0000 0000 0000
	0x0070:  0000 0000 0000 0000 0000 0000 0000 0000
	0x0080:  0000 0000 0000 0000 0000 0000 0000 0000
	0x0090:  0000 0000 0000 0000 0000 0000 0000 0000
	0x00a0:  0000 0000 0000 0000 0000 0000 0000 0000
	0x00b0:  0000 0000 0000 0000 0000 0000 0000 0000
	0x00c0:  0000 0000 0000 0000 0000 0000 0000 0000
	0x00d0:  0000 0000 0000 0000 0000 0000 0000 0000
	0x00e0:  0000 0000 0000 0000 0000 0000 0000 0000
	0x00f0:  0000 0000 0000 0000 0000 0000 0000 0000
	0x0100:  0000 0000 0000 0000 0000 0000 0000 0000
	0x0110:  0000 0000 0000 0000 0000 0000 0000 0000
	0x0120:  0000 0000 0000 0000 0000 0000 0000 0000
	0x0130:  0000 0000 0000 0000 0000 0000 0000 0000
	0x0140:  0000 0000 0000 0000 0000 0000 0000 0000
	0x0150:  0000 0000 0000 0000 0000 0000 0000 0000
	0x0160:  0000 0000 0000 0000 0000 0000 0000 0000
	0x0170:  0000 0000 0000 0000 0000 0000 0000 0000
	0x0180:  0000 0000 0000 0000 0000 0000 0000 0000
	0x0190:  0000 0000 0000 0000 0000 0000 0000 0000
	0x01a0:  0000 0000 0000 0000 0000 0000 0000 0000
	0x01b0:  0000 0000 0000 0000 0000 0000 0000 0000
	0x01c0:  0000 0000 0000 0000 0000 0000 0000 0000
	0x01d0:  0000 0000 0000 0000 0000 0000 0000 0000
	0x01e0:  0000 0000 0000 0000 0000 0000 0000 0000
	0x01f0:  0000 0000 0000 0000 0000 0000 0000 0000
	0x0200:  0000 0000 0000 0000 0000 0000 0000 0000
	0x0210:  0000 0000 0000 0000 0000 0000 0000 0000
	0x0220:  0000 0000 0000 0000 0000 0000 0000 0000
	0x0230:  0000 0000 0000 0000 0000 0000 0000 0000
	0x0240:  0000 0000 0000 0000 0000 0000 0000 0000
	0x0250:  0000 0000 0000 0000 0000 0000
44.144202 IP 10.1.2.4.49153 > 10.1.3.4.8080: Flags [.], seq 399856:400392, ack 1, win 32768, options [TS val 44093 ecr 44043,eol], length 536: HTTP
45.753614 unknown PPP protocol (0x0000) 
	0x0000:  0000 000a 0000 0000 0007 0800 4500 024c
	0x0010:  0363 0000 3e06 0000 0a01 0204 0a01 0304
	0x0020:  c001 1f90 0006 85e1 0000 0001 8010 8000
	0x0030:  0000 0000 080a 0000 b285 0000 b253 0000
	0x0040:  0000 0000 0000 0000 0000 0000 0000 0000
	0x0050:  0000 0000 0000 0000 0000 0000 0000 0000
	0x0060:  0000 0000 0000 0000 0000 0000 0000 0000
	0x0070:  0000 0000 0000 0000 0000 0000 0000 0000
	0x0080:  0000 0000 0000 0000 0000 0000 0000 0000
	0x0090:  0000 0000 0000 0000 0000 0000 0000 0000
	0x00a0:  0000 0000 0000 0000 0000 0000 0000 0000
	0x00b0:  0000 0000 0000 0000 0000 0000 0000 0000
	0x00c0:  0000 0000 0000 0000 0000 0000 0000 0000
	0x00d0:  0000 0000 0000 0000 0000 0000 0000 0000
	0x00e0:  0000 0000 0000 0000 0000 0000 0000 0000
	0x00f0:  0000 0000 0000 0000 0000 0000 0000 0000
	0x0100:  0000 0000 0000 0000 0000 0000 0000 0000
	0x0110:  0000 0000 0000 0000 0000 0000 0000 0000
	0x0120:  0000 0000 0000 0000 0000 0000 0000 0000
	0x0130:  0000 0000 0000 0000 0000 0000 0000 0000
	0x0140:  0000 0000 0000 0000 0000 0000 0000 0000
	0x0150:  0000 0000 0000 0000 0000 0000 0000 0000
	0x0160:  0000 0000 0000 0000 0000 0000 0000 0000
	0x0170:  0000 0000 0000 0000 0000 0000 0000 0000
	0x0180:  0000 0000 0000 0000 0000 0000 0000 0000
	0x0190:  0000 0000 0000 0000 0000 0000 0000 0000
	0x01a0:  0000 0000 0000 0000 0000 0000 0000 0000
	0x01b0:  0000 0000 0000 0000 0000 0000 0000 0000
	0x01c0:  0000 0000 0000 0000 0000 0000 0000 0000
	0x01d0:  0000 0000 0000 0000 0000 0000 0000 0000
	0x01e0:  0000 0000 0000 0000 0000 0000 0000 0000
	0x01f0:  0000 0000 0000 0000 0000 0000 0000 0000
	0x0200:  0000 0000 0000 0000 0000 0000 0000 0000
	0x0210:  0000 0000 0000 0000 0000 0000 0000 0000
	0x0220:  0000 0000 0000 0000 0000 0000 0000 0000
	0x0230:  0000 0000 0000 0000 0000 0000 0000 0000
	0x0240:  0000 0000 0000 0000 0000 0000 0000 0000
	0x0250:  0000 0000 0000 0000 0000 0000
45.853782 IP 10.1.2.4.49153 > 10.1.3.4.8080: Flags [.], seq 413792:414328, ack 1, win 32768, options [TS val 45802 ecr 45752,eol], length 536: HTTP
46.565782 IP 10.1.2.4.49153 > 10.1.3.4.8080: Flags [.], seq 419152:419688, ack 1, win 32768, options [TS val 46512 ecr 46462,eol], length 536: HTTP
46.666060 unknown PPP protocol (0x0000) 
	0x0000:  0000 000a 0000 0000 0007 0800 4500 024c
	0x0010:  0371 0000 3e06 0000 0a01 0204 0a01 0304
	0x0020:  c001 1f90 0006 9f01 0000 0001 8010 8000
	0x0030:  0000 0000 080a 0000 b617 0000 b5e4 0000
	0x0040:  0000 0000 0000 0000 0000 0000 0000 0000
	0x0050:  0000 0000 0000 0000 0000 0000 0000 0000
	0x0060:  0000 0000 0000 0000 0000 0000 0000 0000
	0x0070:  0000 0000 0000 0000 0000 0000 0000 0000
	0x0080:  0000 0000 0000 0000 0000 0000 0000 0000
	0x0090:  0000 0000 0000 0000 0000 0000 0000 0000
	0x00a0:  0000 0000 0000 0000 0000 0000 0000 0000
	0x00b0:  0000 0000 0000 0000 0000 0000 0000 0000
	0x00c0:  0000 0000 0000 0000 0000 0000 0000 0000
	0x00d0:  0000 0000 0000 0000 0000 0000 0000 0000
	0x00e0:  0000 0000 0000 0000 0000 0000 0000 0000
	0x00f0:  0000 0000 0000 0000 0000 0000 0000 0000
	0x0100:  0000 0000 0000 0000 0000 0000 0000 0000
	0x0110:  0000 0000 0000 0000 0000 0000 0000 0000
	0x0120:  0000 0000 0000 0000 0000 0000 0000 0000
	0x0130:  0000 0000 0000 0000 0000 0000 0000 0000
	0x0140:  0000 0000 0000 0000 0000 0000 0000 0000
	0x0150:  0000 0000 0000 0000 0000 0000 0000 0000
	0x0160:  0000 0000 0000 0000 0000 0000 0000 0000
	0x0170:  0000 0000 0000 0000 0000 0000 0000 0000
	0x0180:  0000 0000 0000 0000 0000 0000 0000 0000
	0x0190:  0000 0000 0000 0000 0000 0000 0000 0000
	0x01a0:  0000 0000 0000 0000 0000 0000 0000 0000
	0x01b0:  0000 0000 0000 0000 0000 0000 0000 0000
	0x01c0:  0000 0000 0000 0000 0000 0000 0000 0000
	0x01d0:  0000 0000 0000 0000 0000 0000 0000 0000
	0x01e0:  0000 0000 0000 0000 0000 0000 0000 0000
	0x01f0:  0000 0000 0000 0000 0000 0000 0000 0000
	0x0200:  0000 0000 0000 0000 0000 0000 0000 0000
	0x0210:  0000 0000 0000 0000 0000 0000 0000 0000
	0x0220:  0000 0000 0000 0000 0000 0000 0000 0000
	0x0230:  0000 0000 0000 0000 0000 0000 0000 0000
	0x0240:  0000 0000 0000 0000 0000 0000 0000 0000
	0x0250:  0000 0000 0000 0000 0000 0000
48.089004 IP 10.1.2.4.49153 > 10.1.3.4.8080: Flags [.], seq 436840:437376, ack 1, win 32768, options [TS val 48037 ecr 47986,eol], length 536: HTTP
48.290463 unknown PPP protocol (0x0000) 
	0x0000:  0000 000a 0000 0000 0007 0800 4500 024c
	0x0010:  039a 0000 3e06 0000 0a01 0204 0a01 0304
	0x0020:  c001 1f90 0006 e201 0000 0001 8010 8000
	0x0030:  0000 0000 080a 0000 bc6f 0000 bc3d 0000
	0x0040:  0000 0000 0000 0000 0000 0000 0000 0000
	0x0050:  0000 0000 0000 0000 0000 0000 0000 0000
	0x0060:  0000 0000 0000 0000 0000 0000 0000 0000
	0x0070:  0000 0000 0000 0000 0000 0000 0000 0000
	0x0080:  0000 0000 0000 0000 0000 0000 0000 0000
	0x0090:  0000 0000 0000 0000 0000 0000 0000 0000
	0x00a0:  0000 0000 0000 0000 0000 0000 0000 0000
	0x00b0:  0000 0000 0000 0000 0000 0000 0000 0000
	0x00c0:  0000 0000 0000 0000 0000 0000 0000 0000
	0x00d0:  0000 0000 0000 0000 0000 0000 0000 0000
	0x00e0:  0000 0000 0000 0000 0000 0000 0000 0000
	0x00f0:  0000 0000 0000 0000 0000 0000 0000 0000
	0x0100:  0000 0000 0000 0000 0000 0000 0000 0000
	0x0110:  0000 0000 0000 0000 0000 0000 0000 0000
	0x0120:  0000 0000 0000 0000 0000 0000 0000 0000
	0x0130:  0000 0000 0000 0000 0000 0000 0000 0000
	0x0140:  0000 0000 0000 0000 0000 0000 0000 0000
	0x0150:  0000 0000 0000 0000 0000 0000 0000 0000
	0x0160:  0000 0000 0000 0000 0000 0000 0000 0000
	0x0170:  0000 0000 0000 0000 0000 0000 0000 0000
	0x0180:  0000 0000 0000 0000 0000 0000 0000 0000
	0x0190:  0000 0000 0000 0000 0000 0000 0000 0000
	0x01a0:  0000 0000 0000 0000 0000 0000 0000 0000
	0x01b0:  0000 0000 0000 0000 0000 0000 0000 0000
	0x01c0:  0000 0000 0000 0000 0000 0000 0000 0000
	0x01d0:  0000 0000 0000 0000 0000 0000 0000 0000
	0x01e0:  0000 0000 0000 0000 0000 0000 0000 0000
	0x01f0:  0000 0000 0000 0000 0000 0000 0000 0000
	0x0200:  0000 0000 0000 0000 0000 0000 0000 0000
	0x0210:  0000 0000 0000 0000 0000 0000 0000 0000
	0x0220:  0000 0000 0000 0000 0000 0000 0000 0000
	0x0230:  0000 0000 0000 0000 0000 0000 0000 0000
	0x0240:  0000 0000 0000 0000 0000 0000 0000 0000
	0x0250:  0000 0000 0000 0000 0000 0000
49.290393 IP 10.1.2.4.49153 > 10.1.3.4.8080: Flags [.], seq 445416:445952, ack 1, win 32768, options [TS val 49239 ecr 49189,eol], length 536: HTTP
51.707722 IP 10.1.2.4.49153 > 10.1.3.4.8080: Flags [.], seq 457744:458280, ack 1, win 32768, options [TS val 51655 ecr 51605,eol], length 536: HTTP
51.811735 IP 10.1.2.4.49153 > 10.1.3.4.8080: Flags [.], seq 460424:460960, ack 1, win 32768, options [TS val 51759 ecr 51709,eol], length 536: HTTP
52.623014 IP 10.1.2.4.49153 > 10.1.3.4.8080: Flags [.], seq 465784:466320, ack 1, win 32768, options [TS val 52570 ecr 52520,eol], length 536: HTTP
52.824417 IP 10.1.2.4.49153 > 10.1.3.4.8080: Flags [.], seq 467392:467928, ack 1, win 32768, options [TS val 52773 ecr 52723,eol], length 536: HTTP
54.046041 IP 10.1.2.4.49153 > 10.1.3.4.8080: Flags [.], seq 480792:481328, ack 1, win 32768, options [TS val 53994 ecr 53943,eol], length 536: HTTP
54.146264 IP 10.1.2.4.49153 > 10.1.3.4.8080: Flags [.], seq 481864:482400, ack 1, win 32768, options [TS val 54094 ecr 54044,eol], length 536: HTTP
54.349598 IP 10.1.2.4.49153 > 10.1.3.4.8080: Flags [.], seq 481864:482400, ack 1, win 32768, options [TS val 54298 ecr 54248,eol], length 536: HTTP
56.260651 unknown PPP protocol (0x0000) 
	0x0000:  0000 000a 0000 0000 0007 0800 4500 024c
	0x0010:  040b 0000 3e06 0000 0a01 0204 0a01 0304
	0x0020:  c001 1f90 0007 c851 0000 0001 8010 8000
	0x0030:  0000 0000 080a 0000 db90 0000 db5e 0000
	0x0040:  0000 0000 0000 0000 0000 0000 0000 0000
	0x0050:  0000 0000 0000 0000 0000 0000 0000 0000
	0x0060:  0000 0000 0000 0000 0000 0000 0000 0000
	0x0070:  0000 0000 0000 0000 0000 0000 0000 0000
	0x0080:  0000 0000 0000 0000 0000 0000 0000 0000
	0x0090:  0000 0000 0000 0000 0000 0000 0000 0000
	0x00a0:  0000 0000 0000 0000 0000 0000 0000 0000
	0x00b0:  0000 0000 0000 0000 0000 0000 0000 0000
	0x00c0:  0000 0000 0000 0000 0000 0000 0000 0000
	0x00d0:  0000 0000 0000 0000 0000 0000 0000 0000
	0x00e0:  0000 0000 0000 0000 0000 0000 0000 0000
	0x00f0:  0000 0000 0000 0000 0000 0000 0000 0000
	0x0100:  0000 0000 0000 0000 0000 0000 0000 0000
	0x0110:  0000 0000 0000 0000 0000 0000 0000 0000
	0x0120:  0000 0000 0000 0000 0000 0000 0000 0000
	0x0130:  0000 0000 0000 0000 0000 0000 0000 0000
	0x0140:  0000 0000 0000 0000 0000 0000 0000 0000
	0x0150:  0000 0000 0000 0000 0000 0000 0000 0000
	0x0160:  0000 0000 0000 0000 0000 0000 0000 0000
	0x0170:  0000 0000 0000 0000 0000 0000 0000 0000
	0x0180:  0000 0000 0000 0000 0000 0000 0000 0000
	0x0190:  0000 0000 0000 0000 0000 0000 0000 0000
	0x01a0:  0000 0000 0000 0000 0000 0000 0000 0000
	0x01b0:  0000 0000 0000 0000 0000 0000 0000 0000
	0x01c0:  0000 0000 0000 0000 0000 0000 0000 0000
	0x01d0:  0000 0000 0000 0000 0000 0000 0000 0000
	0x01e0:  0000 0000 0000 0000 0000 0000 0000 0000
	0x01f0:  0000 0000 0000 0000 0000 0000 0000 0000
	0x0200:  0000 0000 0000 0000 0000 0000 0000 0000
	0x0210:  0000 0000 0000 0000 0000 0000 0000 0000
	0x0220:  0000 0000 0000 0000 0000 0000 0000 0000
	0x0230:  0000 0000 0000 0000 0000 0000 0000 0000
	0x0240:  0000 0000 0000 0000 0000 0000 0000 0000
	0x0250:  0000 0000 0000 0000 0000 0000
56.462943 IP 10.1.2.4.49153 > 10.1.3.4.8080: Flags [.], seq 497944:498480, ack 1, win 32768, options [TS val 56411 ecr 56361,eol], length 536: HTTP
57.273278 IP 10.1.2.4.49153 > 10.1.3.4.8080: Flags [.], seq 502232:502768, ack 1, win 32768, options [TS val 57222 ecr 57172,eol], length 536: HTTP
57.782916 IP 10.1.2.4.49153 > 10.1.3.4.8080: Flags [.], seq 508128:508664, ack 1, win 32768, options [TS val 57730 ecr 57679,eol], length 536: HTTP
58.492056 IP 10.1.2.4.49153 > 10.1.3.4.8080: Flags [.], seq 514560:515096, ack 1, win 32768, options [TS val 58441 ecr 58390,eol], length 536: HTTP
58.899652 unknown PPP protocol (0x0000) 
	0x0000:  0000 000a 0000 0000 0007 0800 4500 024c
	0x0010:  043b 0000 3e06 0000 0a01 0204 0a01 0304
	0x0020:  c001 1f90 0008 2259 0000 0001 8010 8000
	0x0030:  0000 0000 080a 0000 e5df 0000 e5ad 0000
	0x0040:  0000 0000 0000 0000 0000 0000 0000 0000
	0x0050:  0000 0000 0000 0000 0000 0000 0000 0000
	0x0060:  0000 0000 0000 0000 0000 0000 0000 0000
	0x0070:  0000 0000 0000 0000 0000 0000 0000 0000
	0x0080:  0000 0000 0000 0000 0000 0000 0000 0000
	0x0090:  0000 0000 0000 0000 0000 0000 0000 0000
	0x00a0:  0000 0000 0000 0000 0000 0000 0000 0000
	0x00b0:  0000 0000 0000 0000 0000 0000 0000 0000
	0x00c0:  0000 0000 0000 0000 0000 0000 0000 0000
	0x00d0:  0000 0000 0000 0000 0000 0000 0000 0000
	0x00e0:  0000 0000 0000 0000 0000 0000 0000 0000
	0x00f0:  0000 0000 0000 0000 0000 0000 0000 0000
	0x0100:  0000 0000 0000 0000 0000 0000 0000 0000
	0x0110:  0000 0000 0000 0000 0000 0000 0000 0000
	0x0120:  0000 0000 0000 0000 0000 0000 0000 0000
	0x0130:  0000 0000 0000 0000 0000 0000 0000 0000
	0x0140:  0000 0000 0000 0000 0000 0000 0000 0000
	0x0150:  0000 0000 0000 0000 0000 0000 0000 0000
	0x0160:  0000 0000 0000 0000 0000 0000 0000 0000
	0x0170:  0000 0000 0000 0000 0000 0000 0000 0000
	0x0180:  0000 0000 0000 0000 0000 0000 0000 0000
	0x0190:  0000 0000 0000 0000 0000 0000 0000 0000
	0x01a0:  0000 0000 0000 0000 0000 0000 0000 0000
	0x01b0:  0000 0000 0000 0000 0000 0000 0000 0000
	0x01c0:  0000 0000 0000 0000 0000 0000 0000 0000
	0x01d0:  0000 0000 0000 0000 0000 0000 0000 0000
	0x01e0:  0000 0000 0000 0000 0000 0000 0000 0000
	0x01f0:  0000 0000 0000 0000 0000 0000 0000 0000
	0x0200:  0000 0000 0000 0000 0000 0000 0000 0000
	0x0210:  0000 0000 0000 0000 0000 0000 0000 0000
	0x0220:  0000 0000 0000 0000 0000 0000 0000 0000
	0x0230:  0000 0000 0000 0000 0000 0000 0000 0000
	0x0240:  0000 0000 0000 0000 0000 0000 0000 0000
	0x0250:  0000 0000 0000 0000 0000 0000
60.113181 IP 10.1.2.4.49153 > 10.1.3.4.8080: Flags [.], seq 529568:530104, ack 1, win 32768, options [TS val 60061 ecr 60011,eol], length 536: HTTP
60.114180 unknown PPP protocol (0x0000) 
	0x0000:  0000 000a 0000 0000 0007 0800 4500 024c
	0x0010:  0451 0000 3e06 0000 0a01 0204 0a01 0304
	0x0020:  c001 1f90 0008 4e51 0000 0001 8010 8000
	0x0030:  0000 0000 080a 0000 ea9f 0000 ea6d 0000
	0x0040:  0000 0000 0000 0000 0000 0000 0000 0000
	0x0050:  0000 0000 0000 0000 0000 0000 0000 0000
	0x0060:  0000 0000 0000 0000 0000 0000 0000 0000
	0x0070:  0000 0000 0000 0000 0000 0000 0000 0000
	0x0080:  0000 0000 0000 0000 0000 0000 0000 0000
	0x0090:  0000 0000 0000 0000 0000 0000 0000 0000
	0x00a0:  0000 0000 0000 0000 0000 0000 0000 0000
	0x00b0:  0000 0000 0000 0000 0000 0000 0000 0000
	0x00c0:  0000 0000 0000 0000 0000 0000 0000 0000
	0x00d0:  0000 0000 0000 0000 0000 0000 0000 0000
	0x00e0:  0000 0000 0000 0000 0000 0000 0000 0000
	0x00f0:  0000 0000 0000 0000 0000 0000 0000 0000
	0x0100:  0000 0000 0000 0000 0000 0000 0000 0000
	0x0110:  0000 0000 0000 0000 0000 0000 0000 0000
	0x0120:  0000 0000 0000 0000 0000 0000 0000 0000
	0x0130:  0000 0000 0000 0000 0000 0000 0000 0000
	0x0140:  0000 0000 0000 0000 0000 0000 0000 0000
	0x0150:  0000 0000 0000 0000 0000 0000 0000 0000
	0x0160:  0000 0000 0000 0000 0000 0000 0000 0000
	0x0170:  0000 0000 0000 0000 0000 0000 0000 0000
	0x0180:  0000 0000 0000 0000 0000 0000 0000 0000
	0x0190:  0000 0000 0000 0000 0000 0000 0000 0000
	0x01a0:  0000 0000 0000 0000 0000 0000 0000 0000
	0x01b0:  0000 0000 0000 0000 0000 0000 0000 0000
	0x01c0:  0000 0000 0000 0000 0000 0000 0000 0000
	0x01d0:  0000 0000 0000 0000 0000 0000 0000 0000
	0x01e0:  0000 0000 0000 0000 0000 0000 0000 0000
	0x01f0:  0000 0000 0000 0000 0000 0000 0000 0000
	0x0200:  0000 0000 0000 0000 0000 0000 0000 0000
	0x0210:  0000 0000 0000 0000 0000 0000 0000 0000
	0x0220:  0000 0000 0000 0000 0000 0000 0000 0000
	0x0230:  0000 0000 0000 0000 0000 0000 0000 0000
	0x0240:  0000 0000 0000 0000 0000 0000 0000 0000
	0x0250:  0000 0000 0000 0000 0000 0000
61.129611 IP 10.1.2.4.49153 > 10.1.3.4.8080: Flags [.], seq 540824:541360, ack 1, win 32768, options [TS val 61077 ecr 61027,eol], length 536: HTTP
61.130555 IP 10.1.2.4.49153 > 10.1.3.4.8080: Flags [.], seq 541360:541896, ack 1, win 32768, options [TS val 61079 ecr 61029,eol], length 536: HTTP
61.435041 IP 10.1.2.4.49153 > 10.1.3.4.8080: Flags [.], seq 541360:541896, ack 1, win 32768, options [TS val 61384 ecr 61333,eol], length 536: HTTP
61.941945 unknown PPP protocol (0x0000) 
	0x0000:  0000 000a 0000 0000 0007 0800 4500 024c
	0x0010:  0474 0000 3e06 0000 0a01 0204 0a01 0304
	0x0020:  c001 1f90 0008 8f39 0000 0001 8010 8000
	0x0030:  0000 0000 080a 0000 f1c2 0000 f190 0000
	0x0040:  0000 0000 0000 0000 0000 0000 0000 0000
	0x0050:  0000 0000 0000 0000 0000 0000 0000 0000
	0x0060:  0000 0000 0000 0000 0000 0000 0000 0000
	0x0070:  0000 0000 0000 0000 0000 0000 0000 0000
	0x0080:  0000 0000 0000 0000 0000 0000 0000 0000
	0x0090:  0000 0000 0000 0000 0000 0000 0000 0000
	0x00a0:  0000 0000 0000 0000 0000 0000 0000 0000
	0x00b0:  0000 0000 0000 0000 0000 0000 0000 0000
	0x00c0:  0000 0000 0000 0000 0000 0000 0000 0000
	0x00d0:  0000 0000 0000 0000 0000 0000 0000 0000
	0x00e0:  0000 0000 0000 0000 0000 0000 0000 0000
	0x00f0:  0000 0000 0000 0000 0000 0000 0000 0000
	0x0100:  0000 0000 0000 0000 0000 0000 0000 0000
	0x0110:  0000 0000 0000 0000 0000 0000 0000 0000
	0x0120:  0000 0000 0000 0000 0000 0000 0000 0000
	0x0130:  0000 0000 0000 0000 0000 0000 0000 0000
	0x0140:  0000 0000 0000 0000 0000 0000 0000 0000
	0x0150:  0000 0000 0000 0000 0000 0000 0000 0000
	0x0160:  0000 0000 0000 0000 0000 0000 0000 0000
	0x0170:  0000 0000 0000 0000 0000 0000 0000 0000
	0x0180:  0000 0000 0000 0000 0000 0000 0000 0000
	0x0190:  0000 0000 0000 0000 0000 0000 0000 0000
	0x01a0:  0000 0000 0000 0000 0000 0000 0000 0000
	0x01b0:  0000 0000 0000 0000 0000 0000 0000 0000
	0x01c0:  0000 0000 0000 0000 0000 0000 0000 0000
	0x01d0:  0000 0000 0000 0000 0000 0000 0000 0000
	0x01e0:  0000 0000 0000 0000 0000 0000 0000 0000
	0x01f0:  0000 0000 0000 0000 0000 0000 0000 0000
	0x0200:  0000 0000 0000 0000 0000 0000 0000 0000
	0x0210:  0000 0000 0000 0000 0000 0000 0000 0000
	0x0220:  0000 0000 0000 0000 0000 0000 0000 0000
	0x0230:  0000 0000 0000 0000 0000 0000 0000 0000
	0x0240:  0000 0000 0000 0000 0000 0000 0000 0000
	0x0250:  0000 0000 0000 0000 0000 0000
63.047760 unknown PPP protocol (0x0000) 
	0x0000:  0000 000a 0000 0000 0007 0800 4500 024c
	0x0010:  0483 0000 3e06 0000 0a01 0204 0a01 0304
	0x0020:  c001 1f90 0008 aa71 0000 0001 8010 8000
	0x0030:  0000 0000 080a 0000 f612 0000 f5e0 0000
	0x0040:  0000 0000 0000 0000 0000 0000 0000 0000
	0x0050:  0000 0000 0000 0000 0000 0000 0000 0000
	0x0060:  0000 0000 0000 0000 0000 0000 0000 0000
	0x0070:  0000 0000 0000 0000 0000 0000 0000 0000
	0x0080:  0000 0000 0000 0000 0000 0000 0000 0000
	0x0090:  0000 0000 0000 0000 0000 0000 0000 0000
	0x00a0:  0000 0000 0000 0000 0000 0000 0000 0000
	0x00b0:  0000 0000 0000 0000 0000 0000 0000 0000
	0x00c0:  0000 0000 0000 0000 0000 0000 0000 0000
	0x00d0:  0000 0000 0000 0000 0000 0000 0000 0000
	0x00e0:  0000 0000 0000 0000 0000 0000 0000 0000
	0x00f0:  0000 0000 0000 0000 0000 0000 0000 0000
	0x0100:  0000 0000 0000 0000 0000 0000 0000 0000
	0x0110:  0000 0000 0000 0000 0000 0000 0000 0000
	0x0120:  0000 0000 0000 0000 0000 0000 0000 0000
	0x0130:  0000 0000 0000 0000 0000 0000 0000 0000
	0x0140:  0000 0000 0000 0000 0000 0000 0000 0000
	0x0150:  0000 0000 0000 0000 0000 0000 0000 0000
	0x0160:  0000 0000 0000 0000 0000 0000 0000 0000
	0x0170:  0000 0000 0000 0000 0000 0000 0000 0000
	0x0180:  0000 0000 0000 0000 0000 0000 0000 0000
	0x0190:  0000 0000 0000 0000 0000 0000 0000 0000
	0x01a0:  0000 0000 0000 0000 0000 0000 0000 0000
	0x01b0:  0000 0000 0000 0000 0000 0000 0000 0000
	0x01c0:  0000 0000 0000 0000 0000 0000 0000 0000
	0x01d0:  0000 0000 0000 0000 0000 0000 0000 0000
	0x01e0:  0000 0000 0000 0000 0000 0000 0000 0000
	0x01f0:  0000 0000 0000 0000 0000 0000 0000 0000
	0x0200:  0000 0000 0000 0000 0000 0000 0000 0000
	0x0210:  0000 0000 0000 0000 0000 0000 0000 0000
	0x0220:  0000 0000 0000 0000 0000 0000 0000 0000
	0x0230:  0000 0000 0000 0000 0000 0000 0000 0000
	0x0240:  0000 0000 0000 0000 0000 0000 0000 0000
	0x0250:  0000 0000 0000 0000 0000 0000
64.061289 IP 10.1.2.4.49153 > 10.1.3.4.8080: Flags [.], seq 565480:566016, ack 1, win 32768, options [TS val 64010 ecr 63960,eol], length 536: HTTP
64.263692 unknown PPP protocol (0x0000) 
	0x0000:  0000 000a 0000 0000 0007 0800 4500 024c
	0x0010:  04a0 0000 3e06 0000 0a01 0204 0a01 0304
	0x0020:  c001 1f90 0008 d881 0000 0001 8010 8000
	0x0030:  0000 0000 080a 0000 fad4 0000 faa2 0000
	0x0040:  0000 0000 0000 0000 0000 0000 0000 0000
	0x0050:  0000 0000 0000 0000 0000 0000 0000 0000
	0x0060:  0000 0000 0000 0000 0000 0000 0000 0000
	0x0070:  0000 0000 0000 0000 0000 0000 0000 0000
	0x0080:  0000 0000 0000 0000 0000 0000 0000 0000
	0x0090:  0000 0000 0000 0000 0000 0000 0000 0000
	0x00a0:  0000 0000 0000 0000 0000 0000 0000 0000
	0x00b0:  0000 0000 0000 0000 0000 0000 0000 0000
	0x00c0:  0000 0000 0000 0000 0000 0000 0000 0000
	0x00d0:  0000 0000 0000 0000 0000 0000 0000 0000
	0x00e0:  0000 0000 0000 0000 0000 0000 0000 0000
	0x00f0:  0000 0000 0000 0000 0000 0000 0000 0000
	0x0100:  0000 0000 0000 0000 0000 0000 0000 0000
	0x0110:  0000 0000 0000 0000 0000 0000 0000 0000
	0x0120:  0000 0000 0000 0000 0000 0000 0000 0000
	0x0130:  0000 0000 0000 0000 0000 0000 0000 0000
	0x0140:  0000 0000 0000 0000 0000 0000 0000 0000
	0x0150:  0000 0000 0000 0000 0000 0000 0000 0000
	0x0160:  0000 0000 0000 0000 0000 0000 0000 0000
	0x0170:  0000 0000 0000 0000 0000 0000 0000 0000
	0x0180:  0000 0000 0000 0000 0000 0000 0000 0000
	0x0190:  0000 0000 0000 0000 0000 0000 0000 0000
	0x01a0:  0000 0000 0000 0000 0000 0000 0000 0000
	0x01b0:  0000 0000 0000 0000 0000 0000 0000 0000
	0x01c0:  0000 0000 0000 0000 0000 0000 0000 0000
	0x01d0:  0000 0000 0000 0000 0000 0000 0000 0000
	0x01e0:  0000 0000 0000 0000 0000 0000 0000 0000
	0x01f0:  0000 0000 0000 0000 0000 0000 0000 0000
	0x0200:  0000 0000 0000 0000 0000 0000 0000 0000
	0x0210:  0000 0000 0000 0000 0000 0000 0000 0000
	0x0220:  0000 0000 0000 0000 0000 0000 0000 0000
	0x0230:  0000 0000 0000 0000 0000 0000 0000 0000
	0x0240:  0000 0000 0000 0000 0000 0000 0000 0000
	0x0250:  0000 0000 0000 0000 0000 0000
64.970959 IP 10.1.2.4.49153 > 10.1.3.4.8080: Flags [.], seq 571912:572448, ack 1, win 32768, options [TS val 64919 ecr 64869,eol], length 536: HTTP
65.569010 IP 10.1.2.4.49153 > 10.1.3.4.8080: Flags [.], seq 575664:576200, ack 1, win 32768, options [TS val 65518 ecr 65467,eol], length 536: HTTP
66.077774 unknown PPP protocol (0x0000) 
	0x0000:  0000 000a 0000 0000 0007 0800 4500 024c
	0x0010:  04ba 0000 3e06 0000 0a01 0204 0a01 0304
	0x0020:  c001 1f90 0009 1321 0000 0001 8010 8000
	0x0030:  0000 0000 080a 0001 01ea 0001 01b8 0000
	0x0040:  0000 0000 0000 0000 0000 0000 0000 0000
	0x0050:  0000 0000 0000 0000 0000 0000 0000 0000
	0x0060:  0000 0000 0000 0000 0000 0000 0000 0000
	0x0070:  0000 0000 0000 0000 0000 0000 0000 0000
	0x0080:  0000 0000 0000 0000 0000 0000 0000 0000
	0x0090:  0000 0000 0000 0000 0000 0000 0000 0000
	0x00a0:  0000 0000 0000 0000 0000 0000 0000 0000
	0x00b0:  0000 0000 0000 0000 0000 0000 0000 0000
	0x00c0:  0000 0000 0000 0000 0000 0000 0000 0000
	0x00d0:  0000 0000 0000 0000 0000 0000 0000 0000
	0x00e0:  0000 0000 0000 0000 0000 0000 0000 0000
	0x00f0:  0000 0000 0000 0000 0000 0000 0000 0000
	0x0100:  0000 0000 0000 0000 0000 0000 0000 0000
	0x0110:  0000 0000 0000 0000 0000 0000 0000 0000
	0x0120:  0000 0000 0000 0000 0000 0000 0000 0000
	0x0130:  0000 0000 0000 0000 0000 0000 0000 0000
	0x0140:  0000 0000 0000 0000 0000 0000 0000 0000
	0x0150:  0000 0000 0000 0000 0000 0000 0000 0000
	0x0160:  0000 0000 0000 0000 0000 0000 0000 0000
	0x0170:  0000 0000 0000 0000 0000 0000 0000 0000
	0x0180:  0000 0000 0000 0000 0000 0000 0000 0000
	0x0190:  0000 0000 0000 0000 0000 0000 0000 0000
	0x01a0:  0000 0000 0000 0000 0000 0000 0000 0000
	0x01b0:  0000 0000 0000 0000 0000 0000 0000 0000
	0x01c0:  0000 0000 0000 0000 0000 0000 0000 0000
	0x01d0:  0000 0000 0000 0000 0000 0000 0000 0000
	0x01e0:  0000 0000 0000 0000 0000 0000 0000 0000
	0x01f0:  0000 0000 0000 0000 0000 0000 0000 0000
	0x0200:  0000 0000 0000 0000 0000 0000 0000 0000
	0x0210:  0000 0000 0000 0000 0000 0000 0000 0000
	0x0220:  0000 0000 0000 0000 0000 0000 0000 0000
	0x0230:  0000 0000 0000 0000 0000 0000 0000 0000
	0x0240:  0000 0000 0000 0000 0000 0000 0000 0000
	0x0250:  0000 0000 0000 0000 0000 0000
66.281024 IP 10.1.2.4.49153 > 10.1.3.4.8080: Flags [.], seq 580488:581024, ack 1, win 32768, options [TS val 66230 ecr 66179,eol], length 536: HTTP
67.583105 IP 10.1.2.4.49153 > 10.1.3.4.8080: Flags [.], seq 589600:590136, ack 1, win 32768, options [TS val 67531 ecr 67481,eol], length 536: HTTP
67.984563 unknown PPP protocol (0x0000) 
	0x0000:  0000 000a 0000 0000 0007 0800 4500 024c
	0x0010:  04cf 0000 3e06 0000 0a01 0204 0a01 0304
	0x0020:  c001 1f90 0009 3ae9 0000 0001 8010 8000
	0x0030:  0000 0000 080a 0001 095d 0001 092b 0000
	0x0040:  0000 0000 0000 0000 0000 0000 0000 0000
	0x0050:  0000 0000 0000 0000 0000 0000 0000 0000
	0x0060:  0000 0000 0000 0000 0000 0000 0000 0000
	0x0070:  0000 0000 0000 0000 0000 0000 0000 0000
	0x0080:  0000 0000 0000 0000 0000 0000 0000 0000
	0x0090:  0000 0000 0000 0000 0000 0000 0000 0000
	0x00a0:  0000 0000 0000 0000 0000 0000 0000 0000
	0x00b0:  0000 0000 0000 0000 0000 0000 0000 0000
	0x00c0:  0000 0000 0000 0000 0000 0000 0000 0000
	0x00d0:  0000 0000 0000 0000 0000 0000 0000 0000
	0x00e0:  0000 0000 0000 0000 0000 0000 0000 0000
	0x00f0:  0000 0000 0000 0000 0000 0000 0000 0000
	0x0100:  0000 0000 0000 0000 0000 0000 0000 0000
	0x0110:  0000 0000 0000 0000 0000 0000 0000 0000
	0x0120:  0000 0000 0000 0000 0000 0000 0000 0000
	0x0130:  0000 0000 0000 0000 0000 0000 0000 0000
	0x0140:  0000 0000 0000 0000 0000 0000 0000 0000
	0x0150:  0000 0000 0000 0000 0000 0000 0000 0000
	0x0160:  0000 0000 0000 0000 0000 0000 0000 0000
	0x0170:  0000 0000 0000 0000 0000 0000 0000 0000
	0x0180:  0000 0000 0000 0000 0000 0000 0000 0000
	0x0190:  0000 0000 0000 0000 0000 0000 0000 0000
	0x01a0:  0000 0000 0000 0000 0000 0000 0000 0000
	0x01b0:  0000 0000 0000 0000 0000 0000 0000 0000
	0x01c0:  0000 0000 0000 0000 0000 0000 0000 0000
	0x01d0:  0000 0000 0000 0000 0000 0000 0000 0000
	0x01e0:  0000 0000 0000 0000 0000 0000 0000 0000
	0x01f0:  0000 0000 0000 0000 0000 0000 0000 0000
	0x0200:  0000 0000 0000 0000 0000 0000 0000 0000
	0x0210:  0000 0000 0000 0000 0000 0000 0000 0000
	0x0220:  0000 0000 0000 0000 0000 0000 0000 0000
	0x0230:  0000 0000 0000 0000 0000 0000 0000 0000
	0x0240:  0000 0000 0000 0000 0000 0000 0000 0000
	0x0250:  0000 0000 0000 0000 0000 0000
69.596213 IP 10.1.2.4.49153 > 10.1.3.4.8080: Flags [.], seq 599248:599784, ack 1, win 32768, options [TS val 69545 ecr 69495,eol], length 536: HTTP
70.511518 unknown PPP protocol (0x0000) 
	0x0000:  0000 000a 0000 0000 0007 0800 4500 024c
	0x0010:  04f9 0000 3e06 0000 0a01 0204 0a01 0304
	0x0020:  c001 1f90 0009 8c91 0000 0001 8010 8000
	0x0030:  0000 0000 080a 0001 133b 0001 1309 0000
	0x0040:  0000 0000 0000 0000 0000 0000 0000 0000
	0x0050:  0000 0000 0000 0000 0000 0000 0000 0000
	0x0060:  0000 0000 0000 0000 0000 0000 0000 0000
	0x0070:  0000 0000 0000 0000 0000 0000 0000 0000
	0x0080:  0000 0000 0000 0000 0000 0000 0000 0000
	0x0090:  0000 0000 0000 0000 0000 0000 0000 0000
	0x00a0:  0000 0000 0000 0000 0000 0000 0000 0000
	0x00b0:  0000 0000 0000 0000 0000 0000 0000 0000
	0x00c0:  0000 0000 0000 0000 0000 0000 0000 0000
	0x00d0:  0000 0000 0000 0000 0000 0000 0000 0000
	0x00e0:  0000 0000 0000 0000 0000 0000 0000 0000
	0x00f0:  0000 0000 0000 0000 0000 0000 0000 0000
	0x0100:  0000 0000 0000 0000 0000 0000 0000 0000
	0x0110:  0000 0000 0000 0000 0000 0000 0000 0000
	0x0120:  0000 0000 0000 0000 0000 0000 0000 0000
	0x0130:  0000 0000 0000 0000 0000 0000 0000 0000
	0x0140:  0000 0000 0000 0000 0000 0000 0000 0000
	0x0150:  0000 0000 0000 0000 0000 0000 0000 0000
	0x0160:  0000 0000 0000 0000 0000 0000 0000 0000
	0x0170:  0000 0000 0000 0000 0000 0000 0000 0000
	0x0180:  0000 0000 0000 0000 0000 0000 0000 0000
	0x0190:  0000 0000 0000 0000 0000 0000 0000 0000
	0x01a0:  0000 0000 0000 0000 0000 0000 0000 0000
	0x01b0:  0000 0000 0000 0000 0000 0000 0000 0000
	0x01c0:  0000 0000 0000 0000 0000 0000 0000 0000
	0x01d0:  0000 0000 0000 0000 0000 0000 0000 0000
	0x01e0:  0000 0000 0000 0000 0000 0000 0000 0000
	0x01f0:  0000 0000 0000 0000 0000 0000 0000 0000
	0x0200:  0000 0000 0000 0000 0000 0000 0000 0000
	0x0210:  0000 0000 0000 0000 0000 0000 0000 0000
	0x0220:  0000 0000 0000 0000 0000 0000 0000 0000
	0x0230:  0000 0000 0000 0000 0000 0000 0000 0000
	0x0240:  0000 0000 0000 0000 0000 0000 0000 0000
	0x0250:  0000 0000 0000 0000 0000 0000
70.712921 unknown PPP protocol (0x0000) 
	0x0000:  0000 000a 0000 0000 0007 0800 4500 024c
	0x0010:  04fd 0000 3e06 0000 0a01 0204 0a01 0304
	0x0020:  c001 1f90 0009 94f1 0000 0001 8010 8000
	0x0030:  0000 0000 080a 0001 1404 0001 13d2 0000
	0x0040:  0000 0000 0000 0000 0000 0000 0000 0000
	0x0050:  0000 0000 0000 0000 0000 0000 0000 0000
	0x0060:  0000 0000 0000 0000 0000 0000 0000 0000
	0x0070:  0000 0000 0000 0000 0000 0000 0000 0000
	0x0080:  0000 0000 0000 0000 0000 0000 0000 0000
	0x0090:  0000 0000 0000 0000 0000 0000 0000 0000
	0x00a0:  0000 0000 0000 0000 0000 0000 0000 0000
	0x00b0:  0000 0000 0000 0000 0000 0000 0000 0000
	0x00c0:  0000 0000 0000 0000 0000 0000 0000 0000
	0x00d0:  0000 0000 0000 0000 0000 0000 0000 0000
	0x00e0:  0000 0000 0000 0000 0000 0000 0000 0000
	0x00f0:  0000 0000 0000 0000 0000 0000 0000 0000
	0x0100:  0000 0000 0000 0000 0000 0000 0000 0000
	0x0110:  0000 0000 0000 0000 0000 0000 0000 0000
	0x0120:  0000 0000 0000 0000 0000 0000 0000 0000
	0x0130:  0000 0000 0000 0000 0000 0000 0000 0000
	0x0140:  0000 0000 0000 0000 0000 0000 0000 0000
	0x0150:  0000 0000 0000 0000 0000 0000 0000 0000
	0x0160:  0000 0000 0000 0000 0000 0000 0000 0000
	0x0170:  0000 0000 0000 0000 0000 0000 0000 0000
	0x0180:  0000 0000 0000 0000 0000 0000 0000 0000
	0x0190:  0000 0000 0000 0000 0000 0000 0000 0000
	0x01a0:  0000 0000 0000 0000 0000 0000 0000 0000
	0x01b0:  0000 0000 0000 0000 0000 0000 0000 0000
	0x01c0:  0000 0000 0000 0000 0000 0000 0000 0000
	0x01d0:  0000 0000 0000 0000 0000 0000 0000 0000
	0x01e0:  0000 0000 0000 0000 0000 0000 0000 0000
	0x01f0:  0000 0000 0000 0000 0000 0000 0000 0000
	0x0200:  0000 0000 0000 0000 0000 0000 0000 0000
	0x0210:  0000 0000 0000 0000 0000 0000 0000 0000
	0x0220:  0000 0000 0000 0000 0000 0000 0000 0000
	0x0230:  0000 0000 0000 0000 0000 0000 0000 0000
	0x0240:  0000 0000 0000 0000 0000 0000 0000 0000
	0x0250:  0000 0000 0000 0000 0000 0000
70.713810 IP 10.1.2.4.49153 > 10.1.3.4.8080: Flags [.], seq 614256:614792, ack 1, win 32768, options [TS val 70661 ecr 70611,eol], length 536: HTTP
70.813158 unknown PPP protocol (0x0000) 
	0x0000:  0000 000a 0000 0000 0007 0800 4500 024c
	0x0010:  04ff 0000 3e06 0000 0a01 0204 0a01 0304
	0x0020:  c001 1f90 0009 8c91 0000 0001 8010 8000
	0x0030:  0000 0000 080a 0001 146a 0001 1437 0000
	0x0040:  0000 0000 0000 0000 0000 0000 0000 0000
	0x0050:  0000 0000 0000 0000 0000 0000 0000 0000
	0x0060:  0000 0000 0000 0000 0000 0000 0000 0000
	0x0070:  0000 0000 0000 0000 0000 0000 0000 0000
	0x0080:  0000 0000 0000 0000 0000 0000 0000 0000
	0x0090:  0000 0000 0000 0000 0000 0000 0000 0000
	0x00a0:  0000 0000 0000 0000 0000 0000 0000 0000
	0x00b0:  0000 0000 0000 0000 0000 0000 0000 0000
	0x00c0:  0000 0000 0000 0000 0000 0000 0000 0000
	0x00d0:  0000 0000 0000 0000 0000 0000 0000 0000
	0x00e0:  0000 0000 0000 0000 0000 0000 0000 0000
	0x00f0:  0000 0000 0000 0000 0000 0000 0000 0000
	0x0100:  0000 0000 0000 0000 0000 0000 0000 0000
	0x0110:  0000 0000 0000 0000 0000 0000 0000 0000
	0x0120:  0000 0000 0000 0000 0000 0000 0000 0000
	0x0130:  0000 0000 0000 0000 0000 0000 0000 0000
	0x0140:  0000 0000 0000 0000 0000 0000 0000 0000
	0x0150:  0000 0000 0000 0000 0000 0000 0000 0000
	0x0160:  0000 0000 0000 0000 0000 0000 0000 0000
	0x0170:  0000 0000 0000 0000 0000 0000 0000 0000
	0x0180:  0000 0000 0000 0000 0000 0000 0000 0000
	0x0190:  0000 0000 0000 0000 0000 0000 0000 0000
	0x01a0:  0000 0000 0000 0000 0000 0000 0000 0000
	0x01b0:  0000 0000 0000 0000 0000 0000 0000 0000
	0x01c0:  0000 0000 0000 0000 0000 0000 0000 0000
	0x01d0:  0000 0000 0000 0000 0000 0000 0000 0000
	0x01e0:  0000 0000 0000 0000 0000 0000 0000 0000
	0x01f0:  0000 0000 0000 0000 0000 0000 0000 0000
	0x0200:  0000 0000 0000 0000 0000 0000 0000 0000
	0x0210:  0000 0000 0000 0000 0000 0000 0000 0000
	0x0220:  0000 0000 0000 0000 0000 0000 0000 0000
	0x0230:  0000 0000 0000 0000 0000 0000 0000 0000
	0x0240:  0000 0000 0000 0000 0000 0000 0000 0000
	0x0250:  0000 0000 0000 0000 0000 0000
72.222461 IP 10.1.2.4.49153 > 10.1.3.4.8080: Flags [.], seq 620152:620688, ack 1, win 32768, options [TS val 72170 ecr 72120,eol], length 536: HTTP
73.138710 unknown PPP protocol (0x0000) 
	0x0000:  0000 000a 0000 0000 0007 0800 4500 024c
	0x0010:  0525 0000 3e06 0000 0a01 0204 0a01 0304
	0x0020:  c001 1f90 0009 de39 0000 0001 8010 8000
	0x0030:  0000 0000 080a 0001 1d7e 0001 1d4c 0000
	0x0040:  0000 0000 0000 0000 0000 0000 0000 0000
	0x0050:  0000 0000 0000 0000 0000 0000 0000 0000
	0x0060:  0000 0000 0000 0000 0000 0000 0000 0000
	0x0070:  0000 0000 0000 0000 0000 0000 0000 0000
	0x0080:  0000 0000 0000 0000 0000 0000 0000 0000
	0x0090:  0000 0000 0000 0000 0000 0000 0000 0000
	0x00a0:  0000 0000 0000 0000 0000 0000 0000 0000
	0x00b0:  0000 0000 0000 0000 0000 0000 0000 0000
	0x00c0:  0000 0000 0000 0000 0000 0000 0000 0000
	0x00d0:  0000 0000 0000 0000 0000 0000 0000 0000
	0x00e0:  0000 0000 0000 0000 0000 0000 0000 0000
	0x00f0:  0000 0000 0000 0000 0000 0000 0000 0000
	0x0100:  0000 0000 0000 0000 0000 0000 0000 0000
	0x0110:  0000 0000 0000 0000 0000 0000 0000 0000
	0x0120:  0000 0000 0000 0000 0000 0000 0000 0000
	0x0130:  0000 0000 0000 0000 0000 0000 0000 0000
	0x0140:  0000 0000 0000 0000 0000 0000 0000 0000
	0x0150:  0000 0000 0000 0000 0000 0000 0000 0000
	0x0160:  0000 0000 0000 0000 0000 0000 0000 0000
	0x0170:  0000 0000 0000 0000 0000 0000 0000 0000
	0x0180:  0000 0000 0000 0000 0000 0000 0000 0000
	0x0190:  0000 0000 0000 0000 0000 0000 0000 0000
	0x01a0:  0000 0000 0000 0000 0000 0000 0000 0000
	0x01b0:  0000 0000 0000 0000 0000 0000 0000 0000
	0x01c0:  0000 0000 0000 0000 0000 0000 0000 0000
	0x01d0:  0000 0000 0000 0000 0000 0000 0000 0000
	0x01e0:  0000 0000 0000 0000 0000 0000 0000 0000
	0x01f0:  0000 0000 0000 0000 0000 0000 0000 0000
	0x0200:  0000 0000 0000 0000 0000 0000 0000 0000
	0x0210:  0000 0000 0000 0000 0000 0000 0000 0000
	0x0220:  0000 0000 0000 0000 0000 0000 0000 0000
	0x0230:  0000 0000 0000 0000 0000 0000 0000 0000
	0x0240:  0000 0000 0000 0000 0000 0000 0000 0000
	0x0250:  0000 0000 0000 0000 0000 0000
73.341057 unknown PPP protocol (0x0000) 
	0x0000:  0000 000a 0000 0000 0007 0800 4500 024c
	0x0010:  052a 0000 3e06 0000 0a01 0204 0a01 0304
	0x0020:  c001 1f90 0009 e8b1 0000 0001 8010 8000
	0x0030:  0000 0000 080a 0001 1e49 0001 1e16 0000
	0x0040:  0000 0000 0000 0000 0000 0000 0000 0000
	0x0050:  0000 0000 0000 0000 0000 0000 0000 0000
	0x0060:  0000 0000 0000 0000 0000 0000 0000 0000
	0x0070:  0000 0000 0000 0000 0000 0000 0000 0000
	0x0080:  0000 0000 0000 0000 0000 0000 0000 0000
	0x0090:  0000 0000 0000 0000 0000 0000 0000 0000
	0x00a0:  0000 0000 0000 0000 0000 0000 0000 0000
	0x00b0:  0000 0000 0000 0000 0000 0000 0000 0000
	0x00c0:  0000 0000 0000 0000 0000 0000 0000 0000
	0x00d0:  0000 0000 0000 0000 0000 0000 0000 0000
	0x00e0:  0000 0000 0000 0000 0000 0000 0000 0000
	0x00f0:  0000 0000 0000 0000 0000 0000 0000 0000
	0x0100:  0000 0000 0000 0000 0000 0000 0000 0000
	0x0110:  0000 0000 0000 0000 0000 0000 0000 0000
	0x0120:  0000 0000 0000 0000 0000 0000 0000 0000
	0x0130:  0000 0000 0000 0000 0000 0000 0000 0000
	0x0140:  0000 0000 0000 0000 0000 0000 0000 0000
	0x0150:  0000 0000 0000 0000 0000 0000 0000 0000
	0x0160:  0000 0000 0000 0000 0000 0000 0000 0000
	0x0170:  0000 0000 0000 0000 0000 0000 0000 0000
	0x0180:  0000 0000 0000 0000 0000 0000 0000 0000
	0x0190:  0000 0000 0000 0000 0000 0000 0000 0000
	0x01a0:  0000 0000 0000 0000 0000 0000 0000 0000
	0x01b0:  0000 0000 0000 0000 0000 0000 0000 0000
	0x01c0:  0000 0000 0000 0000 0000 0000 0000 0000
	0x01d0:  0000 0000 0000 0000 0000 0000 0000 0000
	0x01e0:  0000 0000 0000 0000 0000 0000 0000 0000
	0x01f0:  0000 0000 0000 0000 0000 0000 0000 0000
	0x0200:  0000 0000 0000 0000 0000 0000 0000 0000
	0x0210:  0000 0000 0000 0000 0000 0000 0000 0000
	0x0220:  0000 0000 0000 0000 0000 0000 0000 0000
	0x0230:  0000 0000 0000 0000 0000 0000 0000 0000
	0x0240:  0000 0000 0000 0000 0000 0000 0000 0000
	0x0250:  0000 0000 0000 0000 0000 0000
73.440350 unknown PPP protocol (0x0000) 
	0x0000:  0000 000a 0000 0000 0007 0800 4500 024c
	0x0010:  052b 0000 3e06 0000 0a01 0204 0a01 0304
	0x0020:  c001 1f90 0009 de39 0000 0001 8010 8000
	0x0030:  0000 0000 080a 0001 1ead 0001 1e7b 0000
	0x0040:  0000 0000 0000 0000 0000 0000 0000 0000
	0x0050:  0000 0000 0000 0000 0000 0000 0000 0000
	0x0060:  0000 0000 0000 0000 0000 0000 0000 0000
	0x0070:  0000 0000 0000 0000 0000 0000 0000 0000
	0x0080:  0000 0000 0000 0000 0000 0000 0000 0000
	0x0090:  0000 0000 0000 0000 0000 0000 0000 0000
	0x00a0:  0000 0000 0000 0000 0000 0000 0000 0000
	0x00b0:  0000 0000 0000 0000 0000 0000 0000 0000
	0x00c0:  0000 0000 0000 0000 0000 0000 0000 0000
	0x00d0:  0000 0000 0000 0000 0000 0000 0000 0000
	0x00e0:  0000 0000 0000 0000 0000 0000 0000 0000
	0x00f0:  0000 0000 0000 0000 0000 0000 0000 0000
	0x0100:  0000 0000 0000 0000 0000 0000 0000 0000
	0x0110:  0000 0000 0000 0000 0000 0000 0000 0000
	0x0120:  0000 0000 0000 0000 0000 0000 0000 0000
	0x0130:  0000 0000 0000 0000 0000 0000 0000 0000
	0x0140:  0000 0000 0000 0000 0000 0000 0000 0000
	0x0150:  0000 0000 0000 0000 0000 0000 0000 0000
	0x0160:  0000 0000 0000 0000 0000 0000 0000 0000
	0x0170:  0000 0000 0000 0000 0000 0000 0000 0000
	0x0180:  0000 0000 0000 0000 0000 0000 0000 0000
	0x0190:  0000 0000 0000 0000 0000 0000 0000 0000
	0x01a0:  0000 0000 0000 0000 0000 0000 0000 0000
	0x01b0:  0000 0000 0000 0000 0000 0000 0000 0000
	0x01c0:  0000 0000 0000 0000 0000 0000 0000 0000
	0x01d0:  0000 0000 0000 0000 0000 0000 0000 0000
	0x01e0:  0000 0000 0000 0000 0000 0000 0000 0000
	0x01f0:  0000 0000 0000 0000 0000 0000 0000 0000
	0x0200:  0000 0000 0000 0000 0000 0000 0000 0000
	0x0210:  0000 0000 0000 0000 0000 0000 0000 0000
	0x0220:  0000 0000 0000 0000 0000 0000 0000 0000
	0x0230:  0000 0000 0000 0000 0000 0000 0000 0000
	0x0240:  0000 0000 0000 0000 0000 0000 0000 0000
	0x0250:  0000 0000 0000 0000 0000 0000
74.949876 IP 10.1.2.4.49153 > 10.1.3.4.8080: Flags [.], seq 643200:643736, ack 1, win 32768, options [TS val 74897 ecr 74847,eol], length 536: HTTP
75.155070 IP 10.1.2.4.49153 > 10.1.3.4.8080: Flags [.], seq 646416:646952, ack 1, win 32768, options [TS val 75104 ecr 75053,eol], length 536: HTTP
75.659113 unknown PPP protocol (0x0000) 
	0x0000:  0000 000a 0000 0000 0007 0800 4500 024c
	0x0010:  0548 0000 3e06 0000 0a01 0204 0a01 0304
	0x0020:  c001 1f90 000a 1d09 0000 0001 8010 8000
	0x0030:  0000 0000 080a 0001 2758 0001 2725 0000
	0x0040:  0000 0000 0000 0000 0000 0000 0000 0000
	0x0050:  0000 0000 0000 0000 0000 0000 0000 0000
	0x0060:  0000 0000 0000 0000 0000 0000 0000 0000
	0x0070:  0000 0000 0000 0000 0000 0000 0000 0000
	0x0080:  0000 0000 0000 0000 0000 0000 0000 0000
	0x0090:  0000 0000 0000 0000 0000 0000 0000 0000
	0x00a0:  0000 0000 0000 0000 0000 0000 0000 0000
	0x00b0:  0000 0000 0000 0000 0000 0000 0000 0000
	0x00c0:  0000 0000 0000 0000 0000 0000 0000 0000
	0x00d0:  0000 0000 0000 0000 0000 0000 0000 0000
	0x00e0:  0000 0000 0000 0000 0000 0000 0000 0000
	0x00f0:  0000 0000 0000 0000 0000 0000 0000 0000
	0x0100:  0000 0000 0000 0000 0000 0000 0000 0000
	0x0110:  0000 0000 0000 0000 0000 0000 0000 0000
	0x0120:  0000 0000 0000 0000 0000 0000 0000 0000
	0x0130:  0000 0000 0000 0000 0000 0000 0000 0000
	0x0140:  0000 0000 0000 0000 0000 0000 0000 0000
	0x0150:  0000 0000 0000 0000 0000 0000 0000 0000
	0x0160:  0000 0000 0000 0000 0000 0000 0000 0000
	0x0170:  0000 0000 0000 0000 0000 0000 0000 0000
	0x0180:  0000 0000 0000 0000 0000 0000 0000 0000
	0x0190:  0000 0000 0000 0000 0000 0000 0000 0000
	0x01a0:  0000 0000 0000 0000 0000 0000 0000 0000
	0x01b0:  0000 0000 0000 0000 0000 0000 0000 0000
	0x01c0:  0000 0000 0000 0000 0000 0000 0000 0000
	0x01d0:  0000 0000 0000 0000 0000 0000 0000 0000
	0x01e0:  0000 0000 0000 0000 0000 0000 0000 0000
	0x01f0:  0000 0000 0000 0000 0000 0000 0000 0000
	0x0200:  0000 0000 0000 0000 0000 0000 0000 0000
	0x0210:  0000 0000 0000 0000 0000 0000 0000 0000
	0x0220:  0000 0000 0000 0000 0000 0000 0000 0000
	0x0230:  0000 0000 0000 0000 0000 0000 0000 0000
	0x0240:  0000 0000 0000 0000 0000 0000 0000 0000
	0x0250:  0000 0000 0000 0000 0000 0000
76.269877 IP 10.1.2.4.49153 > 10.1.3.4.8080: Flags [.], seq 653384:653920, ack 1, win 32768, options [TS val 76217 ecr 76167,eol], length 536: HTTP
76.881640 IP 10.1.2.4.49153 > 10.1.3.4.8080: Flags [.], seq 660352:660888, ack 1, win 32768, options [TS val 76829 ecr 76779,eol], length 536: HTTP
78.099501 unknown PPP protocol (0x0000) 
	0x0000:  0000 000a 0000 0000 0007 0800 4500 024c
	0x0010:  057d 0000 3e06 0000 0a01 0204 0a01 0304
	0x0020:  c001 1f90 000a 85b9 0000 0001 8010 8000
	0x0030:  0000 0000 080a 0001 30df 0001 30ad 0000
	0x0040:  0000 0000 0000 0000 0000 0000 0000 0000
	0x0050:  0000 0000 0000 0000 0000 0000 0000 0000
	0x0060:  0000 0000 0000 0000 0000 0000 0000 0000
	0x0070:  0000 0000 0000 0000 0000 0000 0000 0000
	0x0080:  0000 0000 0000 0000 0000 0000 0000 0000
	0x0090:  0000 0000 0000 0000 0000 0000 0000 0000
	0x00a0:  0000 0000 0000 0000 0000 0000 0000 0000
	0x00b0:  0000 0000 0000 0000 0000 0000 0000 0000
	0x00c0:  0000 0000 0000 0000 0000 0000 0000 0000
	0x00d0:  0000 0000 0000 0000 0000 0000 0000 0000
	0x00e0:  0000 0000 0000 0000 0000 0000 0000 0000
	0x00f0:  0000 0000 0000 0000 0000 0000 0000 0000
	0x0100:  0000 0000 0000 0000 0000 0000 0000 0000
	0x0110:  0000 0000 0000 0000 0000 0000 0000 0000
	0x0120:  0000 0000 0000 0000 0000 0000 0000 0000
	0x0130:  0000 0000 0000 0000 0000 0000 0000 0000
	0x0140:  0000 0000 0000 0000 0000 0000 0000 0000
	0x0150:  0000 0000 0000 0000 0000 0000 0000 0000
	0x0160:  0000 0000 0000 0000 0000 0000 0000 0000
	0x0170:  0000 0000 0000 0000 0000 0000 0000 0000
	0x0180:  0000 0000 0000 0000 0000 0000 0000 0000
	0x0190:  0000 0000 0000 0000 0000 0000 0000 0000
	0x01a0:  0000 0000 0000 0000 0000 0000 0000 0000
	0x01b0:  0000 0000 0000 0000 0000 0000 0000 0000
	0x01c0:  0000 0000 0000 0000 0000 0000 0000 0000
	0x01d0:  0000 0000 0000 0000 0000 0000 0000 0000
	0x01e0:  0000 0000 0000 0000 0000 0000 0000 0000
	0x01f0:  0000 0000 0000 0000 0000 0000 0000 0000
	0x0200:  0000 0000 0000 0000 0000 0000 0000 0000
	0x0210:  0000 0000 0000 0000 0000 0000 0000 0000
	0x0220:  0000 0000 0000 0000 0000 0000 0000 0000
	0x0230:  0000 0000 0000 0000 0000 0000 0000 0000
	0x0240:  0000 0000 0000 0000 0000 0000 0000 0000
	0x0250:  0000 0000 0000 0000 0000 0000
78.610972 IP 10.1.2.4.49153 > 10.1.3.4.8080: Flags [.], seq 682864:683400, ack 1, win 32768, options [TS val 78559 ecr 78509,eol], length 536: HTTP
78.611971 unknown PPP protocol (0x0000) 
	0x0000:  0000 000a 0000 0000 0007 0800 4500 024c
	0x0010:  058d 0000 3e06 0000 0a01 0204 0a01 0304
	0x0020:  c001 1f90 000a a521 0000 0001 8010 8000
	0x0030:  0000 0000 080a 0001 32df 0001 32ad 0000
	0x0040:  0000 0000 0000 0000 0000 0000 0000 0000
	0x0050:  0000 0000 0000 0000 0000 0000 0000 0000
	0x0060:  0000 0000 0000 0000 0000 0000 0000 0000
	0x0070:  0000 0000 0000 0000 0000 0000 0000 0000
	0x0080:  0000 0000 0000 0000 0000 0000 0000 0000
	0x0090:  0000 0000 0000 0000 0000 0000 0000 0000
	0x00a0:  0000 0000 0000 0000 0000 0000 0000 0000
	0x00b0:  0000 0000 0000 0000 0000 0000 0000 0000
	0x00c0:  0000 0000 0000 0000 0000 0000 0000 0000
	0x00d0:  0000 0000 0000 0000 0000 0000 0000 0000
	0x00e0:  0000 0000 0000 0000 0000 0000 0000 0000
	0x00f0:  0000 0000 0000 0000 0000 0000 0000 0000
	0x0100:  0000 0000 0000 0000 0000 0000 0000 0000
	0x0110:  0000 0000 0000 0000 0000 0000 0000 0000
	0x0120:  0000 0000 0000 0000 0000 0000 0000 0000
	0x0130:  0000 0000 0000 0000 0000 0000 0000 0000
	0x0140:  0000 0000 0000 0000 0000 0000 0000 0000
	0x0150:  0000 0000 0000 0000 0000 0000 0000 0000
	0x0160:  0000 0000 0000 0000 0000 0000 0000 0000
	0x0170:  0000 0000 0000 0000 0000 0000 0000 0000
	0x0180:  0000 0000 0000 0000 0000 0000 0000 0000
	0x0190:  0000 0000 0000 0000 0000 0000 0000 0000
	0x01a0:  0000 0000 0000 0000 0000 0000 0000 0000
	0x01b0:  0000 0000 0000 0000 0000 0000 0000 0000
	0x01c0:  0000 0000 0000 0000 0000 0000 0000 0000
	0x01d0:  0000 0000 0000 0000 0000 0000 0000 0000
	0x01e0:  0000 0000 0000 0000 0000 0000 0000 0000
	0x01f0:  0000 0000 0000 0000 0000 0000 0000 0000
	0x0200:  0000 0000 0000 0000 0000 0000 0000 0000
	0x0210:  0000 0000 0000 0000 0000 0000 0000 0000
	0x0220:  0000 0000 0000 0000 0000 0000 0000 0000
	0x0230:  0000 0000 0000 0000 0000 0000 0000 0000
	0x0240:  0000 0000 0000 0000 0000 0000 0000 0000
	0x0250:  0000 0000 0000 0000 0000 0000
79.317860 unknown PPP protocol (0x0000) 
	0x0000:  0000 000a 0000 0000 0007 0800 4500 024c
	0x0010:  0594 0000 3e06 0000 0a01 0204 0a01 0304
	0x0020:  c001 1f90 000a af99 0000 0001 8010 8000
	0x0030:  0000 0000 080a 0001 35a2 0001 3570 0000
	0x0040:  0000 0000 0000 0000 0000 0000 0000 0000
	0x0050:  0000 0000 0000 0000 0000 0000 0000 0000
	0x0060:  0000 0000 0000 0000 0000 0000 0000 0000
	0x0070:  0000 0000 0000 0000 0000 0000 0000 0000
	0x0080:  0000 0000 0000 0000 0000 0000 0000 0000
	0x0090:  0000 0000 0000 0000 0000 0000 0000 0000
	0x00a0:  0000 0000 0000 0000 0000 0000 0000 0000
	0x00b0:  0000 0000 0000 0000 0000 0000 0000 0000
	0x00c0:  0000 0000 0000 0000 0000 0000 0000 0000
	0x00d0:  0000 0000 0000 0000 0000 0000 0000 0000
	0x00e0:  0000 0000 0000 0000 0000 0000 0000 0000
	0x00f0:  0000 0000 0000 0000 0000 0000 0000 0000
	0x0100:  0000 0000 0000 0000 0000 0000 0000 0000
	0x0110:  0000 0000 0000 0000 0000 0000 0000 0000
	0x0120:  0000 0000 0000 0000 0000 0000 0000 0000
	0x0130:  0000 0000 0000 0000 0000 0000 0000 0000
	0x0140:  0000 0000 0000 0000 0000 0000 0000 0000
	0x0150:  0000 0000 0000 0000 0000 0000 0000 0000
	0x0160:  0000 0000 0000 0000 0000 0000 0000 0000
	0x0170:  0000 0000 0000 0000 0000 0000 0000 0000
	0x0180:  0000 0000 0000 0000 0000 0000 0000 0000
	0x0190:  0000 0000 0000 0000 0000 0000 0000 0000
	0x01a0:  0000 0000 0000 0000 0000 0000 0000 0000
	0x01b0:  0000 0000 0000 0000 0000 0000 0000 0000
	0x01c0:  0000 0000 0000 0000 0000 0000 0000 0000
	0x01d0:  0000 0000 0000 0000 0000 0000 0000 0000
	0x01e0:  0000 0000 0000 0000 0000 0000 0000 0000
	0x01f0:  0000 0000 0000 0000 0000 0000 0000 0000
	0x0200:  0000 0000 0000 0000 0000 0000 0000 0000
	0x0210:  0000 0000 0000 0000 0000 0000 0000 0000
	0x0220:  0000 0000 0000 0000 0000 0000 0000 0000
	0x0230:  0000 0000 0000 0000 0000 0000 0000 0000
	0x0240:  0000 0000 0000 0000 0000 0000 0000 0000
	0x0250:  0000 0000 0000 0000 0000 0000
79.518748 IP 10.1.2.4.49153 > 10.1.3.4.8080: Flags [.], seq 686616:687152, ack 1, win 32768, options [TS val 79467 ecr 79417,eol], length 536: HTTP
80.922024 IP 10.1.2.4.49153 > 10.1.3.4.8080: Flags [.], seq 687688:688224, ack 1, win 32768, options [TS val 80871 ecr 80820,eol], length 536: HTTP
81.327733 unknown PPP protocol (0x0000) 
	0x0000:  0000 000a 0000 0000 0007 0800 4500 024c
	0x0010:  059e 0000 3e06 0000 0a01 0204 0a01 0304
	0x0020:  c001 1f90 000a be41 0000 0001 8010 8000
	0x0030:  0000 0000 080a 0001 3d7c 0001 3d4a 0000
	0x0040:  0000 0000 0000 0000 0000 0000 0000 0000
	0x0050:  0000 0000 0000 0000 0000 0000 0000 0000
	0x0060:  0000 0000 0000 0000 0000 0000 0000 0000
	0x0070:  0000 0000 0000 0000 0000 0000 0000 0000
	0x0080:  0000 0000 0000 0000 0000 0000 0000 0000
	0x0090:  0000 0000 0000 0000 0000 0000 0000 0000
	0x00a0:  0000 0000 0000 0000 0000 0000 0000 0000
	0x00b0:  0000 0000 0000 0000 0000 0000 0000 0000
	0x00c0:  0000 0000 0000 0000 0000 0000 0000 0000
	0x00d0:  0000 0000 0000 0000 0000 0000 0000 0000
	0x00e0:  0000 0000 0000 0000 0000 0000 0000 0000
	0x00f0:  0000 0000 0000 0000 0000 0000 0000 0000
	0x0100:  0000 0000 0000 0000 0000 0000 0000 0000
	0x0110:  0000 0000 0000 0000 0000 0000 0000 0000
	0x0120:  0000 0000 0000 0000 0000 0000 0000 0000
	0x0130:  0000 0000 0000 0000 0000 0000 0000 0000
	0x0140:  0000 0000 0000 0000 0000 0000 0000 0000
	0x0150:  0000 0000 0000 0000 0000 0000 0000 0000
	0x0160:  0000 0000 0000 0000 0000 0000 0000 0000
	0x0170:  0000 0000 0000 0000 0000 0000 0000 0000
	0x0180:  0000 0000 0000 0000 0000 0000 0000 0000
	0x0190:  0000 0000 0000 0000 0000 0000 0000 0000
	0x01a0:  0000 0000 0000 0000 0000 0000 0000 0000
	0x01b0:  0000 0000 0000 0000 0000 0000 0000 0000
	0x01c0:  0000 0000 0000 0000 0000 0000 0000 0000
	0x01d0:  0000 0000 0000 0000 0000 0000 0000 0000
	0x01e0:  0000 0000 0000 0000 0000 0000 0000 0000
	0x01f0:  0000 0000 0000 0000 0000 0000 0000 0000
	0x0200:  0000 0000 0000 0000 0000 0000 0000 0000
	0x0210:  0000 0000 0000 0000 0000 0000 0000 0000
	0x0220:  0000 0000 0000 0000 0000 0000 0000 0000
	0x0230:  0000 0000 0000 0000 0000 0000 0000 0000
	0x0240:  0000 0000 0000 0000 0000 0000 0000 0000
	0x0250:  0000 0000 0000 0000 0000 0000
81.531038 unknown PPP protocol (0x0000) 
	0x0000:  0000 000a 0000 0000 0007 0800 4500 024c
	0x0010:  05a1 0000 3e06 0000 0a01 0204 0a01 0304
	0x0020:  c001 1f90 000a c489 0000 0001 8010 8000
	0x0030:  0000 0000 080a 0001 3e47 0001 3e15 0000
	0x0040:  0000 0000 0000 0000 0000 0000 0000 0000
	0x0050:  0000 0000 0000 0000 0000 0000 0000 0000
	0x0060:  0000 0000 0000 0000 0000 0000 0000 0000
	0x0070:  0000 0000 0000 0000 0000 0000 0000 0000
	0x0080:  0000 0000 0000 0000 0000 0000 0000 0000
	0x0090:  0000 0000 0000 0000 0000 0000 0000 0000
	0x00a0:  0000 0000 0000 0000 0000 0000 0000 0000
	0x00b0:  0000 0000 0000 0000 0000 0000 0000 0000
	0x00c0:  0000 0000 0000 0000 0000 0000 0000 0000
	0x00d0:  0000 0000 0000 0000 0000 0000 0000 0000
	0x00e0:  0000 0000 0000 0000 0000 0000 0000 0000
	0x00f0:  0000 0000 0000 0000 0000 0000 0000 0000
	0x0100:  0000 0000 0000 0000 0000 0000 0000 0000
	0x0110:  0000 0000 0000 0000 0000 0000 0000 0000
	0x0120:  0000 0000 0000 0000 0000 0000 0000 0000
	0x0130:  0000 0000 0000 0000 0000 0000 0000 0000
	0x0140:  0000 0000 0000 0000 0000 0000 0000 0000
	0x0150:  0000 0000 0000 0000 0000 0000 0000 0000
	0x0160:  0000 0000 0000 0000 0000 0000 0000 0000
	0x0170:  0000 0000 0000 0000 0000 0000 0000 0000
	0x0180:  0000 0000 0000 0000 0000 0000 0000 0000
	0x0190:  0000 0000 0000 0000 0000 0000 0000 0000
	0x01a0:  0000 0000 0000 0000 0000 0000 0000 0000
	0x01b0:  0000 0000 0000 0000 0000 0000 0000 0000
	0x01c0:  0000 0000 0000 0000 0000 0000 0000 0000
	0x01d0:  0000 0000 0000 0000 0000 0000 0000 0000
	0x01e0:  0000 0000 0000 0000 0000 0000 0000 0000
	0x01f0:  0000 0000 0000 0000 0000 0000 0000 0000
	0x0200:  0000 0000 0000 0000 0000 0000 0000 0000
	0x0210:  0000 0000 0000 0000 0000 0000 0000 0000
	0x0220:  0000 0000 0000 0000 0000 0000 0000 0000
	0x0230:  0000 0000 0000 0000 0000 0000 0000 0000
	0x0240:  0000 0000 0000 0000 0000 0000 0000 0000
	0x0250:  0000 0000 0000 0000 0000 0000
82.735176 IP 10.1.2.4.49153 > 10.1.3.4.8080: Flags [.], seq 695192:695728, ack 1, win 32768, options [TS val 82684 ecr 82634,eol], length 536: HTTP
83.447162 IP 10.1.2.4.49153 > 10.1.3.4.8080: Flags [.], seq 702696:703232, ack 1, win 32768, options [TS val 83396 ecr 83346,eol], length 536: HTTP
83.650522 unknown PPP protocol (0x0000) 
	0x0000:  0000 000a 0000 0000 0007 0800 4500 024c
	0x0010:  05bd 0000 3e06 0000 0a01 0204 0a01 0304
	0x0020:  c001 1f90 000a f8e1 0000 0001 8010 8000
	0x0030:  0000 0000 080a 0001 468f 0001 465d 0000
	0x0040:  0000 0000 0000 0000 0000 0000 0000 0000
	0x0050:  0000 0000 0000 0000 0000 0000 0000 0000
	0x0060:  0000 0000 0000 0000 0000 0000 0000 0000
	0x0070:  0000 0000 0000 0000 0000 0000 0000 0000
	0x0080:  0000 0000 0000 0000 0000 0000 0000 0000
	0x0090:  0000 0000 0000 0000 0000 0000 0000 0000
	0x00a0:  0000 0000 0000 0000 0000 0000 0000 0000
	0x00b0:  0000 0000 0000 0000 0000 0000 0000 0000
	0x00c0:  0000 0000 0000 0000 0000 0000 0000 0000
	0x00d0:  0000 0000 0000 0000 0000 0000 0000 0000
	0x00e0:  0000 0000 0000 0000 0000 0000 0000 0000
	0x00f0:  0000 0000 0000 0000 0000 0000 0000 0000
	0x0100:  0000 0000 0000 0000 0000 0000 0000 0000
	0x0110:  0000 0000 0000 0000 0000 0000 0000 0000
	0x0120:  0000 0000 0000 0000 0000 0000 0000 0000
	0x0130:  0000 0000 0000 0000 0000 0000 0000 0000
	0x0140:  0000 0000 0000 0000 0000 0000 0000 0000
	0x0150:  0000 0000 0000 0000 0000 0000 0000 0000
	0x0160:  0000 0000 0000 0000 0000 0000 0000 0000
	0x0170:  0000 0000 0000 0000 0000 0000 0000 0000
	0x0180:  0000 0000 0000 0000 0000 0000 0000 0000
	0x0190:  0000 0000 0000 0000 0000 0000 0000 0000
	0x01a0:  0000 0000 0000 0000 0000 0000 0000 0000
	0x01b0:  0000 0000 0000 0000 0000 0000 0000 0000
	0x01c0:  0000 0000 0000 0000 0000 0000 0000 0000
	0x01d0:  0000 0000 0000 0000 0000 0000 0000 0000
	0x01e0:  0000 0000 0000 0000 0000 0000 0000 0000
	0x01f0:  0000 0000 0000 0000 0000 0000 0000 0000
	0x0200:  0000 0000 0000 0000 0000 0000 0000 0000
	0x0210:  0000 0000 0000 0000 0000 0000 0000 0000
	0x0220:  0000 0000 0000 0000 0000 0000 0000 0000
	0x0230:  0000 0000 0000 0000 0000 0000 0000 0000
	0x0240:  0000 0000 0000 0000 0000 0000 0000 0000
	0x0250:  0000 0000 0000 0000 0000 0000
83.853814 unknown PPP protocol (0x0000) 
	0x0000:  0000 000a 0000 0000 0007 0800 4500 024c
	0x0010:  05c0 0000 3e06 0000 0a01 0204 0a01 0304
	0x0020:  c001 1f90 000a fd11 0000 0001 8010 8000
	0x0030:  0000 0000 080a 0001 475a 0001 4728 0000
	0x0040:  0000 0000 0000 0000 0000 0000 0000 0000
	0x0050:  0000 0000 0000 0000 0000 0000 0000 0000
	0x0060:  0000 0000 0000 0000 0000 0000 0000 0000
	0x0070:  0000 0000 0000 0000 0000 0000 0000 0000
	0x0080:  0000 0000 0000 0000 0000 0000 0000 0000
	0x0090:  0000 0000 0000 0000 0000 0000 0000 0000
	0x00a0:  0000 0000 0000 0000 0000 0000 0000 0000
	0x00b0:  0000 0000 0000 0000 0000 0000 0000 0000
	0x00c0:  0000 0000 0000 0000 0000 0000 0000 0000
	0x00d0:  0000 0000 0000 0000 0000 0000 0000 0000
	0x00e0:  0000 0000 0000 0000 0000 0000 0000 0000
	0x00f0:  0000 0000 0000 0000 0000 0000 0000 0000
	0x0100:  0000 0000 0000 0000 0000 0000 0000 0000
	0x0110:  0000 0000 0000 0000 0000 0000 0000 0000
	0x0120:  0000 0000 0000 0000 0000 0000 0000 0000
	0x0130:  0000 0000 0000 0000 0000 0000 0000 0000
	0x0140:  0000 0000 0000 0000 0000 0000 0000 0000
	0x0150:  0000 0000 0000 0000 0000 0000 0000 0000
	0x0160:  0000 0000 0000 0000 0000 0000 0000 0000
	0x0170:  0000 0000 0000 0000 0000 0000 0000 0000
	0x0180:  0000 0000 0000 0000 0000 0000 0000 0000
	0x0190:  0000 0000 0000 0000 0000 0000 0000 0000
	0x01a0:  0000 0000 0000 0000 0000 0000 0000 0000
	0x01b0:  0000 0000 0000 0000 0000 0000 0000 0000
	0x01c0:  0000 0000 0000 0000 0000 0000 0000 0000
	0x01d0:  0000 0000 0000 0000 0000 0000 0000 0000
	0x01e0:  0000 0000 0000 0000 0000 0000 0000 0000
	0x01f0:  0000 0000 0000 0000 0000 0000 0000 0000
	0x0200:  0000 0000 0000 0000 0000 0000 0000 0000
	0x0210:  0000 0000 0000 0000 0000 0000 0000 0000
	0x0220:  0000 0000 0000 0000 0000 0000 0000 0000
	0x0230:  0000 0000 0000 0000 0000 0000 0000 0000
	0x0240:  0000 0000 0000 0000 0000 0000 0000 0000
	0x0250:  0000 0000 0000 0000 0000 0000
84.956799 IP 10.1.2.4.49153 > 10.1.3.4.8080: Flags [.], seq 707520:708056, ack 1, win 32768, options [TS val 84904 ecr 84854,eol], length 536: HTTP
85.460326 IP 10.1.2.4.49153 > 10.1.3.4.8080: Flags [.], seq 710200:710736, ack 1, win 32768, options [TS val 85409 ecr 85359,eol], length 536: HTTP
86.169480 IP 10.1.2.4.49153 > 10.1.3.4.8080: Flags [.], seq 714488:715024, ack 1, win 32768, options [TS val 86118 ecr 86068,eol], length 536: HTTP
86.677230 IP 10.1.2.4.49153 > 10.1.3.4.8080: Flags [.], seq 719312:719848, ack 1, win 32768, options [TS val 86626 ecr 86576,eol], length 536: HTTP
86.780299 IP 10.1.2.4.49153 > 10.1.3.4.8080: Flags [.], seq 721456:721992, ack 1, win 32768, options [TS val 86729 ecr 86679,eol], length 536: HTTP
87.591578 IP 10.1.2.4.49153 > 10.1.3.4.8080: Flags [.], seq 726280:726816, ack 1, win 32768, options [TS val 87539 ecr 87489,eol], length 536: HTTP
87.592522 IP 10.1.2.4.49153 > 10.1.3.4.8080: Flags [.], seq 726816:727352, ack 1, win 32768, options [TS val 87539 ecr 87489,eol], length 536: HTTP
88.499856 unknown PPP protocol (0x0000) 
	0x0000:  0000 000a 0000 0000 0007 0800 4500 024c
	0x0010:  05f7 0000 3e06 0000 0a01 0204 0a01 0304
	0x0020:  c001 1f90 000b 5d61 0000 0001 8010 8000
	0x0030:  0000 0000 080a 0001 597f 0001 594d 0000
	0x0040:  0000 0000 0000 0000 0000 0000 0000 0000
	0x0050:  0000 0000 0000 0000 0000 0000 0000 0000
	0x0060:  0000 0000 0000 0000 0000 0000 0000 0000
	0x0070:  0000 0000 0000 0000 0000 0000 0000 0000
	0x0080:  0000 0000 0000 0000 0000 0000 0000 0000
	0x0090:  0000 0000 0000 0000 0000 0000 0000 0000
	0x00a0:  0000 0000 0000 0000 0000 0000 0000 0000
	0x00b0:  0000 0000 0000 0000 0000 0000 0000 0000
	0x00c0:  0000 0000 0000 0000 0000 0000 0000 0000
	0x00d0:  0000 0000 0000 0000 0000 0000 0000 0000
	0x00e0:  0000 0000 0000 0000 0000 0000 0000 0000
	0x00f0:  0000 0000 0000 0000 0000 0000 0000 0000
	0x0100:  0000 0000 0000 0000 0000 0000 0000 0000
	0x0110:  0000 0000 0000 0000 0000 0000 0000 0000
	0x0120:  0000 0000 0000 0000 0000 0000 0000 0000
	0x0130:  0000 0000 0000 0000 0000 0000 0000 0000
	0x0140:  0000 0000 0000 0000 0000 0000 0000 0000
	0x0150:  0000 0000 0000 0000 0000 0000 0000 0000
	0x0160:  0000 0000 0000 0000 0000 0000 0000 0000
	0x0170:  0000 0000 0000 0000 0000 0000 0000 0000
	0x0180:  0000 0000 0000 0000 0000 0000 0000 0000
	0x0190:  0000 0000 0000 0000 0000 0000 0000 0000
	0x01a0:  0000 0000 0000 0000 0000 0000 0000 0000
	0x01b0:  0000 0000 0000 0000 0000 0000 0000 0000
	0x01c0:  0000 0000 0000 0000 0000 0000 0000 0000
	0x01d0:  0000 0000 0000 0000 0000 0000 0000 0000
	0x01e0:  0000 0000 0000 0000 0000 0000 0000 0000
	0x01f0:  0000 0000 0000 0000 0000 0000 0000 0000
	0x0200:  0000 0000 0000 0000 0000 0000 0000 0000
	0x0210:  0000 0000 0000 0000 0000 0000 0000 0000
	0x0220:  0000 0000 0000 0000 0000 0000 0000 0000
	0x0230:  0000 0000 0000 0000 0000 0000 0000 0000
	0x0240:  0000 0000 0000 0000 0000 0000 0000 0000
	0x0250:  0000 0000 0000 0000 0000 0000
88.902147 IP 10.1.2.4.49153 > 10.1.3.4.8080: Flags [.], seq 732712:733248, ack 1, win 32768, options [TS val 88851 ecr 88801,eol], length 536: HTTP
89.103551 IP 10.1.2.4.49153 > 10.1.3.4.8080: Flags [.], seq 733248:733784, ack 1, win 32768, options [TS val 89052 ecr 89002,eol], length 536: HTTP
90.608938 IP 10.1.2.4.49153 > 10.1.3.4.8080: Flags [.], seq 735392:735928, ack 1, win 32768, options [TS val 90557 ecr 90507,eol], length 536: HTTP
90.609882 IP 10.1.2.4.49153 > 10.1.3.4.8080: Flags [.], seq 735928:736464, ack 1, win 32768, options [TS val 90557 ecr 90507,eol], length 536: HTTP
92.420656 IP 10.1.2.4.49153 > 10.1.3.4.8080: Flags [.], seq 742360:742896, ack 1, win 32768, options [TS val 92368 ecr 92318,eol], length 536: HTTP
92.520879 IP 10.1.2.4.49153 > 10.1.3.4.8080: Flags [.], seq 742896:743432, ack 1, win 32768, options [TS val 92469 ecr 92419,eol], length 536: HTTP
92.623948 IP 10.1.2.4.49153 > 10.1.3.4.8080: Flags [.], seq 745040:745576, ack 1, win 32768, options [TS val 92572 ecr 92522,eol], length 536: HTTP
92.724185 IP 10.1.2.4.49153 > 10.1.3.4.8080: Flags [.], seq 742360:742896, ack 1, win 32768, options [TS val 92673 ecr 92623,eol], length 536: HTTP
94.334003 IP 10.1.2.4.49153 > 10.1.3.4.8080: Flags [.], seq 753616:754152, ack 1, win 32768, options [TS val 94283 ecr 94232,eol], length 536: HTTP
94.434225 IP 10.1.2.4.49153 > 10.1.3.4.8080: Flags [.], seq 754688:755224, ack 1, win 32768, options [TS val 94383 ecr 94333,eol], length 536: HTTP
94.942004 IP 10.1.2.4.49153 > 10.1.3.4.8080: Flags [.], seq 758976:759512, ack 1, win 32768, options [TS val 94891 ecr 94840,eol], length 536: HTTP
96.060586 unknown PPP protocol (0x0000) 
	0x0000:  0000 000a 0000 0000 0007 0800 4500 024c
	0x0010:  0654 0000 3e06 0000 0a01 0204 0a01 0304
	0x0020:  c001 1f90 000c 06f9 0000 0001 8010 8000
	0x0030:  0000 0000 080a 0001 7708 0001 76d6 0000
	0x0040:  0000 0000 0000 0000 0000 0000 0000 0000
	0x0050:  0000 0000 0000 0000 0000 0000 0000 0000
	0x0060:  0000 0000 0000 0000 0000 0000 0000 0000
	0x0070:  0000 0000 0000 0000 0000 0000 0000 0000
	0x0080:  0000 0000 0000 0000 0000 0000 0000 0000
	0x0090:  0000 0000 0000 0000 0000 0000 0000 0000
	0x00a0:  0000 0000 0000 0000 0000 0000 0000 0000
	0x00b0:  0000 0000 0000 0000 0000 0000 0000 0000
	0x00c0:  0000 0000 0000 0000 0000 0000 0000 0000
	0x00d0:  0000 0000 0000 0000 0000 0000 0000 0000
	0x00e0:  0000 0000 0000 0000 0000 0000 0000 0000
	0x00f0:  0000 0000 0000 0000 0000 0000 0000 0000
	0x0100:  0000 0000 0000 0000 0000 0000 0000 0000
	0x0110:  0000 0000 0000 0000 0000 0000 0000 0000
	0x0120:  0000 0000 0000 0000 0000 0000 0000 0000
	0x0130:  0000 0000 0000 0000 0000 0000 0000 0000
	0x0140:  0000 0000 0000 0000 0000 0000 0000 0000
	0x0150:  0000 0000 0000 0000 0000 0000 0000 0000
	0x0160:  0000 0000 0000 0000 0000 0000 0000 0000
	0x0170:  0000 0000 0000 0000 0000 0000 0000 0000
	0x0180:  0000 0000 0000 0000 0000 0000 0000 0000
	0x0190:  0000 0000 0000 0000 0000 0000 0000 0000
	0x01a0:  0000 0000 0000 0000 0000 0000 0000 0000
	0x01b0:  0000 0000 0000 0000 0000 0000 0000 0000
	0x01c0:  0000 0000 0000 0000 0000 0000 0000 0000
	0x01d0:  0000 0000 0000 0000 0000 0000 0000 0000
	0x01e0:  0000 0000 0000 0000 0000 0000 0000 0000
	0x01f0:  0000 0000 0000 0000 0000 0000 0000 0000
